{"contracts/DemoNFT.sol":{"DemoNFT":{"abi":[{"inputs":[],"stateMutability":"nonpayable","type":"constructor"},{"anonymous":false,"inputs":[{"indexed":true,"internalType":"address","name":"owner","type":"address"},{"indexed":true,"internalType":"address","name":"operator","type":"address"},{"indexed":false,"internalType":"bool","name":"approved","type":"bool"}],"name":"ApprovalForAll","type":"event"},{"anonymous":false,"inputs":[{"indexed":false,"internalType":"string","name":"baseMetadataURI","type":"string"}],"name":"BaseMetadataURISet","type":"event"},{"anonymous":false,"inputs":[{"indexed":true,"internalType":"address","name":"previousOwner","type":"address"},{"indexed":true,"internalType":"address","name":"newOwner","type":"address"}],"name":"OwnershipTransferred","type":"event"},{"anonymous":false,"inputs":[],"name":"Paused","type":"event"},{"anonymous":false,"inputs":[{"indexed":false,"internalType":"bytes32","name":"role","type":"bytes32"},{"indexed":false,"internalType":"address","name":"account","type":"address"},{"indexed":false,"internalType":"address","name":"operator","type":"address"}],"name":"RoleGranted","type":"event"},{"anonymous":false,"inputs":[{"indexed":false,"internalType":"bytes32","name":"role","type":"bytes32"},{"indexed":false,"internalType":"address","name":"account","type":"address"},{"indexed":false,"internalType":"address","name":"operator","type":"address"}],"name":"RoleRevoked","type":"event"},{"anonymous":false,"inputs":[{"indexed":true,"internalType":"address","name":"operator","type":"address"},{"indexed":true,"internalType":"address","name":"from","type":"address"},{"indexed":true,"internalType":"address","name":"to","type":"address"},{"indexed":false,"internalType":"uint256[]","name":"ids","type":"uint256[]"},{"indexed":false,"internalType":"uint256[]","name":"values","type":"uint256[]"}],"name":"TransferBatch","type":"event"},{"anonymous":false,"inputs":[{"indexed":true,"internalType":"address","name":"operator","type":"address"},{"indexed":true,"internalType":"address","name":"from","type":"address"},{"indexed":true,"internalType":"address","name":"to","type":"address"},{"indexed":false,"internalType":"uint256","name":"id","type":"uint256"},{"indexed":false,"internalType":"uint256","name":"value","type":"uint256"}],"name":"TransferSingle","type":"event"},{"anonymous":false,"inputs":[{"indexed":false,"internalType":"string","name":"value","type":"string"},{"indexed":true,"internalType":"uint256","name":"id","type":"uint256"}],"name":"URI","type":"event"},{"anonymous":false,"inputs":[],"name":"Unpaused","type":"event"},{"inputs":[],"name":"ADMIN_ROLE","outputs":[{"internalType":"bytes32","name":"","type":"bytes32"}],"stateMutability":"view","type":"function"},{"inputs":[],"name":"MINTER_ROLE","outputs":[{"internalType":"bytes32","name":"","type":"bytes32"}],"stateMutability":"view","type":"function"},{"inputs":[],"name":"SUPER_ADMIN_ROLE","outputs":[{"internalType":"bytes32","name":"","type":"bytes32"}],"stateMutability":"view","type":"function"},{"inputs":[{"internalType":"address","name":"owner","type":"address"},{"internalType":"uint256","name":"id","type":"uint256"}],"name":"balanceOf","outputs":[{"internalType":"uint256","name":"balance","type":"uint256"}],"stateMutability":"view","type":"function"},{"inputs":[{"internalType":"address[]","name":"owners","type":"address[]"},{"internalType":"uint256[]","name":"ids","type":"uint256[]"}],"name":"balanceOfBatch","outputs":[{"internalType":"uint256[]","name":"balances","type":"uint256[]"}],"stateMutability":"view","type":"function"},{"inputs":[],"name":"baseMetadataURI","outputs":[{"internalType":"string","name":"baseURI","type":"string"}],"stateMutability":"view","type":"function"},{"inputs":[{"internalType":"address","name":"from","type":"address"},{"internalType":"uint256[]","name":"ids","type":"uint256[]"},{"internalType":"uint256[]","name":"values","type":"uint256[]"}],"name":"batchBurnFrom","outputs":[],"stateMutability":"nonpayable","type":"function"},{"inputs":[{"internalType":"address","name":"from","type":"address"},{"internalType":"uint256","name":"id","type":"uint256"},{"internalType":"uint256","name":"value","type":"uint256"}],"name":"burnFrom","outputs":[],"stateMutability":"nonpayable","type":"function"},{"inputs":[{"internalType":"address","name":"account","type":"address"}],"name":"grantAdminRole","outputs":[],"stateMutability":"nonpayable","type":"function"},{"inputs":[{"internalType":"address","name":"account","type":"address"}],"name":"grantMinterRole","outputs":[],"stateMutability":"nonpayable","type":"function"},{"inputs":[{"internalType":"bytes32","name":"role","type":"bytes32"},{"internalType":"address","name":"account","type":"address"}],"name":"grantRole","outputs":[],"stateMutability":"nonpayable","type":"function"},{"inputs":[{"internalType":"bytes32","name":"role","type":"bytes32"},{"internalType":"address","name":"account","type":"address"}],"name":"hasRole","outputs":[{"internalType":"bool","name":"","type":"bool"}],"stateMutability":"view","type":"function"},{"inputs":[{"internalType":"address","name":"owner","type":"address"},{"internalType":"address","name":"operator","type":"address"}],"name":"isApprovedForAll","outputs":[{"internalType":"bool","name":"approvedForAll","type":"bool"}],"stateMutability":"view","type":"function"},{"inputs":[],"name":"owner","outputs":[{"internalType":"address","name":"","type":"address"}],"stateMutability":"view","type":"function"},{"inputs":[],"name":"pause","outputs":[],"stateMutability":"nonpayable","type":"function"},{"inputs":[],"name":"paused","outputs":[{"internalType":"bool","name":"","type":"bool"}],"stateMutability":"view","type":"function"},{"inputs":[{"internalType":"bytes32","name":"role","type":"bytes32"}],"name":"renounceRole","outputs":[],"stateMutability":"nonpayable","type":"function"},{"inputs":[{"internalType":"bytes32","name":"role","type":"bytes32"},{"internalType":"address","name":"account","type":"address"}],"name":"revokeRole","outputs":[],"stateMutability":"nonpayable","type":"function"},{"inputs":[{"internalType":"address","name":"to","type":"address"},{"internalType":"uint256[]","name":"ids","type":"uint256[]"},{"internalType":"uint256[]","name":"values","type":"uint256[]"},{"internalType":"bytes","name":"data","type":"bytes"}],"name":"safeBatchMint","outputs":[],"stateMutability":"nonpayable","type":"function"},{"inputs":[{"internalType":"address","name":"from","type":"address"},{"internalType":"address","name":"to","type":"address"},{"internalType":"uint256[]","name":"ids","type":"uint256[]"},{"internalType":"uint256[]","name":"values","type":"uint256[]"},{"internalType":"bytes","name":"data","type":"bytes"}],"name":"safeBatchTransferFrom","outputs":[],"stateMutability":"nonpayable","type":"function"},{"inputs":[{"internalType":"address","name":"to","type":"address"},{"internalType":"uint256","name":"id","type":"uint256"},{"internalType":"uint256","name":"value","type":"uint256"},{"internalType":"bytes","name":"data","type":"bytes"}],"name":"safeMint","outputs":[],"stateMutability":"nonpayable","type":"function"},{"inputs":[{"internalType":"address","name":"from","type":"address"},{"internalType":"address","name":"to","type":"address"},{"internalType":"uint256","name":"id","type":"uint256"},{"internalType":"uint256","name":"value","type":"uint256"},{"internalType":"bytes","name":"data","type":"bytes"}],"name":"safeTransferFrom","outputs":[],"stateMutability":"nonpayable","type":"function"},{"inputs":[{"internalType":"address","name":"operator","type":"address"},{"internalType":"bool","name":"approved","type":"bool"}],"name":"setApprovalForAll","outputs":[],"stateMutability":"nonpayable","type":"function"},{"inputs":[{"internalType":"string","name":"baseURI","type":"string"}],"name":"setBaseMetadataURI","outputs":[],"stateMutability":"nonpayable","type":"function"},{"inputs":[{"internalType":"bytes4","name":"interfaceId","type":"bytes4"}],"name":"supportsInterface","outputs":[{"internalType":"bool","name":"","type":"bool"}],"stateMutability":"view","type":"function"},{"inputs":[{"internalType":"address","name":"newOwner","type":"address"}],"name":"transferOwnership","outputs":[],"stateMutability":"nonpayable","type":"function"},{"inputs":[],"name":"unpause","outputs":[],"stateMutability":"nonpayable","type":"function"},{"inputs":[{"internalType":"uint256","name":"id","type":"uint256"}],"name":"uri","outputs":[{"internalType":"string","name":"metadataURI","type":"string"}],"stateMutability":"view","type":"function"}],"devdoc":{"events":{"ApprovalForAll(address,address,bool)":{"params":{"approved":"True when then approval is set, false when it is unset.","operator":"The approved address.","owner":"The tokens owner."}},"BaseMetadataURISet(string)":{"params":{"baseMetadataURI":"The new base metadata URI."}},"OwnershipTransferred(address,address)":{"params":{"newOwner":"the new contract owner.","previousOwner":"the previous contract owner."}},"RoleGranted(bytes32,address,address)":{"params":{"account":"the account granted with the role.","operator":"the initiator of the grant.","role":"the granted role."}},"RoleRevoked(bytes32,address,address)":{"params":{"account":"the account losing the role.","operator":"the initiator of the revocation, or identical to `account` for a renouncement.","role":"the revoked or renounced role."}},"TransferBatch(address,address,address,uint256[],uint256[])":{"params":{"from":"The previous tokens owner.","ids":"The transferred tokens identifiers.","operator":"The initiator of the transfer.","to":"The new tokens owner.","values":"The amounts of tokens."}},"TransferSingle(address,address,address,uint256,uint256)":{"params":{"from":"The previous token owner.","id":"The transferred token identifier.","operator":"The initiator of the transfer.","to":"The new token owner.","value":"The amount of token."}},"URI(string,uint256)":{"params":{"id":"The token identifier.","value":"The token metadata URI."}}},"kind":"dev","methods":{"balanceOf(address,uint256)":{"params":{"id":"The identifier to retrieve the balance of.","owner":"The account to retrieve the balance of."},"returns":{"balance":"The balance of `id` owned by account `owner`."}},"balanceOfBatch(address[],uint256[])":{"details":"Reverts if `owners` and `ids` have different lengths.","params":{"ids":"The identifiers to retrieve the balance of.","owners":"The addresses of the token holders"},"returns":{"balances":"The balances of `ids` owned by accounts `owners`."}},"baseMetadataURI()":{"returns":{"baseURI":"The base metadata URI."}},"batchBurnFrom(address,uint256[],uint256[])":{"details":"Reverts if `ids` and `values` have different lengths.Reverts if the sender is not `from` and has not been approved by `from`.Reverts if `from` has an insufficient balance for any of `ids`.Emits an {IERC1155-TransferBatch} event.","params":{"from":"Address of the current tokens owner.","ids":"Identifiers of the tokens to burn.","values":"Amounts of tokens to burn."}},"burnFrom(address,uint256,uint256)":{"details":"Reverts if the sender is not `from` and has not been approved by `from`.Reverts if `from` has an insufficient balance of `id`.Emits an {IERC1155-TransferSingle} event.","params":{"from":"Address of the current token owner.","id":"Identifier of the token to burn.","value":"Amount of token to burn."}},"grantRole(bytes32,address)":{"details":"Reverts if the sender is not the contract owner.Emits a {RoleGranted} event if the account did not previously have the role.","params":{"account":"The account to grant the role to.","role":"The role to grant."}},"hasRole(bytes32,address)":{"params":{"account":"The account.","role":"The role."},"returns":{"_0":"whether `account` has `role`."}},"isApprovedForAll(address,address)":{"params":{"operator":"Address of the operator.","owner":"Address of the authorisation giver."},"returns":{"approvedForAll":"True if the operator is approved, false if not."}},"owner()":{"returns":{"_0":"The address of the contract owner."}},"pause()":{"details":"Reverts if the sender is not the contract owner.Reverts if the contract is paused.Emits a {Paused} event."},"paused()":{"returns":{"_0":"isPaused The paused state of the contract."}},"renounceRole(bytes32)":{"details":"Reverts if the sender does not have `role`.Emits a {RoleRevoked} event.","params":{"role":"The role to renounce."}},"revokeRole(bytes32,address)":{"details":"Reverts if the sender is not the contract owner.Emits a {RoleRevoked} event if the account previously had the role.","params":{"account":"The account to revoke the role from.","role":"The role to revoke."}},"safeBatchMint(address,uint256[],uint256[],bytes)":{"details":"Reverts if the sender does not have the 'minter' role.","params":{"data":"Optional data to send along to a receiver contract.","ids":"Identifiers of the tokens to mint.","to":"Address of the new tokens owner.","values":"Amounts of tokens to mint."}},"safeBatchTransferFrom(address,address,uint256[],uint256[],bytes)":{"details":"Reverts if `to` is the zero address.Reverts if `ids` and `values` have different lengths.Reverts if the sender is not `from` and has not been approved by `from`.Reverts if `from` has an insufficient balance for any of `ids`.Reverts if `to` is a contract and the call to {IERC1155TokenReceiver-onERC1155BatchReceived} fails, reverts or is rejected.Emits a {TransferBatch} event.","params":{"data":"Optional data to send along to a receiver contract.","from":"Current tokens owner.","ids":"Identifiers of the tokens to transfer.","to":"Address of the new tokens owner.","values":"Amounts of tokens to transfer."}},"safeMint(address,uint256,uint256,bytes)":{"details":"Reverts if the sender does not have the 'minter' role.","params":{"data":"Optional data to send along to a receiver contract.","id":"Identifier of the token to mint.","to":"Address of the new token owner.","value":"Amount of token to mint."}},"safeTransferFrom(address,address,uint256,uint256,bytes)":{"details":"Reverts if `to` is the zero address.Reverts if the sender is not `from` and has not been approved by `from`.Reverts if `from` has an insufficient balance of `id`.Reverts if `to` is a contract and the call to {IERC1155TokenReceiver-onERC1155Received} fails, reverts or is rejected.Emits a {TransferSingle} event.","params":{"data":"Optional data to send along to a receiver contract.","from":"Current token owner.","id":"Identifier of the token to transfer.","to":"Address of the new token owner.","value":"Amount of token to transfer."}},"setApprovalForAll(address,bool)":{"details":"Emits an {ApprovalForAll} event.","params":{"approved":"True to approve the operator, false to revoke its approval.","operator":"Address of the operator."}},"setBaseMetadataURI(string)":{"details":"Reverts if the sender is not the contract owner.Emits a {BaseMetadataURISet} event.","params":{"baseURI":"The base metadata URI."}},"supportsInterface(bytes4)":{"details":"Note: This function call must use less than 30 000 gas.","params":{"interfaceId":"the interface identifier to test."},"returns":{"_0":"True if the interface is supported, false if `interfaceId` is `0xffffffff` or if the interface is not supported."}},"transferOwnership(address)":{"details":"Reverts if the sender is not the contract owner.Emits an {OwnershipTransferred} event if `newOwner` is different from the current contract owner.","params":{"newOwner":"The address of the new contract owner. Using the zero address means renouncing ownership."}},"unpause()":{"details":"Reverts if the sender is not the contract owner.Reverts if the contract is not paused.Emits an {Unpaused} event."},"uri(uint256)":{"details":"URIs are defined in RFC 3986.The URI MUST point to a JSON file that conforms to the \"ERC1155 Metadata URI JSON Schema\".The uri function SHOULD be used to retrieve values if no event was emitted.The uri function MUST return the same value as the latest event for an _id if it was emitted.The uri function MUST NOT be used to check for the existence of a token as it is possible for  an implementation to return a valid string even if the token does not exist.","returns":{"metadataURI":"The URI associated to the token."}}},"version":1},"evm":{"bytecode":{"linkReferences":{},"object":"60806040523480156200001157600080fd5b506000336200002a620001ad60201b62000d6b1760201c565b6200005881620000446200020060201b62000daa1760201c565b6200024160201b62000de91790919060201c565b506200006e6200036a60201b62000efd1760201c565b62000083620003bd60201b62000f3c1760201c565b620000b1816200009d6200041060201b62000f7b1760201c565b6200045160201b62000fba1790919060201c565b50620000c7620004a660201b6200100e1760201c565b620001377f73757065725f61646d696e000000000000000000000000000000000000000000620000fc620004f960201b60201c565b6200010c620004f960201b60201c565b620001216200050160201b6200104d1760201c565b6200054260201b6200108c17909392919060201c565b620001a77f61646d696e0000000000000000000000000000000000000000000000000000006200016c620004f960201b60201c565b6200017c620004f960201b60201c565b620001916200050160201b6200104d1760201c565b6200054260201b6200108c17909392919060201c565b6200094c565b620001fe7fd9b67a26000000000000000000000000000000000000000000000000000000006001620001e96200061260201b620011521760201c565b6200065360201b62001191179092919060201c565b565b60008060017fc9ed16f33ab3a66c84bfd83099ccb2a8845871e2e1c1928f63797152f0fd54cd60001c620002359190620007f1565b60001b90508091505090565b600073ffffffffffffffffffffffffffffffffffffffff168173ffffffffffffffffffffffffffffffffffffffff16146200031557808260000160006101000a81548173ffffffffffffffffffffffffffffffffffffffff021916908373ffffffffffffffffffffffffffffffffffffffff1602179055508073ffffffffffffffffffffffffffffffffffffffff16600073ffffffffffffffffffffffffffffffffffffffff167f8be0079c531659141344cd1fd0a4f28419497f9722a3daafe3b4186f6b6457e060405160405180910390a35b620003667f7f5828d0000000000000000000000000000000000000000000000000000000006001620003516200061260201b620011521760201c565b6200065360201b62001191179092919060201c565b5050565b620003bb7f5190c92c000000000000000000000000000000000000000000000000000000006001620003a66200061260201b620011521760201c565b6200065360201b62001191179092919060201c565b565b6200040e7f921ed8d1000000000000000000000000000000000000000000000000000000006001620003f96200061260201b620011521760201c565b6200065360201b62001191179092919060201c565b565b60008060017f0186a05f63b1553398ad5ea3233c0ce68b8c9eecc47717f123c5c2b42fbd6d9f60001c620004459190620007f1565b60001b90508091505090565b8015620004a25760018260000160006101000a81548160ff0219169083151502179055507f9e87fac88ff661f02d44f95383c817fece4bce600a3dab7a54406878b965e75260405160405180910390a15b5050565b620004f77f0e89341c000000000000000000000000000000000000000000000000000000006001620004e26200061260201b620011521760201c565b6200065360201b62001191179092919060201c565b565b600033905090565b60008060017fc8827d3282af6f37b64c3e9e6f3ac9df286ab0bb0fccd6f8661bf19adb368b2360001c620005369190620007f1565b60001b90508091505090565b6200055e8383866200074d60201b62001288179092919060201c565b6200060c57600184600001600085815260200190815260200160002060008473ffffffffffffffffffffffffffffffffffffffff1673ffffffffffffffffffffffffffffffffffffffff16815260200190815260200160002060006101000a81548160ff0219169083151502179055507f2f8788117e7eff1d82e926ec794901d17c78024a50270940304540a733656f0d83838360405162000603939291906200088c565b60405180910390a15b50505050565b60008060017fca9d3e17f264b0f3984e2634e94adb37fa3e6a8103f06aeae6fa59e21c769f5e60001c620006479190620007f1565b60001b90508091505090565b63ffffffff60e01b7bffffffffffffffffffffffffffffffffffffffffffffffffffffffff1916827bffffffffffffffffffffffffffffffffffffffffffffffffffffffff191603620006dd576040517f08c379a0000000000000000000000000000000000000000000000000000000008152600401620006d4906200092a565b60405180910390fd5b80836000016000847bffffffffffffffffffffffffffffffffffffffffffffffffffffffff19167bffffffffffffffffffffffffffffffffffffffffffffffffffffffff1916815260200190815260200160002060006101000a81548160ff021916908315150217905550505050565b600083600001600084815260200190815260200160002060008373ffffffffffffffffffffffffffffffffffffffff1673ffffffffffffffffffffffffffffffffffffffff16815260200190815260200160002060009054906101000a900460ff1690509392505050565b6000819050919050565b7f4e487b7100000000000000000000000000000000000000000000000000000000600052601160045260246000fd5b6000620007fe82620007b8565b91506200080b83620007b8565b9250828203905081811115620008265762000825620007c2565b5b92915050565b6000819050919050565b62000841816200082c565b82525050565b600073ffffffffffffffffffffffffffffffffffffffff82169050919050565b6000620008748262000847565b9050919050565b620008868162000867565b82525050565b6000606082019050620008a3600083018662000836565b620008b260208301856200087b565b620008c160408301846200087b565b949350505050565b600082825260208201905092915050565b7f496e74657266616365446574656374696f6e3a2077726f6e672076616c756500600082015250565b600062000912601f83620008c9565b91506200091f82620008da565b602082019050919050565b60006020820190508181036000830152620009458162000903565b9050919050565b614edb806200095c6000396000f3fe608060405234801561001057600080fd5b50600436106101c35760003560e01c806375b238fc116100f9578063a22cb46511610097578063d547741f11610071578063d547741f146104b4578063e985e9c5146104d0578063f242432a14610500578063f2fde38b1461051c576101c3565b8063a22cb4651461045e578063c634b78e1461047a578063d539139314610496576101c3565b80638456cb59116100d35780638456cb59146103ea5780638bb9c5bf146103f45780638da5cb5b1461041057806391d148541461042e576101c3565b806375b238fc146103945780637e518ec8146103b257806380534934146103ce576101c3565b80633dd1eb61116101665780634e1273f4116101405780634e1273f41461030c5780635b2bd79e1461033c5780635c975abb1461035a5780635cfa929714610378576101c3565b80633dd1eb61146102c85780633f4ba83a146102e45780634460bdd6146102ee576101c3565b80630e89341c116101a25780630e89341c14610244578063124d91e5146102745780632eb2c2d6146102905780632f2ff15d146102ac576101c3565b8062fdd58e146101c857806301ffc9a7146101f85780630d6a5bbb14610228575b600080fd5b6101e260048036038101906101dd9190613509565b610538565b6040516101ef9190613558565b60405180910390f35b610212600480360381019061020d91906135cb565b61055e565b60405161021f9190613613565b60405180910390f35b610242600480360381019061023d91906136e9565b610581565b005b61025e600480360381019061025991906137b2565b6106bb565b60405161026b919061386f565b60405180910390f35b61028e60048036038101906102899190613891565b6106de565b005b6102aa60048036038101906102a591906138e4565b61070a565b005b6102c660048036038101906102c191906139f6565b610745565b005b6102e260048036038101906102dd9190613a36565b61078e565b005b6102ec61085e565b005b6102f6610891565b6040516103039190613a72565b60405180910390f35b61032660048036038101906103219190613ae3565b6108b5565b6040516103339190613c22565b60405180910390f35b6103446108e1565b604051610351919061386f565b60405180910390f35b6103626108f8565b60405161036f9190613613565b60405180910390f35b610392600480360381019061038d9190613c44565b61090f565b005b61039c6109d5565b6040516103a99190613a72565b60405180910390f35b6103cc60048036038101906103c79190613d22565b6109f9565b005b6103e860048036038101906103e39190613d6f565b610a3a565b005b6103f2610a6c565b005b61040e60048036038101906104099190613e04565b610a9f565b005b610418610ac5565b6040516104259190613e40565b60405180910390f35b610448600480360381019061044391906139f6565b610adc565b6040516104559190613613565b60405180910390f35b61047860048036038101906104739190613e87565b610b02565b005b610494600480360381019061048f9190613a36565b610b2b565b005b61049e610bfb565b6040516104ab9190613a72565b60405180910390f35b6104ce60048036038101906104c991906139f6565b610c1f565b005b6104ea60048036038101906104e59190613ec7565b610c68565b6040516104f79190613613565b60405180910390f35b61051a60048036038101906105159190613f07565b610c8e565b005b61053660048036038101906105319190613a36565b610cc3565b005b600061055683836105476112f3565b6113329092919063ffffffff16565b905092915050565b600061057a8261056c611152565b6113fe90919063ffffffff16565b9050919050565b600061058b61152d565b90506105c97f6d696e7465720000000000000000000000000000000000000000000000000000826105ba61104d565b6115359092919063ffffffff16565b6106b18189898980806020026020016040519081016040528093929190818152602001838360200280828437600081840152601f19601f82011690508083019250505050505050888880806020026020016040519081016040528093929190818152602001838360200280828437600081840152601f19601f8201169050808301925050505050505087878080601f016020809104026020016040519081016040528093929190818152602001838380828437600081840152601f19601f8201169050808301925050505050505061069f6112f3565b6115b79095949392919063ffffffff16565b5050505050505050565b60606106d7826106c9611781565b6117c090919063ffffffff16565b9050919050565b6107056106e961152d565b8484846106f46112f3565b6117f790949392919063ffffffff16565b505050565b61073b61071561152d565b89898989898989896107256112f3565b6118d3909998979695949392919063ffffffff16565b5050505050505050565b600061074f61152d565b905061076b8161075d610daa565b611bb690919063ffffffff16565b61078983838361077961104d565b61108c909392919063ffffffff16565b505050565b600061079861152d565b90506107dd7f61646d696e0000000000000000000000000000000000000000000000000000006107c661152d565b6107ce61104d565b6112889092919063ffffffff16565b61081c576040517f08c379a000000000000000000000000000000000000000000000000000000000815260040161081390613fed565b60405180910390fd5b61085a7f6d696e7465720000000000000000000000000000000000000000000000000000838361084a61104d565b61108c909392919063ffffffff16565b5050565b61087f61086961152d565b610871610daa565b611bb690919063ffffffff16565b61088f61088a610f7b565b611c4c565b565b7f73757065725f61646d696e00000000000000000000000000000000000000000081565b60606108d7858585856108c66112f3565b611ca190949392919063ffffffff16565b9050949350505050565b60606108f36108ee611781565b611dd2565b905090565b600061090a610905610f7b565b611e68565b905090565b61091f61091a610f7b565b611e83565b600061092961152d565b90506109677f6d696e74657200000000000000000000000000000000000000000000000000008261095861104d565b6115359092919063ffffffff16565b6109cd8187878787878080601f016020809104026020016040519081016040528093929190818152602001838380828437600081840152601f19601f820116905080830192505050505050506109bb6112f3565b611ed89095949392919063ffffffff16565b505050505050565b7f61646d696e00000000000000000000000000000000000000000000000000000081565b610a1a610a0461152d565b610a0c610daa565b611bb690919063ffffffff16565b610a368282610a27611781565b61200e9092919063ffffffff16565b5050565b610a65610a4561152d565b8686868686610a526112f3565b612060909695949392919063ffffffff16565b5050505050565b610a8d610a7761152d565b610a7f610daa565b611bb690919063ffffffff16565b610a9d610a98610f7b565b6121d8565b565b610ac2610aaa61152d565b82610ab361104d565b61222d9092919063ffffffff16565b50565b6000610ad7610ad2610daa565b6122ed565b905090565b6000610afa8383610aeb61104d565b6112889092919063ffffffff16565b905092915050565b610b27610b0d61152d565b8383610b176112f3565b61231b909392919063ffffffff16565b5050565b6000610b3561152d565b9050610b7a7f73757065725f61646d696e000000000000000000000000000000000000000000610b6361152d565b610b6b61104d565b6112889092919063ffffffff16565b610bb9576040517f08c379a0000000000000000000000000000000000000000000000000000000008152600401610bb090614059565b60405180910390fd5b610bf77f61646d696e0000000000000000000000000000000000000000000000000000008383610be761104d565b61108c909392919063ffffffff16565b5050565b7f6d696e746572000000000000000000000000000000000000000000000000000081565b6000610c2961152d565b9050610c4581610c37610daa565b611bb690919063ffffffff16565b610c63838383610c5361104d565b61248a909392919063ffffffff16565b505050565b6000610c868383610c776112f3565b6125519092919063ffffffff16565b905092915050565b610cbb610c9961152d565b878787878787610ca76112f3565b6125e890979695949392919063ffffffff16565b505050505050565b610d067f73757065725f61646d696e000000000000000000000000000000000000000000610cef61152d565b610cf761104d565b6112889092919063ffffffff16565b610d45576040517f08c379a0000000000000000000000000000000000000000000000000000000008152600401610d3c90614059565b60405180910390fd5b610d68610d5061152d565b82610d59610daa565b6127ad9092919063ffffffff16565b50565b610da87fd9b67a26000000000000000000000000000000000000000000000000000000006001610d99611152565b6111919092919063ffffffff16565b565b60008060017fc9ed16f33ab3a66c84bfd83099ccb2a8845871e2e1c1928f63797152f0fd54cd60001c610ddd91906140a8565b60001b90508091505090565b600073ffffffffffffffffffffffffffffffffffffffff168173ffffffffffffffffffffffffffffffffffffffff1614610ebc57808260000160006101000a81548173ffffffffffffffffffffffffffffffffffffffff021916908373ffffffffffffffffffffffffffffffffffffffff1602179055508073ffffffffffffffffffffffffffffffffffffffff16600073ffffffffffffffffffffffffffffffffffffffff167f8be0079c531659141344cd1fd0a4f28419497f9722a3daafe3b4186f6b6457e060405160405180910390a35b610ef97f7f5828d0000000000000000000000000000000000000000000000000000000006001610eea611152565b6111919092919063ffffffff16565b5050565b610f3a7f5190c92c000000000000000000000000000000000000000000000000000000006001610f2b611152565b6111919092919063ffffffff16565b565b610f797f921ed8d1000000000000000000000000000000000000000000000000000000006001610f6a611152565b6111919092919063ffffffff16565b565b60008060017f0186a05f63b1553398ad5ea3233c0ce68b8c9eecc47717f123c5c2b42fbd6d9f60001c610fae91906140a8565b60001b90508091505090565b801561100a5760018260000160006101000a81548160ff0219169083151502179055507f9e87fac88ff661f02d44f95383c817fece4bce600a3dab7a54406878b965e75260405160405180910390a15b5050565b61104b7f0e89341c00000000000000000000000000000000000000000000000000000000600161103c611152565b6111919092919063ffffffff16565b565b60008060017fc8827d3282af6f37b64c3e9e6f3ac9df286ab0bb0fccd6f8661bf19adb368b2360001c61108091906140a8565b60001b90508091505090565b6110a18383866112889092919063ffffffff16565b61114c57600184600001600085815260200190815260200160002060008473ffffffffffffffffffffffffffffffffffffffff1673ffffffffffffffffffffffffffffffffffffffff16815260200190815260200160002060006101000a81548160ff0219169083151502179055507f2f8788117e7eff1d82e926ec794901d17c78024a50270940304540a733656f0d838383604051611143939291906140dc565b60405180910390a15b50505050565b60008060017fca9d3e17f264b0f3984e2634e94adb37fa3e6a8103f06aeae6fa59e21c769f5e60001c61118591906140a8565b60001b90508091505090565b63ffffffff60e01b7bffffffffffffffffffffffffffffffffffffffffffffffffffffffff1916827bffffffffffffffffffffffffffffffffffffffffffffffffffffffff191603611218576040517f08c379a000000000000000000000000000000000000000000000000000000000815260040161120f9061415f565b60405180910390fd5b80836000016000847bffffffffffffffffffffffffffffffffffffffffffffffffffffffff19167bffffffffffffffffffffffffffffffffffffffffffffffffffffffff1916815260200190815260200160002060006101000a81548160ff021916908315150217905550505050565b600083600001600084815260200190815260200160002060008373ffffffffffffffffffffffffffffffffffffffff1673ffffffffffffffffffffffffffffffffffffffff16815260200190815260200160002060009054906101000a900460ff1690509392505050565b60008060017f5ccf5846fa27a68fafc8e588671a68f5e67c2f9b56af4263806a4d71735e861360001c61132691906140a8565b60001b90508091505090565b60008073ffffffffffffffffffffffffffffffffffffffff168373ffffffffffffffffffffffffffffffffffffffff16036113a2576040517f08c379a0000000000000000000000000000000000000000000000000000000008152600401611399906141cb565b60405180910390fd5b83600001600083815260200190815260200160002060008473ffffffffffffffffffffffffffffffffffffffff1673ffffffffffffffffffffffffffffffffffffffff1681526020019081526020016000205490509392505050565b600063ffffffff60e01b7bffffffffffffffffffffffffffffffffffffffffffffffffffffffff1916827bffffffffffffffffffffffffffffffffffffffffffffffffffffffff1916036114555760009050611527565b7f01ffc9a7000000000000000000000000000000000000000000000000000000007bffffffffffffffffffffffffffffffffffffffffffffffffffffffff1916827bffffffffffffffffffffffffffffffffffffffffffffffffffffffff1916036114c35760019050611527565b826000016000837bffffffffffffffffffffffffffffffffffffffffffffffffffffffff19167bffffffffffffffffffffffffffffffffffffffffffffffffffffffff1916815260200190815260200160002060009054906101000a900460ff1690505b92915050565b600033905090565b61154a8282856112889092919063ffffffff16565b6115b2576115578261291b565b60405160200161156791906142bf565b6040516020818303038152906040526040517f08c379a00000000000000000000000000000000000000000000000000000000081526004016115a9919061386f565b60405180910390fd5b505050565b600073ffffffffffffffffffffffffffffffffffffffff168473ffffffffffffffffffffffffffffffffffffffff1603611626576040517f08c379a000000000000000000000000000000000000000000000000000000000815260040161161d90614338565b60405180910390fd5b6000835190508251811461166f576040517f08c379a0000000000000000000000000000000000000000000000000000000008152600401611666906143a4565b60405180910390fd5b60005b8181146116c4576116b98887878481518110611691576116906143c4565b5b60200260200101518785815181106116ac576116ab6143c4565b5b6020026020010151612a9c565b806001019050611672565b508473ffffffffffffffffffffffffffffffffffffffff16600073ffffffffffffffffffffffffffffffffffffffff168773ffffffffffffffffffffffffffffffffffffffff167f4a39dc06d4c0dbc64b70af90fd698a233a518aa5d07e595d983b8c0526c8f7fb878760405161173c9291906143f3565b60405180910390a46117638573ffffffffffffffffffffffffffffffffffffffff16612ba4565b156117785761177786600087878787612bc7565b5b50505050505050565b60008060017fe94434e3c6b941c5d90218142fadcc69cb2e13723993540bfa1c131dd1d3475a60001c6117b491906140a8565b60001b90508091505090565b6060826000016117cf83612cd9565b6040516020016117e0929190614522565b604051602081830303815290604052905092915050565b611802858486612da7565b611841576040517f08c379a000000000000000000000000000000000000000000000000000000000815260040161183890614592565b60405180910390fd5b61184d85848484612e74565b600073ffffffffffffffffffffffffffffffffffffffff168373ffffffffffffffffffffffffffffffffffffffff168573ffffffffffffffffffffffffffffffffffffffff167fc3d58168c5ae7397731d063d5bbf3d657854427343f4c083240f7aacaa2d0f6285856040516118c49291906145b2565b60405180910390a45050505050565b600073ffffffffffffffffffffffffffffffffffffffff168773ffffffffffffffffffffffffffffffffffffffff1603611942576040517f08c379a000000000000000000000000000000000000000000000000000000000815260040161193990614627565b60405180910390fd5b600086869050905084849050811461198f576040517f08c379a0000000000000000000000000000000000000000000000000000000008152600401611986906143a4565b60405180910390fd5b61199a8b8a8c612da7565b6119d9576040517f08c379a00000000000000000000000000000000000000000000000000000000081526004016119d090614592565b60405180910390fd5b60005b818114611a2d57611a228c8b8b8b8b868181106119fc576119fb6143c4565b5b905060200201358a8a87818110611a1657611a156143c4565b5b90506020020135612f7c565b8060010190506119dc565b508773ffffffffffffffffffffffffffffffffffffffff168973ffffffffffffffffffffffffffffffffffffffff168b73ffffffffffffffffffffffffffffffffffffffff167f4a39dc06d4c0dbc64b70af90fd698a233a518aa5d07e595d983b8c0526c8f7fb8a8a8a8a604051611aa894939291906146b1565b60405180910390a4611acf8873ffffffffffffffffffffffffffffffffffffffff16612ba4565b15611ba957611ba88a8a8a8a8a80806020026020016040519081016040528093929190818152602001838360200280828437600081840152601f19601f82011690508083019250505050505050898980806020026020016040519081016040528093929190818152602001838360200280828437600081840152601f19601f8201169050808301925050505050505088888080601f016020809104026020016040519081016040528093929190818152602001838380828437600081840152601f19601f82011690508083019250505050505050612bc7565b5b5050505050505050505050565b8160000160009054906101000a900473ffffffffffffffffffffffffffffffffffffffff1673ffffffffffffffffffffffffffffffffffffffff168173ffffffffffffffffffffffffffffffffffffffff1614611c48576040517f08c379a0000000000000000000000000000000000000000000000000000000008152600401611c3f90614738565b60405180910390fd5b5050565b611c55816131b2565b60008160000160006101000a81548160ff0219169083151502179055507fa45f47fdea8a1efdd9029a5691c7f759c32b7c698632b563573e155625d1693360405160405180910390a150565b60606000858590509050838390508114611cf0576040517f08c379a0000000000000000000000000000000000000000000000000000000008152600401611ce7906143a4565b60405180910390fd5b8585905067ffffffffffffffff811115611d0d57611d0c614758565b5b604051908082528060200260200182016040528015611d3b5781602001602082028036833780820191505090505b50915060005b818114611dc757611d9d878783818110611d5e57611d5d6143c4565b5b9050602002016020810190611d739190613a36565b868684818110611d8657611d856143c4565b5b905060200201358a6113329092919063ffffffff16565b838281518110611db057611daf6143c4565b5b602002602001018181525050806001019050611d41565b505095945050505050565b6060816000018054611de390614459565b80601f0160208091040260200160405190810160405280929190818152602001828054611e0f90614459565b8015611e5c5780601f10611e3157610100808354040283529160200191611e5c565b820191906000526020600020905b815481529060010190602001808311611e3f57829003601f168201915b50505050509050919050565b60008160000160009054906101000a900460ff169050919050565b8060000160009054906101000a900460ff1615611ed5576040517f08c379a0000000000000000000000000000000000000000000000000000000008152600401611ecc906147d3565b60405180910390fd5b50565b600073ffffffffffffffffffffffffffffffffffffffff168473ffffffffffffffffffffffffffffffffffffffff1603611f47576040517f08c379a0000000000000000000000000000000000000000000000000000000008152600401611f3e90614338565b60405180910390fd5b611f5386858585612a9c565b8373ffffffffffffffffffffffffffffffffffffffff16600073ffffffffffffffffffffffffffffffffffffffff168673ffffffffffffffffffffffffffffffffffffffff167fc3d58168c5ae7397731d063d5bbf3d657854427343f4c083240f7aacaa2d0f628686604051611fca9291906145b2565b60405180910390a4611ff18473ffffffffffffffffffffffffffffffffffffffff16612ba4565b156120065761200585600086868686613206565b5b505050505050565b8181846000019182612021929190614995565b507f04b1dc5c136a3ce9fded8db0ce3d3366c58764ec3a8e4c2b9e52e4ddfe5ebbf78282604051612053929190614aa1565b60405180910390a1505050565b60008484905090508282905081146120ad576040517f08c379a00000000000000000000000000000000000000000000000000000000081526004016120a4906143a4565b60405180910390fd5b6120b8888789612da7565b6120f7576040517f08c379a00000000000000000000000000000000000000000000000000000000081526004016120ee90614592565b60405180910390fd5b60005b81811461214a5761213f8988888885818110612119576121186143c4565b5b90506020020135878786818110612133576121326143c4565b5b90506020020135612e74565b8060010190506120fa565b50600073ffffffffffffffffffffffffffffffffffffffff168673ffffffffffffffffffffffffffffffffffffffff168873ffffffffffffffffffffffffffffffffffffffff167f4a39dc06d4c0dbc64b70af90fd698a233a518aa5d07e595d983b8c0526c8f7fb888888886040516121c694939291906146b1565b60405180910390a45050505050505050565b6121e181611e83565b60018160000160006101000a81548160ff0219169083151502179055507f9e87fac88ff661f02d44f95383c817fece4bce600a3dab7a54406878b965e75260405160405180910390a150565b6122428183856115359092919063ffffffff16565b600083600001600083815260200190815260200160002060008473ffffffffffffffffffffffffffffffffffffffff1673ffffffffffffffffffffffffffffffffffffffff16815260200190815260200160002060006101000a81548160ff0219169083151502179055507ff6391f5c32d9c69d2a47ea670b442974b53935d1edc7fd64eb21e047a839171b8183846040516122e0939291906140dc565b60405180910390a1505050565b60008160000160009054906101000a900473ffffffffffffffffffffffffffffffffffffffff169050919050565b8273ffffffffffffffffffffffffffffffffffffffff168273ffffffffffffffffffffffffffffffffffffffff1603612389576040517f08c379a000000000000000000000000000000000000000000000000000000000815260040161238090614b11565b60405180910390fd5b808460010160008573ffffffffffffffffffffffffffffffffffffffff1673ffffffffffffffffffffffffffffffffffffffff16815260200190815260200160002060008473ffffffffffffffffffffffffffffffffffffffff1673ffffffffffffffffffffffffffffffffffffffff16815260200190815260200160002060006101000a81548160ff0219169083151502179055508173ffffffffffffffffffffffffffffffffffffffff168373ffffffffffffffffffffffffffffffffffffffff167f17307eab39ab6107e8899845ad3d59bd9653f200f220920489ca2b5937696c318360405161247c9190613613565b60405180910390a350505050565b61249f8383866112889092919063ffffffff16565b1561254b57600084600001600085815260200190815260200160002060008473ffffffffffffffffffffffffffffffffffffffff1673ffffffffffffffffffffffffffffffffffffffff16815260200190815260200160002060006101000a81548160ff0219169083151502179055507ff6391f5c32d9c69d2a47ea670b442974b53935d1edc7fd64eb21e047a839171b838383604051612542939291906140dc565b60405180910390a15b50505050565b60008360010160008473ffffffffffffffffffffffffffffffffffffffff1673ffffffffffffffffffffffffffffffffffffffff16815260200190815260200160002060008373ffffffffffffffffffffffffffffffffffffffff1673ffffffffffffffffffffffffffffffffffffffff16815260200190815260200160002060009054906101000a900460ff1690509392505050565b600073ffffffffffffffffffffffffffffffffffffffff168573ffffffffffffffffffffffffffffffffffffffff1603612657576040517f08c379a000000000000000000000000000000000000000000000000000000000815260040161264e90614627565b60405180910390fd5b612662888789612da7565b6126a1576040517f08c379a000000000000000000000000000000000000000000000000000000000815260040161269890614592565b60405180910390fd5b6126ae8887878787612f7c565b8473ffffffffffffffffffffffffffffffffffffffff168673ffffffffffffffffffffffffffffffffffffffff168873ffffffffffffffffffffffffffffffffffffffff167fc3d58168c5ae7397731d063d5bbf3d657854427343f4c083240f7aacaa2d0f6287876040516127249291906145b2565b60405180910390a461274b8573ffffffffffffffffffffffffffffffffffffffff16612ba4565b156127a3576127a2878787878787878080601f016020809104026020016040519081016040528093929190818152602001838380828437600081840152601f19601f82011690508083019250505050505050613206565b5b5050505050505050565b60008360000160009054906101000a900473ffffffffffffffffffffffffffffffffffffffff1690508073ffffffffffffffffffffffffffffffffffffffff168373ffffffffffffffffffffffffffffffffffffffff1614612844576040517f08c379a000000000000000000000000000000000000000000000000000000000815260040161283b90614738565b60405180910390fd5b8173ffffffffffffffffffffffffffffffffffffffff168173ffffffffffffffffffffffffffffffffffffffff161461291557818460000160006101000a81548173ffffffffffffffffffffffffffffffffffffffff021916908373ffffffffffffffffffffffffffffffffffffffff1602179055508173ffffffffffffffffffffffffffffffffffffffff168173ffffffffffffffffffffffffffffffffffffffff167f8be0079c531659141344cd1fd0a4f28419497f9722a3daafe3b4186f6b6457e060405160405180910390a35b50505050565b60606000801b820361293e57604051806020016040528060008152509050612a97565b6000826040516020016129519190614b52565b60405160208183030381529060405290506000601f90505b6001156129c657600060f81b828281518110612988576129876143c4565b5b602001015160f81c60f81b7effffffffffffffffffffffffffffffffffffffffffffffffffffffffffffff1916036129c65780600190039050612969565b60006001820167ffffffffffffffff8111156129e5576129e4614758565b5b6040519080825280601f01601f191660200182016040528015612a175781602001600182028036833780820191505090505b50905060005b828111612a8f57838181518110612a3757612a366143c4565b5b602001015160f81c60f81b828281518110612a5557612a546143c4565b5b60200101907effffffffffffffffffffffffffffffffffffffffffffffffffffffffffffff1916908160001a905350806001019050612a1d565b508093505050505b919050565b60008114612b9e57600084600001600084815260200190815260200160002060008573ffffffffffffffffffffffffffffffffffffffff1673ffffffffffffffffffffffffffffffffffffffff16815260200190815260200160002054905060008282019050818111612b44576040517f08c379a0000000000000000000000000000000000000000000000000000000008152600401612b3b90614bb9565b60405180910390fd5b8086600001600086815260200190815260200160002060008773ffffffffffffffffffffffffffffffffffffffff1673ffffffffffffffffffffffffffffffffffffffff1681526020019081526020016000208190555050505b50505050565b6000808273ffffffffffffffffffffffffffffffffffffffff163b119050919050565b63bc197c8160e01b7bffffffffffffffffffffffffffffffffffffffffffffffffffffffff19168473ffffffffffffffffffffffffffffffffffffffff1663bc197c8188888787876040518663ffffffff1660e01b8152600401612c2f959493929190614c2e565b6020604051808303816000875af1158015612c4e573d6000803e3d6000fd5b505050506040513d601f19601f82011682018060405250810190612c729190614cab565b7bffffffffffffffffffffffffffffffffffffffffffffffffffffffff191614612cd1576040517f08c379a0000000000000000000000000000000000000000000000000000000008152600401612cc890614d24565b60405180910390fd5b505050505050565b606060006001612ce884613318565b01905060008167ffffffffffffffff811115612d0757612d06614758565b5b6040519080825280601f01601f191660200182016040528015612d395781602001600182028036833780820191505090505b509050600082602001820190505b600115612d9c578080600190039150507f3031323334353637383961626364656600000000000000000000000000000000600a86061a8153600a8581612d9057612d8f614d44565b5b04945060008503612d47575b819350505050919050565b60008173ffffffffffffffffffffffffffffffffffffffff168373ffffffffffffffffffffffffffffffffffffffff161480612e6b57508360010160008473ffffffffffffffffffffffffffffffffffffffff1673ffffffffffffffffffffffffffffffffffffffff16815260200190815260200160002060008373ffffffffffffffffffffffffffffffffffffffff1673ffffffffffffffffffffffffffffffffffffffff16815260200190815260200160002060009054906101000a900460ff165b90509392505050565b60008114612f7657600084600001600084815260200190815260200160002060008573ffffffffffffffffffffffffffffffffffffffff1673ffffffffffffffffffffffffffffffffffffffff16815260200190815260200160002054905060008282039050818110612f1c576040517f08c379a0000000000000000000000000000000000000000000000000000000008152600401612f1390614dbf565b60405180910390fd5b8086600001600086815260200190815260200160002060008773ffffffffffffffffffffffffffffffffffffffff1673ffffffffffffffffffffffffffffffffffffffff1681526020019081526020016000208190555050505b50505050565b600081146131ab57600085600001600084815260200190815260200160002060008673ffffffffffffffffffffffffffffffffffffffff1673ffffffffffffffffffffffffffffffffffffffff16815260200190815260200160002054905060008282039050818110613024576040517f08c379a000000000000000000000000000000000000000000000000000000000815260040161301b90614dbf565b60405180910390fd5b8473ffffffffffffffffffffffffffffffffffffffff168673ffffffffffffffffffffffffffffffffffffffff16146131a857600087600001600086815260200190815260200160002060008773ffffffffffffffffffffffffffffffffffffffff1673ffffffffffffffffffffffffffffffffffffffff168152602001908152602001600020549050600084820190508181116130f7576040517f08c379a00000000000000000000000000000000000000000000000000000000081526004016130ee90614bb9565b60405180910390fd5b8289600001600088815260200190815260200160002060008a73ffffffffffffffffffffffffffffffffffffffff1673ffffffffffffffffffffffffffffffffffffffff168152602001908152602001600020819055508089600001600088815260200190815260200160002060008973ffffffffffffffffffffffffffffffffffffffff1673ffffffffffffffffffffffffffffffffffffffff1681526020019081526020016000208190555050505b50505b5050505050565b8060000160009054906101000a900460ff16613203576040517f08c379a00000000000000000000000000000000000000000000000000000000081526004016131fa90614e2b565b60405180910390fd5b50565b63f23a6e6160e01b7bffffffffffffffffffffffffffffffffffffffffffffffffffffffff19168473ffffffffffffffffffffffffffffffffffffffff1663f23a6e6188888787876040518663ffffffff1660e01b815260040161326e959493929190614e4b565b6020604051808303816000875af115801561328d573d6000803e3d6000fd5b505050506040513d601f19601f820116820180604052508101906132b19190614cab565b7bffffffffffffffffffffffffffffffffffffffffffffffffffffffff191614613310576040517f08c379a000000000000000000000000000000000000000000000000000000000815260040161330790614d24565b60405180910390fd5b505050505050565b600080600090507a184f03e93ff9f4daa797ed6e38ed64bf6a1f0100000000000000008310613376577a184f03e93ff9f4daa797ed6e38ed64bf6a1f010000000000000000838161336c5761336b614d44565b5b0492506040810190505b6d04ee2d6d415b85acef810000000083106133b3576d04ee2d6d415b85acef810000000083816133a9576133a8614d44565b5b0492506020810190505b662386f26fc1000083106133e257662386f26fc1000083816133d8576133d7614d44565b5b0492506010810190505b6305f5e100831061340b576305f5e100838161340157613400614d44565b5b0492506008810190505b612710831061343057612710838161342657613425614d44565b5b0492506004810190505b60648310613453576064838161344957613448614d44565b5b0492506002810190505b600a8310613462576001810190505b80915050919050565b600080fd5b600080fd5b600073ffffffffffffffffffffffffffffffffffffffff82169050919050565b60006134a082613475565b9050919050565b6134b081613495565b81146134bb57600080fd5b50565b6000813590506134cd816134a7565b92915050565b6000819050919050565b6134e6816134d3565b81146134f157600080fd5b50565b600081359050613503816134dd565b92915050565b600080604083850312156135205761351f61346b565b5b600061352e858286016134be565b925050602061353f858286016134f4565b9150509250929050565b613552816134d3565b82525050565b600060208201905061356d6000830184613549565b92915050565b60007fffffffff0000000000000000000000000000000000000000000000000000000082169050919050565b6135a881613573565b81146135b357600080fd5b50565b6000813590506135c58161359f565b92915050565b6000602082840312156135e1576135e061346b565b5b60006135ef848285016135b6565b91505092915050565b60008115159050919050565b61360d816135f8565b82525050565b60006020820190506136286000830184613604565b92915050565b600080fd5b600080fd5b600080fd5b60008083601f8401126136535761365261362e565b5b8235905067ffffffffffffffff8111156136705761366f613633565b5b60208301915083602082028301111561368c5761368b613638565b5b9250929050565b60008083601f8401126136a9576136a861362e565b5b8235905067ffffffffffffffff8111156136c6576136c5613633565b5b6020830191508360018202830111156136e2576136e1613638565b5b9250929050565b60008060008060008060006080888a0312156137085761370761346b565b5b60006137168a828b016134be565b975050602088013567ffffffffffffffff81111561373757613736613470565b5b6137438a828b0161363d565b9650965050604088013567ffffffffffffffff81111561376657613765613470565b5b6137728a828b0161363d565b9450945050606088013567ffffffffffffffff81111561379557613794613470565b5b6137a18a828b01613693565b925092505092959891949750929550565b6000602082840312156137c8576137c761346b565b5b60006137d6848285016134f4565b91505092915050565b600081519050919050565b600082825260208201905092915050565b60005b838110156138195780820151818401526020810190506137fe565b60008484015250505050565b6000601f19601f8301169050919050565b6000613841826137df565b61384b81856137ea565b935061385b8185602086016137fb565b61386481613825565b840191505092915050565b600060208201905081810360008301526138898184613836565b905092915050565b6000806000606084860312156138aa576138a961346b565b5b60006138b8868287016134be565b93505060206138c9868287016134f4565b92505060406138da868287016134f4565b9150509250925092565b60008060008060008060008060a0898b0312156139045761390361346b565b5b60006139128b828c016134be565b98505060206139238b828c016134be565b975050604089013567ffffffffffffffff81111561394457613943613470565b5b6139508b828c0161363d565b9650965050606089013567ffffffffffffffff81111561397357613972613470565b5b61397f8b828c0161363d565b9450945050608089013567ffffffffffffffff8111156139a2576139a1613470565b5b6139ae8b828c01613693565b92509250509295985092959890939650565b6000819050919050565b6139d3816139c0565b81146139de57600080fd5b50565b6000813590506139f0816139ca565b92915050565b60008060408385031215613a0d57613a0c61346b565b5b6000613a1b858286016139e1565b9250506020613a2c858286016134be565b9150509250929050565b600060208284031215613a4c57613a4b61346b565b5b6000613a5a848285016134be565b91505092915050565b613a6c816139c0565b82525050565b6000602082019050613a876000830184613a63565b92915050565b60008083601f840112613aa357613aa261362e565b5b8235905067ffffffffffffffff811115613ac057613abf613633565b5b602083019150836020820283011115613adc57613adb613638565b5b9250929050565b60008060008060408587031215613afd57613afc61346b565b5b600085013567ffffffffffffffff811115613b1b57613b1a613470565b5b613b2787828801613a8d565b9450945050602085013567ffffffffffffffff811115613b4a57613b49613470565b5b613b568782880161363d565b925092505092959194509250565b600081519050919050565b600082825260208201905092915050565b6000819050602082019050919050565b613b99816134d3565b82525050565b6000613bab8383613b90565b60208301905092915050565b6000602082019050919050565b6000613bcf82613b64565b613bd98185613b6f565b9350613be483613b80565b8060005b83811015613c15578151613bfc8882613b9f565b9750613c0783613bb7565b925050600181019050613be8565b5085935050505092915050565b60006020820190508181036000830152613c3c8184613bc4565b905092915050565b600080600080600060808688031215613c6057613c5f61346b565b5b6000613c6e888289016134be565b9550506020613c7f888289016134f4565b9450506040613c90888289016134f4565b935050606086013567ffffffffffffffff811115613cb157613cb0613470565b5b613cbd88828901613693565b92509250509295509295909350565b60008083601f840112613ce257613ce161362e565b5b8235905067ffffffffffffffff811115613cff57613cfe613633565b5b602083019150836001820283011115613d1b57613d1a613638565b5b9250929050565b60008060208385031215613d3957613d3861346b565b5b600083013567ffffffffffffffff811115613d5757613d56613470565b5b613d6385828601613ccc565b92509250509250929050565b600080600080600060608688031215613d8b57613d8a61346b565b5b6000613d99888289016134be565b955050602086013567ffffffffffffffff811115613dba57613db9613470565b5b613dc68882890161363d565b9450945050604086013567ffffffffffffffff811115613de957613de8613470565b5b613df58882890161363d565b92509250509295509295909350565b600060208284031215613e1a57613e1961346b565b5b6000613e28848285016139e1565b91505092915050565b613e3a81613495565b82525050565b6000602082019050613e556000830184613e31565b92915050565b613e64816135f8565b8114613e6f57600080fd5b50565b600081359050613e8181613e5b565b92915050565b60008060408385031215613e9e57613e9d61346b565b5b6000613eac858286016134be565b9250506020613ebd85828601613e72565b9150509250929050565b60008060408385031215613ede57613edd61346b565b5b6000613eec858286016134be565b9250506020613efd858286016134be565b9150509250929050565b60008060008060008060a08789031215613f2457613f2361346b565b5b6000613f3289828a016134be565b9650506020613f4389828a016134be565b9550506040613f5489828a016134f4565b9450506060613f6589828a016134f4565b935050608087013567ffffffffffffffff811115613f8657613f85613470565b5b613f9289828a01613693565b92509250509295509295509295565b7f4f524e463a206e6f742061646d696e0000000000000000000000000000000000600082015250565b6000613fd7600f836137ea565b9150613fe282613fa1565b602082019050919050565b6000602082019050818103600083015261400681613fca565b9050919050565b7f4f524e463a206e6f742073757065722061646d696e0000000000000000000000600082015250565b60006140436015836137ea565b915061404e8261400d565b602082019050919050565b6000602082019050818103600083015261407281614036565b9050919050565b7f4e487b7100000000000000000000000000000000000000000000000000000000600052601160045260246000fd5b60006140b3826134d3565b91506140be836134d3565b92508282039050818111156140d6576140d5614079565b5b92915050565b60006060820190506140f16000830186613a63565b6140fe6020830185613e31565b61410b6040830184613e31565b949350505050565b7f496e74657266616365446574656374696f6e3a2077726f6e672076616c756500600082015250565b6000614149601f836137ea565b915061415482614113565b602082019050919050565b600060208201905081810360008301526141788161413c565b9050919050565b7f455243313135353a2062616c616e6365206f6620616464726573732830290000600082015250565b60006141b5601e836137ea565b91506141c08261417f565b602082019050919050565b600060208201905081810360008301526141e4816141a8565b9050919050565b600081905092915050565b7f416363657373436f6e74726f6c3a206d697373696e6720270000000000000000600082015250565b600061422c6018836141eb565b9150614237826141f6565b601882019050919050565b600061424d826137df565b61425781856141eb565b93506142678185602086016137fb565b80840191505092915050565b7f2720726f6c650000000000000000000000000000000000000000000000000000600082015250565b60006142a96006836141eb565b91506142b482614273565b600682019050919050565b60006142ca8261421f565b91506142d68284614242565b91506142e18261429c565b915081905092915050565b7f455243313135353a206d696e7420746f20616464726573732830290000000000600082015250565b6000614322601b836137ea565b915061432d826142ec565b602082019050919050565b6000602082019050818103600083015261435181614315565b9050919050565b7f455243313135353a20696e636f6e73697374656e742061727261797300000000600082015250565b600061438e601c836137ea565b915061439982614358565b602082019050919050565b600060208201905081810360008301526143bd81614381565b9050919050565b7f4e487b7100000000000000000000000000000000000000000000000000000000600052603260045260246000fd5b6000604082019050818103600083015261440d8185613bc4565b905081810360208301526144218184613bc4565b90509392505050565b7f4e487b7100000000000000000000000000000000000000000000000000000000600052602260045260246000fd5b6000600282049050600182168061447157607f821691505b6020821081036144845761448361442a565b5b50919050565b60008190508160005260206000209050919050565b600081546144ac81614459565b6144b681866141eb565b945060018216600081146144d157600181146144e657614519565b60ff1983168652811515820286019350614519565b6144ef8561448a565b60005b83811015614511578154818901526001820191506020810190506144f2565b838801955050505b50505092915050565b600061452e828561449f565b915061453a8284614242565b91508190509392505050565b7f455243313135353a206e6f6e2d617070726f7665642073656e64657200000000600082015250565b600061457c601c836137ea565b915061458782614546565b602082019050919050565b600060208201905081810360008301526145ab8161456f565b9050919050565b60006040820190506145c76000830185613549565b6145d46020830184613549565b9392505050565b7f455243313135353a207472616e7366657220746f206164647265737328302900600082015250565b6000614611601f836137ea565b915061461c826145db565b602082019050919050565b6000602082019050818103600083015261464081614604565b9050919050565b600080fd5b82818337505050565b60006146618385613b6f565b93507f07ffffffffffffffffffffffffffffffffffffffffffffffffffffffffffffff83111561469457614693614647565b5b6020830292506146a583858461464c565b82840190509392505050565b600060408201905081810360008301526146cc818688614655565b905081810360208301526146e1818486614655565b905095945050505050565b7f4f776e6572736869703a206e6f7420746865206f776e65720000000000000000600082015250565b60006147226018836137ea565b915061472d826146ec565b602082019050919050565b6000602082019050818103600083015261475181614715565b9050919050565b7f4e487b7100000000000000000000000000000000000000000000000000000000600052604160045260246000fd5b7f50617573653a2070617573656400000000000000000000000000000000000000600082015250565b60006147bd600d836137ea565b91506147c882614787565b602082019050919050565b600060208201905081810360008301526147ec816147b0565b9050919050565b600082905092915050565b60006020601f8301049050919050565b600082821b905092915050565b60006008830261484b7fffffffffffffffffffffffffffffffffffffffffffffffffffffffffffffffff8261480e565b614855868361480e565b95508019841693508086168417925050509392505050565b6000819050919050565b600061489261488d614888846134d3565b61486d565b6134d3565b9050919050565b6000819050919050565b6148ac83614877565b6148c06148b882614899565b84845461481b565b825550505050565b600090565b6148d56148c8565b6148e08184846148a3565b505050565b5b81811015614904576148f96000826148cd565b6001810190506148e6565b5050565b601f8211156149495761491a8161448a565b614923846147fe565b81016020851015614932578190505b61494661493e856147fe565b8301826148e5565b50505b505050565b600082821c905092915050565b600061496c6000198460080261494e565b1980831691505092915050565b6000614985838361495b565b9150826002028217905092915050565b61499f83836147f3565b67ffffffffffffffff8111156149b8576149b7614758565b5b6149c28254614459565b6149cd828285614908565b6000601f8311600181146149fc57600084156149ea578287013590505b6149f48582614979565b865550614a5c565b601f198416614a0a8661448a565b60005b82811015614a3257848901358255600182019150602085019450602081019050614a0d565b86831015614a4f5784890135614a4b601f89168261495b565b8355505b6001600288020188555050505b50505050505050565b82818337600083830152505050565b6000614a8083856137ea565b9350614a8d838584614a65565b614a9683613825565b840190509392505050565b60006020820190508181036000830152614abc818486614a74565b90509392505050565b7f455243313135353a2073656c662d617070726f76616c20666f7220616c6c0000600082015250565b6000614afb601e836137ea565b9150614b0682614ac5565b602082019050919050565b60006020820190508181036000830152614b2a81614aee565b9050919050565b6000819050919050565b614b4c614b47826139c0565b614b31565b82525050565b6000614b5e8284614b3b565b60208201915081905092915050565b7f455243313135353a2062616c616e6365206f766572666c6f7700000000000000600082015250565b6000614ba36019836137ea565b9150614bae82614b6d565b602082019050919050565b60006020820190508181036000830152614bd281614b96565b9050919050565b600081519050919050565b600082825260208201905092915050565b6000614c0082614bd9565b614c0a8185614be4565b9350614c1a8185602086016137fb565b614c2381613825565b840191505092915050565b600060a082019050614c436000830188613e31565b614c506020830187613e31565b8181036040830152614c628186613bc4565b90508181036060830152614c768185613bc4565b90508181036080830152614c8a8184614bf5565b90509695505050505050565b600081519050614ca58161359f565b92915050565b600060208284031215614cc157614cc061346b565b5b6000614ccf84828501614c96565b91505092915050565b7f455243313135353a207472616e736665722072656a6563746564000000000000600082015250565b6000614d0e601a836137ea565b9150614d1982614cd8565b602082019050919050565b60006020820190508181036000830152614d3d81614d01565b9050919050565b7f4e487b7100000000000000000000000000000000000000000000000000000000600052601260045260246000fd5b7f455243313135353a20696e73756666696369656e742062616c616e6365000000600082015250565b6000614da9601d836137ea565b9150614db482614d73565b602082019050919050565b60006020820190508181036000830152614dd881614d9c565b9050919050565b7f50617573653a206e6f7420706175736564000000000000000000000000000000600082015250565b6000614e156011836137ea565b9150614e2082614ddf565b602082019050919050565b60006020820190508181036000830152614e4481614e08565b9050919050565b600060a082019050614e606000830188613e31565b614e6d6020830187613e31565b614e7a6040830186613549565b614e876060830185613549565b8181036080830152614e998184614bf5565b9050969550505050505056fea2646970667358221220b0e63b1882236726543f30c62a83fcebc8f9c556a7d5751ab1bd161b87f37b8464736f6c63430008120033","opcodes":"PUSH1 0x80 PUSH1 0x40 MSTORE CALLVALUE DUP1 ISZERO PUSH3 0x11 JUMPI PUSH1 0x0 DUP1 REVERT JUMPDEST POP PUSH1 0x0 CALLER PUSH3 0x2A PUSH3 0x1AD PUSH1 0x20 SHL PUSH3 0xD6B OR PUSH1 0x20 SHR JUMP JUMPDEST PUSH3 0x58 DUP2 PUSH3 0x44 PUSH3 0x200 PUSH1 0x20 SHL PUSH3 0xDAA OR PUSH1 0x20 SHR JUMP JUMPDEST PUSH3 0x241 PUSH1 0x20 SHL PUSH3 0xDE9 OR SWAP1 SWAP2 SWAP1 PUSH1 0x20 SHR JUMP JUMPDEST POP PUSH3 0x6E PUSH3 0x36A PUSH1 0x20 SHL PUSH3 0xEFD OR PUSH1 0x20 SHR JUMP JUMPDEST PUSH3 0x83 PUSH3 0x3BD PUSH1 0x20 SHL PUSH3 0xF3C OR PUSH1 0x20 SHR JUMP JUMPDEST PUSH3 0xB1 DUP2 PUSH3 0x9D PUSH3 0x410 PUSH1 0x20 SHL PUSH3 0xF7B OR PUSH1 0x20 SHR JUMP JUMPDEST PUSH3 0x451 PUSH1 0x20 SHL PUSH3 0xFBA OR SWAP1 SWAP2 SWAP1 PUSH1 0x20 SHR JUMP JUMPDEST POP PUSH3 0xC7 PUSH3 0x4A6 PUSH1 0x20 SHL PUSH3 0x100E OR PUSH1 0x20 SHR JUMP JUMPDEST PUSH3 0x137 PUSH32 0x73757065725F61646D696E000000000000000000000000000000000000000000 PUSH3 0xFC PUSH3 0x4F9 PUSH1 0x20 SHL PUSH1 0x20 SHR JUMP JUMPDEST PUSH3 0x10C PUSH3 0x4F9 PUSH1 0x20 SHL PUSH1 0x20 SHR JUMP JUMPDEST PUSH3 0x121 PUSH3 0x501 PUSH1 0x20 SHL PUSH3 0x104D OR PUSH1 0x20 SHR JUMP JUMPDEST PUSH3 0x542 PUSH1 0x20 SHL PUSH3 0x108C OR SWAP1 SWAP4 SWAP3 SWAP2 SWAP1 PUSH1 0x20 SHR JUMP JUMPDEST PUSH3 0x1A7 PUSH32 0x61646D696E000000000000000000000000000000000000000000000000000000 PUSH3 0x16C PUSH3 0x4F9 PUSH1 0x20 SHL PUSH1 0x20 SHR JUMP JUMPDEST PUSH3 0x17C PUSH3 0x4F9 PUSH1 0x20 SHL PUSH1 0x20 SHR JUMP JUMPDEST PUSH3 0x191 PUSH3 0x501 PUSH1 0x20 SHL PUSH3 0x104D OR PUSH1 0x20 SHR JUMP JUMPDEST PUSH3 0x542 PUSH1 0x20 SHL PUSH3 0x108C OR SWAP1 SWAP4 SWAP3 SWAP2 SWAP1 PUSH1 0x20 SHR JUMP JUMPDEST PUSH3 0x94C JUMP JUMPDEST PUSH3 0x1FE PUSH32 0xD9B67A2600000000000000000000000000000000000000000000000000000000 PUSH1 0x1 PUSH3 0x1E9 PUSH3 0x612 PUSH1 0x20 SHL PUSH3 0x1152 OR PUSH1 0x20 SHR JUMP JUMPDEST PUSH3 0x653 PUSH1 0x20 SHL PUSH3 0x1191 OR SWAP1 SWAP3 SWAP2 SWAP1 PUSH1 0x20 SHR JUMP JUMPDEST JUMP JUMPDEST PUSH1 0x0 DUP1 PUSH1 0x1 PUSH32 0xC9ED16F33AB3A66C84BFD83099CCB2A8845871E2E1C1928F63797152F0FD54CD PUSH1 0x0 SHR PUSH3 0x235 SWAP2 SWAP1 PUSH3 0x7F1 JUMP JUMPDEST PUSH1 0x0 SHL SWAP1 POP DUP1 SWAP2 POP POP SWAP1 JUMP JUMPDEST PUSH1 0x0 PUSH20 0xFFFFFFFFFFFFFFFFFFFFFFFFFFFFFFFFFFFFFFFF AND DUP2 PUSH20 0xFFFFFFFFFFFFFFFFFFFFFFFFFFFFFFFFFFFFFFFF AND EQ PUSH3 0x315 JUMPI DUP1 DUP3 PUSH1 0x0 ADD PUSH1 0x0 PUSH2 0x100 EXP DUP2 SLOAD DUP2 PUSH20 0xFFFFFFFFFFFFFFFFFFFFFFFFFFFFFFFFFFFFFFFF MUL NOT AND SWAP1 DUP4 PUSH20 0xFFFFFFFFFFFFFFFFFFFFFFFFFFFFFFFFFFFFFFFF AND MUL OR SWAP1 SSTORE POP DUP1 PUSH20 0xFFFFFFFFFFFFFFFFFFFFFFFFFFFFFFFFFFFFFFFF AND PUSH1 0x0 PUSH20 0xFFFFFFFFFFFFFFFFFFFFFFFFFFFFFFFFFFFFFFFF AND PUSH32 0x8BE0079C531659141344CD1FD0A4F28419497F9722A3DAAFE3B4186F6B6457E0 PUSH1 0x40 MLOAD PUSH1 0x40 MLOAD DUP1 SWAP2 SUB SWAP1 LOG3 JUMPDEST PUSH3 0x366 PUSH32 0x7F5828D000000000000000000000000000000000000000000000000000000000 PUSH1 0x1 PUSH3 0x351 PUSH3 0x612 PUSH1 0x20 SHL PUSH3 0x1152 OR PUSH1 0x20 SHR JUMP JUMPDEST PUSH3 0x653 PUSH1 0x20 SHL PUSH3 0x1191 OR SWAP1 SWAP3 SWAP2 SWAP1 PUSH1 0x20 SHR JUMP JUMPDEST POP POP JUMP JUMPDEST PUSH3 0x3BB PUSH32 0x5190C92C00000000000000000000000000000000000000000000000000000000 PUSH1 0x1 PUSH3 0x3A6 PUSH3 0x612 PUSH1 0x20 SHL PUSH3 0x1152 OR PUSH1 0x20 SHR JUMP JUMPDEST PUSH3 0x653 PUSH1 0x20 SHL PUSH3 0x1191 OR SWAP1 SWAP3 SWAP2 SWAP1 PUSH1 0x20 SHR JUMP JUMPDEST JUMP JUMPDEST PUSH3 0x40E PUSH32 0x921ED8D100000000000000000000000000000000000000000000000000000000 PUSH1 0x1 PUSH3 0x3F9 PUSH3 0x612 PUSH1 0x20 SHL PUSH3 0x1152 OR PUSH1 0x20 SHR JUMP JUMPDEST PUSH3 0x653 PUSH1 0x20 SHL PUSH3 0x1191 OR SWAP1 SWAP3 SWAP2 SWAP1 PUSH1 0x20 SHR JUMP JUMPDEST JUMP JUMPDEST PUSH1 0x0 DUP1 PUSH1 0x1 PUSH32 0x186A05F63B1553398AD5EA3233C0CE68B8C9EECC47717F123C5C2B42FBD6D9F PUSH1 0x0 SHR PUSH3 0x445 SWAP2 SWAP1 PUSH3 0x7F1 JUMP JUMPDEST PUSH1 0x0 SHL SWAP1 POP DUP1 SWAP2 POP POP SWAP1 JUMP JUMPDEST DUP1 ISZERO PUSH3 0x4A2 JUMPI PUSH1 0x1 DUP3 PUSH1 0x0 ADD PUSH1 0x0 PUSH2 0x100 EXP DUP2 SLOAD DUP2 PUSH1 0xFF MUL NOT AND SWAP1 DUP4 ISZERO ISZERO MUL OR SWAP1 SSTORE POP PUSH32 0x9E87FAC88FF661F02D44F95383C817FECE4BCE600A3DAB7A54406878B965E752 PUSH1 0x40 MLOAD PUSH1 0x40 MLOAD DUP1 SWAP2 SUB SWAP1 LOG1 JUMPDEST POP POP JUMP JUMPDEST PUSH3 0x4F7 PUSH32 0xE89341C00000000000000000000000000000000000000000000000000000000 PUSH1 0x1 PUSH3 0x4E2 PUSH3 0x612 PUSH1 0x20 SHL PUSH3 0x1152 OR PUSH1 0x20 SHR JUMP JUMPDEST PUSH3 0x653 PUSH1 0x20 SHL PUSH3 0x1191 OR SWAP1 SWAP3 SWAP2 SWAP1 PUSH1 0x20 SHR JUMP JUMPDEST JUMP JUMPDEST PUSH1 0x0 CALLER SWAP1 POP SWAP1 JUMP JUMPDEST PUSH1 0x0 DUP1 PUSH1 0x1 PUSH32 0xC8827D3282AF6F37B64C3E9E6F3AC9DF286AB0BB0FCCD6F8661BF19ADB368B23 PUSH1 0x0 SHR PUSH3 0x536 SWAP2 SWAP1 PUSH3 0x7F1 JUMP JUMPDEST PUSH1 0x0 SHL SWAP1 POP DUP1 SWAP2 POP POP SWAP1 JUMP JUMPDEST PUSH3 0x55E DUP4 DUP4 DUP7 PUSH3 0x74D PUSH1 0x20 SHL PUSH3 0x1288 OR SWAP1 SWAP3 SWAP2 SWAP1 PUSH1 0x20 SHR JUMP JUMPDEST PUSH3 0x60C JUMPI PUSH1 0x1 DUP5 PUSH1 0x0 ADD PUSH1 0x0 DUP6 DUP2 MSTORE PUSH1 0x20 ADD SWAP1 DUP2 MSTORE PUSH1 0x20 ADD PUSH1 0x0 KECCAK256 PUSH1 0x0 DUP5 PUSH20 0xFFFFFFFFFFFFFFFFFFFFFFFFFFFFFFFFFFFFFFFF AND PUSH20 0xFFFFFFFFFFFFFFFFFFFFFFFFFFFFFFFFFFFFFFFF AND DUP2 MSTORE PUSH1 0x20 ADD SWAP1 DUP2 MSTORE PUSH1 0x20 ADD PUSH1 0x0 KECCAK256 PUSH1 0x0 PUSH2 0x100 EXP DUP2 SLOAD DUP2 PUSH1 0xFF MUL NOT AND SWAP1 DUP4 ISZERO ISZERO MUL OR SWAP1 SSTORE POP PUSH32 0x2F8788117E7EFF1D82E926EC794901D17C78024A50270940304540A733656F0D DUP4 DUP4 DUP4 PUSH1 0x40 MLOAD PUSH3 0x603 SWAP4 SWAP3 SWAP2 SWAP1 PUSH3 0x88C JUMP JUMPDEST PUSH1 0x40 MLOAD DUP1 SWAP2 SUB SWAP1 LOG1 JUMPDEST POP POP POP POP JUMP JUMPDEST PUSH1 0x0 DUP1 PUSH1 0x1 PUSH32 0xCA9D3E17F264B0F3984E2634E94ADB37FA3E6A8103F06AEAE6FA59E21C769F5E PUSH1 0x0 SHR PUSH3 0x647 SWAP2 SWAP1 PUSH3 0x7F1 JUMP JUMPDEST PUSH1 0x0 SHL SWAP1 POP DUP1 SWAP2 POP POP SWAP1 JUMP JUMPDEST PUSH4 0xFFFFFFFF PUSH1 0xE0 SHL PUSH28 0xFFFFFFFFFFFFFFFFFFFFFFFFFFFFFFFFFFFFFFFFFFFFFFFFFFFFFFFF NOT AND DUP3 PUSH28 0xFFFFFFFFFFFFFFFFFFFFFFFFFFFFFFFFFFFFFFFFFFFFFFFFFFFFFFFF NOT AND SUB PUSH3 0x6DD JUMPI PUSH1 0x40 MLOAD PUSH32 0x8C379A000000000000000000000000000000000000000000000000000000000 DUP2 MSTORE PUSH1 0x4 ADD PUSH3 0x6D4 SWAP1 PUSH3 0x92A JUMP JUMPDEST PUSH1 0x40 MLOAD DUP1 SWAP2 SUB SWAP1 REVERT JUMPDEST DUP1 DUP4 PUSH1 0x0 ADD PUSH1 0x0 DUP5 PUSH28 0xFFFFFFFFFFFFFFFFFFFFFFFFFFFFFFFFFFFFFFFFFFFFFFFFFFFFFFFF NOT AND PUSH28 0xFFFFFFFFFFFFFFFFFFFFFFFFFFFFFFFFFFFFFFFFFFFFFFFFFFFFFFFF NOT AND DUP2 MSTORE PUSH1 0x20 ADD SWAP1 DUP2 MSTORE PUSH1 0x20 ADD PUSH1 0x0 KECCAK256 PUSH1 0x0 PUSH2 0x100 EXP DUP2 SLOAD DUP2 PUSH1 0xFF MUL NOT AND SWAP1 DUP4 ISZERO ISZERO MUL OR SWAP1 SSTORE POP POP POP POP JUMP JUMPDEST PUSH1 0x0 DUP4 PUSH1 0x0 ADD PUSH1 0x0 DUP5 DUP2 MSTORE PUSH1 0x20 ADD SWAP1 DUP2 MSTORE PUSH1 0x20 ADD PUSH1 0x0 KECCAK256 PUSH1 0x0 DUP4 PUSH20 0xFFFFFFFFFFFFFFFFFFFFFFFFFFFFFFFFFFFFFFFF AND PUSH20 0xFFFFFFFFFFFFFFFFFFFFFFFFFFFFFFFFFFFFFFFF AND DUP2 MSTORE PUSH1 0x20 ADD SWAP1 DUP2 MSTORE PUSH1 0x20 ADD PUSH1 0x0 KECCAK256 PUSH1 0x0 SWAP1 SLOAD SWAP1 PUSH2 0x100 EXP SWAP1 DIV PUSH1 0xFF AND SWAP1 POP SWAP4 SWAP3 POP POP POP JUMP JUMPDEST PUSH1 0x0 DUP2 SWAP1 POP SWAP2 SWAP1 POP JUMP JUMPDEST PUSH32 0x4E487B7100000000000000000000000000000000000000000000000000000000 PUSH1 0x0 MSTORE PUSH1 0x11 PUSH1 0x4 MSTORE PUSH1 0x24 PUSH1 0x0 REVERT JUMPDEST PUSH1 0x0 PUSH3 0x7FE DUP3 PUSH3 0x7B8 JUMP JUMPDEST SWAP2 POP PUSH3 0x80B DUP4 PUSH3 0x7B8 JUMP JUMPDEST SWAP3 POP DUP3 DUP3 SUB SWAP1 POP DUP2 DUP2 GT ISZERO PUSH3 0x826 JUMPI PUSH3 0x825 PUSH3 0x7C2 JUMP JUMPDEST JUMPDEST SWAP3 SWAP2 POP POP JUMP JUMPDEST PUSH1 0x0 DUP2 SWAP1 POP SWAP2 SWAP1 POP JUMP JUMPDEST PUSH3 0x841 DUP2 PUSH3 0x82C JUMP JUMPDEST DUP3 MSTORE POP POP JUMP JUMPDEST PUSH1 0x0 PUSH20 0xFFFFFFFFFFFFFFFFFFFFFFFFFFFFFFFFFFFFFFFF DUP3 AND SWAP1 POP SWAP2 SWAP1 POP JUMP JUMPDEST PUSH1 0x0 PUSH3 0x874 DUP3 PUSH3 0x847 JUMP JUMPDEST SWAP1 POP SWAP2 SWAP1 POP JUMP JUMPDEST PUSH3 0x886 DUP2 PUSH3 0x867 JUMP JUMPDEST DUP3 MSTORE POP POP JUMP JUMPDEST PUSH1 0x0 PUSH1 0x60 DUP3 ADD SWAP1 POP PUSH3 0x8A3 PUSH1 0x0 DUP4 ADD DUP7 PUSH3 0x836 JUMP JUMPDEST PUSH3 0x8B2 PUSH1 0x20 DUP4 ADD DUP6 PUSH3 0x87B JUMP JUMPDEST PUSH3 0x8C1 PUSH1 0x40 DUP4 ADD DUP5 PUSH3 0x87B JUMP JUMPDEST SWAP5 SWAP4 POP POP POP POP JUMP JUMPDEST PUSH1 0x0 DUP3 DUP3 MSTORE PUSH1 0x20 DUP3 ADD SWAP1 POP SWAP3 SWAP2 POP POP JUMP JUMPDEST PUSH32 0x496E74657266616365446574656374696F6E3A2077726F6E672076616C756500 PUSH1 0x0 DUP3 ADD MSTORE POP JUMP JUMPDEST PUSH1 0x0 PUSH3 0x912 PUSH1 0x1F DUP4 PUSH3 0x8C9 JUMP JUMPDEST SWAP2 POP PUSH3 0x91F DUP3 PUSH3 0x8DA JUMP JUMPDEST PUSH1 0x20 DUP3 ADD SWAP1 POP SWAP2 SWAP1 POP JUMP JUMPDEST PUSH1 0x0 PUSH1 0x20 DUP3 ADD SWAP1 POP DUP2 DUP2 SUB PUSH1 0x0 DUP4 ADD MSTORE PUSH3 0x945 DUP2 PUSH3 0x903 JUMP JUMPDEST SWAP1 POP SWAP2 SWAP1 POP JUMP JUMPDEST PUSH2 0x4EDB DUP1 PUSH3 0x95C PUSH1 0x0 CODECOPY PUSH1 0x0 RETURN INVALID PUSH1 0x80 PUSH1 0x40 MSTORE CALLVALUE DUP1 ISZERO PUSH2 0x10 JUMPI PUSH1 0x0 DUP1 REVERT JUMPDEST POP PUSH1 0x4 CALLDATASIZE LT PUSH2 0x1C3 JUMPI PUSH1 0x0 CALLDATALOAD PUSH1 0xE0 SHR DUP1 PUSH4 0x75B238FC GT PUSH2 0xF9 JUMPI DUP1 PUSH4 0xA22CB465 GT PUSH2 0x97 JUMPI DUP1 PUSH4 0xD547741F GT PUSH2 0x71 JUMPI DUP1 PUSH4 0xD547741F EQ PUSH2 0x4B4 JUMPI DUP1 PUSH4 0xE985E9C5 EQ PUSH2 0x4D0 JUMPI DUP1 PUSH4 0xF242432A EQ PUSH2 0x500 JUMPI DUP1 PUSH4 0xF2FDE38B EQ PUSH2 0x51C JUMPI PUSH2 0x1C3 JUMP JUMPDEST DUP1 PUSH4 0xA22CB465 EQ PUSH2 0x45E JUMPI DUP1 PUSH4 0xC634B78E EQ PUSH2 0x47A JUMPI DUP1 PUSH4 0xD5391393 EQ PUSH2 0x496 JUMPI PUSH2 0x1C3 JUMP JUMPDEST DUP1 PUSH4 0x8456CB59 GT PUSH2 0xD3 JUMPI DUP1 PUSH4 0x8456CB59 EQ PUSH2 0x3EA JUMPI DUP1 PUSH4 0x8BB9C5BF EQ PUSH2 0x3F4 JUMPI DUP1 PUSH4 0x8DA5CB5B EQ PUSH2 0x410 JUMPI DUP1 PUSH4 0x91D14854 EQ PUSH2 0x42E JUMPI PUSH2 0x1C3 JUMP JUMPDEST DUP1 PUSH4 0x75B238FC EQ PUSH2 0x394 JUMPI DUP1 PUSH4 0x7E518EC8 EQ PUSH2 0x3B2 JUMPI DUP1 PUSH4 0x80534934 EQ PUSH2 0x3CE JUMPI PUSH2 0x1C3 JUMP JUMPDEST DUP1 PUSH4 0x3DD1EB61 GT PUSH2 0x166 JUMPI DUP1 PUSH4 0x4E1273F4 GT PUSH2 0x140 JUMPI DUP1 PUSH4 0x4E1273F4 EQ PUSH2 0x30C JUMPI DUP1 PUSH4 0x5B2BD79E EQ PUSH2 0x33C JUMPI DUP1 PUSH4 0x5C975ABB EQ PUSH2 0x35A JUMPI DUP1 PUSH4 0x5CFA9297 EQ PUSH2 0x378 JUMPI PUSH2 0x1C3 JUMP JUMPDEST DUP1 PUSH4 0x3DD1EB61 EQ PUSH2 0x2C8 JUMPI DUP1 PUSH4 0x3F4BA83A EQ PUSH2 0x2E4 JUMPI DUP1 PUSH4 0x4460BDD6 EQ PUSH2 0x2EE JUMPI PUSH2 0x1C3 JUMP JUMPDEST DUP1 PUSH4 0xE89341C GT PUSH2 0x1A2 JUMPI DUP1 PUSH4 0xE89341C EQ PUSH2 0x244 JUMPI DUP1 PUSH4 0x124D91E5 EQ PUSH2 0x274 JUMPI DUP1 PUSH4 0x2EB2C2D6 EQ PUSH2 0x290 JUMPI DUP1 PUSH4 0x2F2FF15D EQ PUSH2 0x2AC JUMPI PUSH2 0x1C3 JUMP JUMPDEST DUP1 PUSH3 0xFDD58E EQ PUSH2 0x1C8 JUMPI DUP1 PUSH4 0x1FFC9A7 EQ PUSH2 0x1F8 JUMPI DUP1 PUSH4 0xD6A5BBB EQ PUSH2 0x228 JUMPI JUMPDEST PUSH1 0x0 DUP1 REVERT JUMPDEST PUSH2 0x1E2 PUSH1 0x4 DUP1 CALLDATASIZE SUB DUP2 ADD SWAP1 PUSH2 0x1DD SWAP2 SWAP1 PUSH2 0x3509 JUMP JUMPDEST PUSH2 0x538 JUMP JUMPDEST PUSH1 0x40 MLOAD PUSH2 0x1EF SWAP2 SWAP1 PUSH2 0x3558 JUMP JUMPDEST PUSH1 0x40 MLOAD DUP1 SWAP2 SUB SWAP1 RETURN JUMPDEST PUSH2 0x212 PUSH1 0x4 DUP1 CALLDATASIZE SUB DUP2 ADD SWAP1 PUSH2 0x20D SWAP2 SWAP1 PUSH2 0x35CB JUMP JUMPDEST PUSH2 0x55E JUMP JUMPDEST PUSH1 0x40 MLOAD PUSH2 0x21F SWAP2 SWAP1 PUSH2 0x3613 JUMP JUMPDEST PUSH1 0x40 MLOAD DUP1 SWAP2 SUB SWAP1 RETURN JUMPDEST PUSH2 0x242 PUSH1 0x4 DUP1 CALLDATASIZE SUB DUP2 ADD SWAP1 PUSH2 0x23D SWAP2 SWAP1 PUSH2 0x36E9 JUMP JUMPDEST PUSH2 0x581 JUMP JUMPDEST STOP JUMPDEST PUSH2 0x25E PUSH1 0x4 DUP1 CALLDATASIZE SUB DUP2 ADD SWAP1 PUSH2 0x259 SWAP2 SWAP1 PUSH2 0x37B2 JUMP JUMPDEST PUSH2 0x6BB JUMP JUMPDEST PUSH1 0x40 MLOAD PUSH2 0x26B SWAP2 SWAP1 PUSH2 0x386F JUMP JUMPDEST PUSH1 0x40 MLOAD DUP1 SWAP2 SUB SWAP1 RETURN JUMPDEST PUSH2 0x28E PUSH1 0x4 DUP1 CALLDATASIZE SUB DUP2 ADD SWAP1 PUSH2 0x289 SWAP2 SWAP1 PUSH2 0x3891 JUMP JUMPDEST PUSH2 0x6DE JUMP JUMPDEST STOP JUMPDEST PUSH2 0x2AA PUSH1 0x4 DUP1 CALLDATASIZE SUB DUP2 ADD SWAP1 PUSH2 0x2A5 SWAP2 SWAP1 PUSH2 0x38E4 JUMP JUMPDEST PUSH2 0x70A JUMP JUMPDEST STOP JUMPDEST PUSH2 0x2C6 PUSH1 0x4 DUP1 CALLDATASIZE SUB DUP2 ADD SWAP1 PUSH2 0x2C1 SWAP2 SWAP1 PUSH2 0x39F6 JUMP JUMPDEST PUSH2 0x745 JUMP JUMPDEST STOP JUMPDEST PUSH2 0x2E2 PUSH1 0x4 DUP1 CALLDATASIZE SUB DUP2 ADD SWAP1 PUSH2 0x2DD SWAP2 SWAP1 PUSH2 0x3A36 JUMP JUMPDEST PUSH2 0x78E JUMP JUMPDEST STOP JUMPDEST PUSH2 0x2EC PUSH2 0x85E JUMP JUMPDEST STOP JUMPDEST PUSH2 0x2F6 PUSH2 0x891 JUMP JUMPDEST PUSH1 0x40 MLOAD PUSH2 0x303 SWAP2 SWAP1 PUSH2 0x3A72 JUMP JUMPDEST PUSH1 0x40 MLOAD DUP1 SWAP2 SUB SWAP1 RETURN JUMPDEST PUSH2 0x326 PUSH1 0x4 DUP1 CALLDATASIZE SUB DUP2 ADD SWAP1 PUSH2 0x321 SWAP2 SWAP1 PUSH2 0x3AE3 JUMP JUMPDEST PUSH2 0x8B5 JUMP JUMPDEST PUSH1 0x40 MLOAD PUSH2 0x333 SWAP2 SWAP1 PUSH2 0x3C22 JUMP JUMPDEST PUSH1 0x40 MLOAD DUP1 SWAP2 SUB SWAP1 RETURN JUMPDEST PUSH2 0x344 PUSH2 0x8E1 JUMP JUMPDEST PUSH1 0x40 MLOAD PUSH2 0x351 SWAP2 SWAP1 PUSH2 0x386F JUMP JUMPDEST PUSH1 0x40 MLOAD DUP1 SWAP2 SUB SWAP1 RETURN JUMPDEST PUSH2 0x362 PUSH2 0x8F8 JUMP JUMPDEST PUSH1 0x40 MLOAD PUSH2 0x36F SWAP2 SWAP1 PUSH2 0x3613 JUMP JUMPDEST PUSH1 0x40 MLOAD DUP1 SWAP2 SUB SWAP1 RETURN JUMPDEST PUSH2 0x392 PUSH1 0x4 DUP1 CALLDATASIZE SUB DUP2 ADD SWAP1 PUSH2 0x38D SWAP2 SWAP1 PUSH2 0x3C44 JUMP JUMPDEST PUSH2 0x90F JUMP JUMPDEST STOP JUMPDEST PUSH2 0x39C PUSH2 0x9D5 JUMP JUMPDEST PUSH1 0x40 MLOAD PUSH2 0x3A9 SWAP2 SWAP1 PUSH2 0x3A72 JUMP JUMPDEST PUSH1 0x40 MLOAD DUP1 SWAP2 SUB SWAP1 RETURN JUMPDEST PUSH2 0x3CC PUSH1 0x4 DUP1 CALLDATASIZE SUB DUP2 ADD SWAP1 PUSH2 0x3C7 SWAP2 SWAP1 PUSH2 0x3D22 JUMP JUMPDEST PUSH2 0x9F9 JUMP JUMPDEST STOP JUMPDEST PUSH2 0x3E8 PUSH1 0x4 DUP1 CALLDATASIZE SUB DUP2 ADD SWAP1 PUSH2 0x3E3 SWAP2 SWAP1 PUSH2 0x3D6F JUMP JUMPDEST PUSH2 0xA3A JUMP JUMPDEST STOP JUMPDEST PUSH2 0x3F2 PUSH2 0xA6C JUMP JUMPDEST STOP JUMPDEST PUSH2 0x40E PUSH1 0x4 DUP1 CALLDATASIZE SUB DUP2 ADD SWAP1 PUSH2 0x409 SWAP2 SWAP1 PUSH2 0x3E04 JUMP JUMPDEST PUSH2 0xA9F JUMP JUMPDEST STOP JUMPDEST PUSH2 0x418 PUSH2 0xAC5 JUMP JUMPDEST PUSH1 0x40 MLOAD PUSH2 0x425 SWAP2 SWAP1 PUSH2 0x3E40 JUMP JUMPDEST PUSH1 0x40 MLOAD DUP1 SWAP2 SUB SWAP1 RETURN JUMPDEST PUSH2 0x448 PUSH1 0x4 DUP1 CALLDATASIZE SUB DUP2 ADD SWAP1 PUSH2 0x443 SWAP2 SWAP1 PUSH2 0x39F6 JUMP JUMPDEST PUSH2 0xADC JUMP JUMPDEST PUSH1 0x40 MLOAD PUSH2 0x455 SWAP2 SWAP1 PUSH2 0x3613 JUMP JUMPDEST PUSH1 0x40 MLOAD DUP1 SWAP2 SUB SWAP1 RETURN JUMPDEST PUSH2 0x478 PUSH1 0x4 DUP1 CALLDATASIZE SUB DUP2 ADD SWAP1 PUSH2 0x473 SWAP2 SWAP1 PUSH2 0x3E87 JUMP JUMPDEST PUSH2 0xB02 JUMP JUMPDEST STOP JUMPDEST PUSH2 0x494 PUSH1 0x4 DUP1 CALLDATASIZE SUB DUP2 ADD SWAP1 PUSH2 0x48F SWAP2 SWAP1 PUSH2 0x3A36 JUMP JUMPDEST PUSH2 0xB2B JUMP JUMPDEST STOP JUMPDEST PUSH2 0x49E PUSH2 0xBFB JUMP JUMPDEST PUSH1 0x40 MLOAD PUSH2 0x4AB SWAP2 SWAP1 PUSH2 0x3A72 JUMP JUMPDEST PUSH1 0x40 MLOAD DUP1 SWAP2 SUB SWAP1 RETURN JUMPDEST PUSH2 0x4CE PUSH1 0x4 DUP1 CALLDATASIZE SUB DUP2 ADD SWAP1 PUSH2 0x4C9 SWAP2 SWAP1 PUSH2 0x39F6 JUMP JUMPDEST PUSH2 0xC1F JUMP JUMPDEST STOP JUMPDEST PUSH2 0x4EA PUSH1 0x4 DUP1 CALLDATASIZE SUB DUP2 ADD SWAP1 PUSH2 0x4E5 SWAP2 SWAP1 PUSH2 0x3EC7 JUMP JUMPDEST PUSH2 0xC68 JUMP JUMPDEST PUSH1 0x40 MLOAD PUSH2 0x4F7 SWAP2 SWAP1 PUSH2 0x3613 JUMP JUMPDEST PUSH1 0x40 MLOAD DUP1 SWAP2 SUB SWAP1 RETURN JUMPDEST PUSH2 0x51A PUSH1 0x4 DUP1 CALLDATASIZE SUB DUP2 ADD SWAP1 PUSH2 0x515 SWAP2 SWAP1 PUSH2 0x3F07 JUMP JUMPDEST PUSH2 0xC8E JUMP JUMPDEST STOP JUMPDEST PUSH2 0x536 PUSH1 0x4 DUP1 CALLDATASIZE SUB DUP2 ADD SWAP1 PUSH2 0x531 SWAP2 SWAP1 PUSH2 0x3A36 JUMP JUMPDEST PUSH2 0xCC3 JUMP JUMPDEST STOP JUMPDEST PUSH1 0x0 PUSH2 0x556 DUP4 DUP4 PUSH2 0x547 PUSH2 0x12F3 JUMP JUMPDEST PUSH2 0x1332 SWAP1 SWAP3 SWAP2 SWAP1 PUSH4 0xFFFFFFFF AND JUMP JUMPDEST SWAP1 POP SWAP3 SWAP2 POP POP JUMP JUMPDEST PUSH1 0x0 PUSH2 0x57A DUP3 PUSH2 0x56C PUSH2 0x1152 JUMP JUMPDEST PUSH2 0x13FE SWAP1 SWAP2 SWAP1 PUSH4 0xFFFFFFFF AND JUMP JUMPDEST SWAP1 POP SWAP2 SWAP1 POP JUMP JUMPDEST PUSH1 0x0 PUSH2 0x58B PUSH2 0x152D JUMP JUMPDEST SWAP1 POP PUSH2 0x5C9 PUSH32 0x6D696E7465720000000000000000000000000000000000000000000000000000 DUP3 PUSH2 0x5BA PUSH2 0x104D JUMP JUMPDEST PUSH2 0x1535 SWAP1 SWAP3 SWAP2 SWAP1 PUSH4 0xFFFFFFFF AND JUMP JUMPDEST PUSH2 0x6B1 DUP2 DUP10 DUP10 DUP10 DUP1 DUP1 PUSH1 0x20 MUL PUSH1 0x20 ADD PUSH1 0x40 MLOAD SWAP1 DUP2 ADD PUSH1 0x40 MSTORE DUP1 SWAP4 SWAP3 SWAP2 SWAP1 DUP2 DUP2 MSTORE PUSH1 0x20 ADD DUP4 DUP4 PUSH1 0x20 MUL DUP1 DUP3 DUP5 CALLDATACOPY PUSH1 0x0 DUP2 DUP5 ADD MSTORE PUSH1 0x1F NOT PUSH1 0x1F DUP3 ADD AND SWAP1 POP DUP1 DUP4 ADD SWAP3 POP POP POP POP POP POP POP DUP9 DUP9 DUP1 DUP1 PUSH1 0x20 MUL PUSH1 0x20 ADD PUSH1 0x40 MLOAD SWAP1 DUP2 ADD PUSH1 0x40 MSTORE DUP1 SWAP4 SWAP3 SWAP2 SWAP1 DUP2 DUP2 MSTORE PUSH1 0x20 ADD DUP4 DUP4 PUSH1 0x20 MUL DUP1 DUP3 DUP5 CALLDATACOPY PUSH1 0x0 DUP2 DUP5 ADD MSTORE PUSH1 0x1F NOT PUSH1 0x1F DUP3 ADD AND SWAP1 POP DUP1 DUP4 ADD SWAP3 POP POP POP POP POP POP POP DUP8 DUP8 DUP1 DUP1 PUSH1 0x1F ADD PUSH1 0x20 DUP1 SWAP2 DIV MUL PUSH1 0x20 ADD PUSH1 0x40 MLOAD SWAP1 DUP2 ADD PUSH1 0x40 MSTORE DUP1 SWAP4 SWAP3 SWAP2 SWAP1 DUP2 DUP2 MSTORE PUSH1 0x20 ADD DUP4 DUP4 DUP1 DUP3 DUP5 CALLDATACOPY PUSH1 0x0 DUP2 DUP5 ADD MSTORE PUSH1 0x1F NOT PUSH1 0x1F DUP3 ADD AND SWAP1 POP DUP1 DUP4 ADD SWAP3 POP POP POP POP POP POP POP PUSH2 0x69F PUSH2 0x12F3 JUMP JUMPDEST PUSH2 0x15B7 SWAP1 SWAP6 SWAP5 SWAP4 SWAP3 SWAP2 SWAP1 PUSH4 0xFFFFFFFF AND JUMP JUMPDEST POP POP POP POP POP POP POP POP JUMP JUMPDEST PUSH1 0x60 PUSH2 0x6D7 DUP3 PUSH2 0x6C9 PUSH2 0x1781 JUMP JUMPDEST PUSH2 0x17C0 SWAP1 SWAP2 SWAP1 PUSH4 0xFFFFFFFF AND JUMP JUMPDEST SWAP1 POP SWAP2 SWAP1 POP JUMP JUMPDEST PUSH2 0x705 PUSH2 0x6E9 PUSH2 0x152D JUMP JUMPDEST DUP5 DUP5 DUP5 PUSH2 0x6F4 PUSH2 0x12F3 JUMP JUMPDEST PUSH2 0x17F7 SWAP1 SWAP5 SWAP4 SWAP3 SWAP2 SWAP1 PUSH4 0xFFFFFFFF AND JUMP JUMPDEST POP POP POP JUMP JUMPDEST PUSH2 0x73B PUSH2 0x715 PUSH2 0x152D JUMP JUMPDEST DUP10 DUP10 DUP10 DUP10 DUP10 DUP10 DUP10 DUP10 PUSH2 0x725 PUSH2 0x12F3 JUMP JUMPDEST PUSH2 0x18D3 SWAP1 SWAP10 SWAP9 SWAP8 SWAP7 SWAP6 SWAP5 SWAP4 SWAP3 SWAP2 SWAP1 PUSH4 0xFFFFFFFF AND JUMP JUMPDEST POP POP POP POP POP POP POP POP JUMP JUMPDEST PUSH1 0x0 PUSH2 0x74F PUSH2 0x152D JUMP JUMPDEST SWAP1 POP PUSH2 0x76B DUP2 PUSH2 0x75D PUSH2 0xDAA JUMP JUMPDEST PUSH2 0x1BB6 SWAP1 SWAP2 SWAP1 PUSH4 0xFFFFFFFF AND JUMP JUMPDEST PUSH2 0x789 DUP4 DUP4 DUP4 PUSH2 0x779 PUSH2 0x104D JUMP JUMPDEST PUSH2 0x108C SWAP1 SWAP4 SWAP3 SWAP2 SWAP1 PUSH4 0xFFFFFFFF AND JUMP JUMPDEST POP POP POP JUMP JUMPDEST PUSH1 0x0 PUSH2 0x798 PUSH2 0x152D JUMP JUMPDEST SWAP1 POP PUSH2 0x7DD PUSH32 0x61646D696E000000000000000000000000000000000000000000000000000000 PUSH2 0x7C6 PUSH2 0x152D JUMP JUMPDEST PUSH2 0x7CE PUSH2 0x104D JUMP JUMPDEST PUSH2 0x1288 SWAP1 SWAP3 SWAP2 SWAP1 PUSH4 0xFFFFFFFF AND JUMP JUMPDEST PUSH2 0x81C JUMPI PUSH1 0x40 MLOAD PUSH32 0x8C379A000000000000000000000000000000000000000000000000000000000 DUP2 MSTORE PUSH1 0x4 ADD PUSH2 0x813 SWAP1 PUSH2 0x3FED JUMP JUMPDEST PUSH1 0x40 MLOAD DUP1 SWAP2 SUB SWAP1 REVERT JUMPDEST PUSH2 0x85A PUSH32 0x6D696E7465720000000000000000000000000000000000000000000000000000 DUP4 DUP4 PUSH2 0x84A PUSH2 0x104D JUMP JUMPDEST PUSH2 0x108C SWAP1 SWAP4 SWAP3 SWAP2 SWAP1 PUSH4 0xFFFFFFFF AND JUMP JUMPDEST POP POP JUMP JUMPDEST PUSH2 0x87F PUSH2 0x869 PUSH2 0x152D JUMP JUMPDEST PUSH2 0x871 PUSH2 0xDAA JUMP JUMPDEST PUSH2 0x1BB6 SWAP1 SWAP2 SWAP1 PUSH4 0xFFFFFFFF AND JUMP JUMPDEST PUSH2 0x88F PUSH2 0x88A PUSH2 0xF7B JUMP JUMPDEST PUSH2 0x1C4C JUMP JUMPDEST JUMP JUMPDEST PUSH32 0x73757065725F61646D696E000000000000000000000000000000000000000000 DUP2 JUMP JUMPDEST PUSH1 0x60 PUSH2 0x8D7 DUP6 DUP6 DUP6 DUP6 PUSH2 0x8C6 PUSH2 0x12F3 JUMP JUMPDEST PUSH2 0x1CA1 SWAP1 SWAP5 SWAP4 SWAP3 SWAP2 SWAP1 PUSH4 0xFFFFFFFF AND JUMP JUMPDEST SWAP1 POP SWAP5 SWAP4 POP POP POP POP JUMP JUMPDEST PUSH1 0x60 PUSH2 0x8F3 PUSH2 0x8EE PUSH2 0x1781 JUMP JUMPDEST PUSH2 0x1DD2 JUMP JUMPDEST SWAP1 POP SWAP1 JUMP JUMPDEST PUSH1 0x0 PUSH2 0x90A PUSH2 0x905 PUSH2 0xF7B JUMP JUMPDEST PUSH2 0x1E68 JUMP JUMPDEST SWAP1 POP SWAP1 JUMP JUMPDEST PUSH2 0x91F PUSH2 0x91A PUSH2 0xF7B JUMP JUMPDEST PUSH2 0x1E83 JUMP JUMPDEST PUSH1 0x0 PUSH2 0x929 PUSH2 0x152D JUMP JUMPDEST SWAP1 POP PUSH2 0x967 PUSH32 0x6D696E7465720000000000000000000000000000000000000000000000000000 DUP3 PUSH2 0x958 PUSH2 0x104D JUMP JUMPDEST PUSH2 0x1535 SWAP1 SWAP3 SWAP2 SWAP1 PUSH4 0xFFFFFFFF AND JUMP JUMPDEST PUSH2 0x9CD DUP2 DUP8 DUP8 DUP8 DUP8 DUP8 DUP1 DUP1 PUSH1 0x1F ADD PUSH1 0x20 DUP1 SWAP2 DIV MUL PUSH1 0x20 ADD PUSH1 0x40 MLOAD SWAP1 DUP2 ADD PUSH1 0x40 MSTORE DUP1 SWAP4 SWAP3 SWAP2 SWAP1 DUP2 DUP2 MSTORE PUSH1 0x20 ADD DUP4 DUP4 DUP1 DUP3 DUP5 CALLDATACOPY PUSH1 0x0 DUP2 DUP5 ADD MSTORE PUSH1 0x1F NOT PUSH1 0x1F DUP3 ADD AND SWAP1 POP DUP1 DUP4 ADD SWAP3 POP POP POP POP POP POP POP PUSH2 0x9BB PUSH2 0x12F3 JUMP JUMPDEST PUSH2 0x1ED8 SWAP1 SWAP6 SWAP5 SWAP4 SWAP3 SWAP2 SWAP1 PUSH4 0xFFFFFFFF AND JUMP JUMPDEST POP POP POP POP POP POP JUMP JUMPDEST PUSH32 0x61646D696E000000000000000000000000000000000000000000000000000000 DUP2 JUMP JUMPDEST PUSH2 0xA1A PUSH2 0xA04 PUSH2 0x152D JUMP JUMPDEST PUSH2 0xA0C PUSH2 0xDAA JUMP JUMPDEST PUSH2 0x1BB6 SWAP1 SWAP2 SWAP1 PUSH4 0xFFFFFFFF AND JUMP JUMPDEST PUSH2 0xA36 DUP3 DUP3 PUSH2 0xA27 PUSH2 0x1781 JUMP JUMPDEST PUSH2 0x200E SWAP1 SWAP3 SWAP2 SWAP1 PUSH4 0xFFFFFFFF AND JUMP JUMPDEST POP POP JUMP JUMPDEST PUSH2 0xA65 PUSH2 0xA45 PUSH2 0x152D JUMP JUMPDEST DUP7 DUP7 DUP7 DUP7 DUP7 PUSH2 0xA52 PUSH2 0x12F3 JUMP JUMPDEST PUSH2 0x2060 SWAP1 SWAP7 SWAP6 SWAP5 SWAP4 SWAP3 SWAP2 SWAP1 PUSH4 0xFFFFFFFF AND JUMP JUMPDEST POP POP POP POP POP JUMP JUMPDEST PUSH2 0xA8D PUSH2 0xA77 PUSH2 0x152D JUMP JUMPDEST PUSH2 0xA7F PUSH2 0xDAA JUMP JUMPDEST PUSH2 0x1BB6 SWAP1 SWAP2 SWAP1 PUSH4 0xFFFFFFFF AND JUMP JUMPDEST PUSH2 0xA9D PUSH2 0xA98 PUSH2 0xF7B JUMP JUMPDEST PUSH2 0x21D8 JUMP JUMPDEST JUMP JUMPDEST PUSH2 0xAC2 PUSH2 0xAAA PUSH2 0x152D JUMP JUMPDEST DUP3 PUSH2 0xAB3 PUSH2 0x104D JUMP JUMPDEST PUSH2 0x222D SWAP1 SWAP3 SWAP2 SWAP1 PUSH4 0xFFFFFFFF AND JUMP JUMPDEST POP JUMP JUMPDEST PUSH1 0x0 PUSH2 0xAD7 PUSH2 0xAD2 PUSH2 0xDAA JUMP JUMPDEST PUSH2 0x22ED JUMP JUMPDEST SWAP1 POP SWAP1 JUMP JUMPDEST PUSH1 0x0 PUSH2 0xAFA DUP4 DUP4 PUSH2 0xAEB PUSH2 0x104D JUMP JUMPDEST PUSH2 0x1288 SWAP1 SWAP3 SWAP2 SWAP1 PUSH4 0xFFFFFFFF AND JUMP JUMPDEST SWAP1 POP SWAP3 SWAP2 POP POP JUMP JUMPDEST PUSH2 0xB27 PUSH2 0xB0D PUSH2 0x152D JUMP JUMPDEST DUP4 DUP4 PUSH2 0xB17 PUSH2 0x12F3 JUMP JUMPDEST PUSH2 0x231B SWAP1 SWAP4 SWAP3 SWAP2 SWAP1 PUSH4 0xFFFFFFFF AND JUMP JUMPDEST POP POP JUMP JUMPDEST PUSH1 0x0 PUSH2 0xB35 PUSH2 0x152D JUMP JUMPDEST SWAP1 POP PUSH2 0xB7A PUSH32 0x73757065725F61646D696E000000000000000000000000000000000000000000 PUSH2 0xB63 PUSH2 0x152D JUMP JUMPDEST PUSH2 0xB6B PUSH2 0x104D JUMP JUMPDEST PUSH2 0x1288 SWAP1 SWAP3 SWAP2 SWAP1 PUSH4 0xFFFFFFFF AND JUMP JUMPDEST PUSH2 0xBB9 JUMPI PUSH1 0x40 MLOAD PUSH32 0x8C379A000000000000000000000000000000000000000000000000000000000 DUP2 MSTORE PUSH1 0x4 ADD PUSH2 0xBB0 SWAP1 PUSH2 0x4059 JUMP JUMPDEST PUSH1 0x40 MLOAD DUP1 SWAP2 SUB SWAP1 REVERT JUMPDEST PUSH2 0xBF7 PUSH32 0x61646D696E000000000000000000000000000000000000000000000000000000 DUP4 DUP4 PUSH2 0xBE7 PUSH2 0x104D JUMP JUMPDEST PUSH2 0x108C SWAP1 SWAP4 SWAP3 SWAP2 SWAP1 PUSH4 0xFFFFFFFF AND JUMP JUMPDEST POP POP JUMP JUMPDEST PUSH32 0x6D696E7465720000000000000000000000000000000000000000000000000000 DUP2 JUMP JUMPDEST PUSH1 0x0 PUSH2 0xC29 PUSH2 0x152D JUMP JUMPDEST SWAP1 POP PUSH2 0xC45 DUP2 PUSH2 0xC37 PUSH2 0xDAA JUMP JUMPDEST PUSH2 0x1BB6 SWAP1 SWAP2 SWAP1 PUSH4 0xFFFFFFFF AND JUMP JUMPDEST PUSH2 0xC63 DUP4 DUP4 DUP4 PUSH2 0xC53 PUSH2 0x104D JUMP JUMPDEST PUSH2 0x248A SWAP1 SWAP4 SWAP3 SWAP2 SWAP1 PUSH4 0xFFFFFFFF AND JUMP JUMPDEST POP POP POP JUMP JUMPDEST PUSH1 0x0 PUSH2 0xC86 DUP4 DUP4 PUSH2 0xC77 PUSH2 0x12F3 JUMP JUMPDEST PUSH2 0x2551 SWAP1 SWAP3 SWAP2 SWAP1 PUSH4 0xFFFFFFFF AND JUMP JUMPDEST SWAP1 POP SWAP3 SWAP2 POP POP JUMP JUMPDEST PUSH2 0xCBB PUSH2 0xC99 PUSH2 0x152D JUMP JUMPDEST DUP8 DUP8 DUP8 DUP8 DUP8 DUP8 PUSH2 0xCA7 PUSH2 0x12F3 JUMP JUMPDEST PUSH2 0x25E8 SWAP1 SWAP8 SWAP7 SWAP6 SWAP5 SWAP4 SWAP3 SWAP2 SWAP1 PUSH4 0xFFFFFFFF AND JUMP JUMPDEST POP POP POP POP POP POP JUMP JUMPDEST PUSH2 0xD06 PUSH32 0x73757065725F61646D696E000000000000000000000000000000000000000000 PUSH2 0xCEF PUSH2 0x152D JUMP JUMPDEST PUSH2 0xCF7 PUSH2 0x104D JUMP JUMPDEST PUSH2 0x1288 SWAP1 SWAP3 SWAP2 SWAP1 PUSH4 0xFFFFFFFF AND JUMP JUMPDEST PUSH2 0xD45 JUMPI PUSH1 0x40 MLOAD PUSH32 0x8C379A000000000000000000000000000000000000000000000000000000000 DUP2 MSTORE PUSH1 0x4 ADD PUSH2 0xD3C SWAP1 PUSH2 0x4059 JUMP JUMPDEST PUSH1 0x40 MLOAD DUP1 SWAP2 SUB SWAP1 REVERT JUMPDEST PUSH2 0xD68 PUSH2 0xD50 PUSH2 0x152D JUMP JUMPDEST DUP3 PUSH2 0xD59 PUSH2 0xDAA JUMP JUMPDEST PUSH2 0x27AD SWAP1 SWAP3 SWAP2 SWAP1 PUSH4 0xFFFFFFFF AND JUMP JUMPDEST POP JUMP JUMPDEST PUSH2 0xDA8 PUSH32 0xD9B67A2600000000000000000000000000000000000000000000000000000000 PUSH1 0x1 PUSH2 0xD99 PUSH2 0x1152 JUMP JUMPDEST PUSH2 0x1191 SWAP1 SWAP3 SWAP2 SWAP1 PUSH4 0xFFFFFFFF AND JUMP JUMPDEST JUMP JUMPDEST PUSH1 0x0 DUP1 PUSH1 0x1 PUSH32 0xC9ED16F33AB3A66C84BFD83099CCB2A8845871E2E1C1928F63797152F0FD54CD PUSH1 0x0 SHR PUSH2 0xDDD SWAP2 SWAP1 PUSH2 0x40A8 JUMP JUMPDEST PUSH1 0x0 SHL SWAP1 POP DUP1 SWAP2 POP POP SWAP1 JUMP JUMPDEST PUSH1 0x0 PUSH20 0xFFFFFFFFFFFFFFFFFFFFFFFFFFFFFFFFFFFFFFFF AND DUP2 PUSH20 0xFFFFFFFFFFFFFFFFFFFFFFFFFFFFFFFFFFFFFFFF AND EQ PUSH2 0xEBC JUMPI DUP1 DUP3 PUSH1 0x0 ADD PUSH1 0x0 PUSH2 0x100 EXP DUP2 SLOAD DUP2 PUSH20 0xFFFFFFFFFFFFFFFFFFFFFFFFFFFFFFFFFFFFFFFF MUL NOT AND SWAP1 DUP4 PUSH20 0xFFFFFFFFFFFFFFFFFFFFFFFFFFFFFFFFFFFFFFFF AND MUL OR SWAP1 SSTORE POP DUP1 PUSH20 0xFFFFFFFFFFFFFFFFFFFFFFFFFFFFFFFFFFFFFFFF AND PUSH1 0x0 PUSH20 0xFFFFFFFFFFFFFFFFFFFFFFFFFFFFFFFFFFFFFFFF AND PUSH32 0x8BE0079C531659141344CD1FD0A4F28419497F9722A3DAAFE3B4186F6B6457E0 PUSH1 0x40 MLOAD PUSH1 0x40 MLOAD DUP1 SWAP2 SUB SWAP1 LOG3 JUMPDEST PUSH2 0xEF9 PUSH32 0x7F5828D000000000000000000000000000000000000000000000000000000000 PUSH1 0x1 PUSH2 0xEEA PUSH2 0x1152 JUMP JUMPDEST PUSH2 0x1191 SWAP1 SWAP3 SWAP2 SWAP1 PUSH4 0xFFFFFFFF AND JUMP JUMPDEST POP POP JUMP JUMPDEST PUSH2 0xF3A PUSH32 0x5190C92C00000000000000000000000000000000000000000000000000000000 PUSH1 0x1 PUSH2 0xF2B PUSH2 0x1152 JUMP JUMPDEST PUSH2 0x1191 SWAP1 SWAP3 SWAP2 SWAP1 PUSH4 0xFFFFFFFF AND JUMP JUMPDEST JUMP JUMPDEST PUSH2 0xF79 PUSH32 0x921ED8D100000000000000000000000000000000000000000000000000000000 PUSH1 0x1 PUSH2 0xF6A PUSH2 0x1152 JUMP JUMPDEST PUSH2 0x1191 SWAP1 SWAP3 SWAP2 SWAP1 PUSH4 0xFFFFFFFF AND JUMP JUMPDEST JUMP JUMPDEST PUSH1 0x0 DUP1 PUSH1 0x1 PUSH32 0x186A05F63B1553398AD5EA3233C0CE68B8C9EECC47717F123C5C2B42FBD6D9F PUSH1 0x0 SHR PUSH2 0xFAE SWAP2 SWAP1 PUSH2 0x40A8 JUMP JUMPDEST PUSH1 0x0 SHL SWAP1 POP DUP1 SWAP2 POP POP SWAP1 JUMP JUMPDEST DUP1 ISZERO PUSH2 0x100A JUMPI PUSH1 0x1 DUP3 PUSH1 0x0 ADD PUSH1 0x0 PUSH2 0x100 EXP DUP2 SLOAD DUP2 PUSH1 0xFF MUL NOT AND SWAP1 DUP4 ISZERO ISZERO MUL OR SWAP1 SSTORE POP PUSH32 0x9E87FAC88FF661F02D44F95383C817FECE4BCE600A3DAB7A54406878B965E752 PUSH1 0x40 MLOAD PUSH1 0x40 MLOAD DUP1 SWAP2 SUB SWAP1 LOG1 JUMPDEST POP POP JUMP JUMPDEST PUSH2 0x104B PUSH32 0xE89341C00000000000000000000000000000000000000000000000000000000 PUSH1 0x1 PUSH2 0x103C PUSH2 0x1152 JUMP JUMPDEST PUSH2 0x1191 SWAP1 SWAP3 SWAP2 SWAP1 PUSH4 0xFFFFFFFF AND JUMP JUMPDEST JUMP JUMPDEST PUSH1 0x0 DUP1 PUSH1 0x1 PUSH32 0xC8827D3282AF6F37B64C3E9E6F3AC9DF286AB0BB0FCCD6F8661BF19ADB368B23 PUSH1 0x0 SHR PUSH2 0x1080 SWAP2 SWAP1 PUSH2 0x40A8 JUMP JUMPDEST PUSH1 0x0 SHL SWAP1 POP DUP1 SWAP2 POP POP SWAP1 JUMP JUMPDEST PUSH2 0x10A1 DUP4 DUP4 DUP7 PUSH2 0x1288 SWAP1 SWAP3 SWAP2 SWAP1 PUSH4 0xFFFFFFFF AND JUMP JUMPDEST PUSH2 0x114C JUMPI PUSH1 0x1 DUP5 PUSH1 0x0 ADD PUSH1 0x0 DUP6 DUP2 MSTORE PUSH1 0x20 ADD SWAP1 DUP2 MSTORE PUSH1 0x20 ADD PUSH1 0x0 KECCAK256 PUSH1 0x0 DUP5 PUSH20 0xFFFFFFFFFFFFFFFFFFFFFFFFFFFFFFFFFFFFFFFF AND PUSH20 0xFFFFFFFFFFFFFFFFFFFFFFFFFFFFFFFFFFFFFFFF AND DUP2 MSTORE PUSH1 0x20 ADD SWAP1 DUP2 MSTORE PUSH1 0x20 ADD PUSH1 0x0 KECCAK256 PUSH1 0x0 PUSH2 0x100 EXP DUP2 SLOAD DUP2 PUSH1 0xFF MUL NOT AND SWAP1 DUP4 ISZERO ISZERO MUL OR SWAP1 SSTORE POP PUSH32 0x2F8788117E7EFF1D82E926EC794901D17C78024A50270940304540A733656F0D DUP4 DUP4 DUP4 PUSH1 0x40 MLOAD PUSH2 0x1143 SWAP4 SWAP3 SWAP2 SWAP1 PUSH2 0x40DC JUMP JUMPDEST PUSH1 0x40 MLOAD DUP1 SWAP2 SUB SWAP1 LOG1 JUMPDEST POP POP POP POP JUMP JUMPDEST PUSH1 0x0 DUP1 PUSH1 0x1 PUSH32 0xCA9D3E17F264B0F3984E2634E94ADB37FA3E6A8103F06AEAE6FA59E21C769F5E PUSH1 0x0 SHR PUSH2 0x1185 SWAP2 SWAP1 PUSH2 0x40A8 JUMP JUMPDEST PUSH1 0x0 SHL SWAP1 POP DUP1 SWAP2 POP POP SWAP1 JUMP JUMPDEST PUSH4 0xFFFFFFFF PUSH1 0xE0 SHL PUSH28 0xFFFFFFFFFFFFFFFFFFFFFFFFFFFFFFFFFFFFFFFFFFFFFFFFFFFFFFFF NOT AND DUP3 PUSH28 0xFFFFFFFFFFFFFFFFFFFFFFFFFFFFFFFFFFFFFFFFFFFFFFFFFFFFFFFF NOT AND SUB PUSH2 0x1218 JUMPI PUSH1 0x40 MLOAD PUSH32 0x8C379A000000000000000000000000000000000000000000000000000000000 DUP2 MSTORE PUSH1 0x4 ADD PUSH2 0x120F SWAP1 PUSH2 0x415F JUMP JUMPDEST PUSH1 0x40 MLOAD DUP1 SWAP2 SUB SWAP1 REVERT JUMPDEST DUP1 DUP4 PUSH1 0x0 ADD PUSH1 0x0 DUP5 PUSH28 0xFFFFFFFFFFFFFFFFFFFFFFFFFFFFFFFFFFFFFFFFFFFFFFFFFFFFFFFF NOT AND PUSH28 0xFFFFFFFFFFFFFFFFFFFFFFFFFFFFFFFFFFFFFFFFFFFFFFFFFFFFFFFF NOT AND DUP2 MSTORE PUSH1 0x20 ADD SWAP1 DUP2 MSTORE PUSH1 0x20 ADD PUSH1 0x0 KECCAK256 PUSH1 0x0 PUSH2 0x100 EXP DUP2 SLOAD DUP2 PUSH1 0xFF MUL NOT AND SWAP1 DUP4 ISZERO ISZERO MUL OR SWAP1 SSTORE POP POP POP POP JUMP JUMPDEST PUSH1 0x0 DUP4 PUSH1 0x0 ADD PUSH1 0x0 DUP5 DUP2 MSTORE PUSH1 0x20 ADD SWAP1 DUP2 MSTORE PUSH1 0x20 ADD PUSH1 0x0 KECCAK256 PUSH1 0x0 DUP4 PUSH20 0xFFFFFFFFFFFFFFFFFFFFFFFFFFFFFFFFFFFFFFFF AND PUSH20 0xFFFFFFFFFFFFFFFFFFFFFFFFFFFFFFFFFFFFFFFF AND DUP2 MSTORE PUSH1 0x20 ADD SWAP1 DUP2 MSTORE PUSH1 0x20 ADD PUSH1 0x0 KECCAK256 PUSH1 0x0 SWAP1 SLOAD SWAP1 PUSH2 0x100 EXP SWAP1 DIV PUSH1 0xFF AND SWAP1 POP SWAP4 SWAP3 POP POP POP JUMP JUMPDEST PUSH1 0x0 DUP1 PUSH1 0x1 PUSH32 0x5CCF5846FA27A68FAFC8E588671A68F5E67C2F9B56AF4263806A4D71735E8613 PUSH1 0x0 SHR PUSH2 0x1326 SWAP2 SWAP1 PUSH2 0x40A8 JUMP JUMPDEST PUSH1 0x0 SHL SWAP1 POP DUP1 SWAP2 POP POP SWAP1 JUMP JUMPDEST PUSH1 0x0 DUP1 PUSH20 0xFFFFFFFFFFFFFFFFFFFFFFFFFFFFFFFFFFFFFFFF AND DUP4 PUSH20 0xFFFFFFFFFFFFFFFFFFFFFFFFFFFFFFFFFFFFFFFF AND SUB PUSH2 0x13A2 JUMPI PUSH1 0x40 MLOAD PUSH32 0x8C379A000000000000000000000000000000000000000000000000000000000 DUP2 MSTORE PUSH1 0x4 ADD PUSH2 0x1399 SWAP1 PUSH2 0x41CB JUMP JUMPDEST PUSH1 0x40 MLOAD DUP1 SWAP2 SUB SWAP1 REVERT JUMPDEST DUP4 PUSH1 0x0 ADD PUSH1 0x0 DUP4 DUP2 MSTORE PUSH1 0x20 ADD SWAP1 DUP2 MSTORE PUSH1 0x20 ADD PUSH1 0x0 KECCAK256 PUSH1 0x0 DUP5 PUSH20 0xFFFFFFFFFFFFFFFFFFFFFFFFFFFFFFFFFFFFFFFF AND PUSH20 0xFFFFFFFFFFFFFFFFFFFFFFFFFFFFFFFFFFFFFFFF AND DUP2 MSTORE PUSH1 0x20 ADD SWAP1 DUP2 MSTORE PUSH1 0x20 ADD PUSH1 0x0 KECCAK256 SLOAD SWAP1 POP SWAP4 SWAP3 POP POP POP JUMP JUMPDEST PUSH1 0x0 PUSH4 0xFFFFFFFF PUSH1 0xE0 SHL PUSH28 0xFFFFFFFFFFFFFFFFFFFFFFFFFFFFFFFFFFFFFFFFFFFFFFFFFFFFFFFF NOT AND DUP3 PUSH28 0xFFFFFFFFFFFFFFFFFFFFFFFFFFFFFFFFFFFFFFFFFFFFFFFFFFFFFFFF NOT AND SUB PUSH2 0x1455 JUMPI PUSH1 0x0 SWAP1 POP PUSH2 0x1527 JUMP JUMPDEST PUSH32 0x1FFC9A700000000000000000000000000000000000000000000000000000000 PUSH28 0xFFFFFFFFFFFFFFFFFFFFFFFFFFFFFFFFFFFFFFFFFFFFFFFFFFFFFFFF NOT AND DUP3 PUSH28 0xFFFFFFFFFFFFFFFFFFFFFFFFFFFFFFFFFFFFFFFFFFFFFFFFFFFFFFFF NOT AND SUB PUSH2 0x14C3 JUMPI PUSH1 0x1 SWAP1 POP PUSH2 0x1527 JUMP JUMPDEST DUP3 PUSH1 0x0 ADD PUSH1 0x0 DUP4 PUSH28 0xFFFFFFFFFFFFFFFFFFFFFFFFFFFFFFFFFFFFFFFFFFFFFFFFFFFFFFFF NOT AND PUSH28 0xFFFFFFFFFFFFFFFFFFFFFFFFFFFFFFFFFFFFFFFFFFFFFFFFFFFFFFFF NOT AND DUP2 MSTORE PUSH1 0x20 ADD SWAP1 DUP2 MSTORE PUSH1 0x20 ADD PUSH1 0x0 KECCAK256 PUSH1 0x0 SWAP1 SLOAD SWAP1 PUSH2 0x100 EXP SWAP1 DIV PUSH1 0xFF AND SWAP1 POP JUMPDEST SWAP3 SWAP2 POP POP JUMP JUMPDEST PUSH1 0x0 CALLER SWAP1 POP SWAP1 JUMP JUMPDEST PUSH2 0x154A DUP3 DUP3 DUP6 PUSH2 0x1288 SWAP1 SWAP3 SWAP2 SWAP1 PUSH4 0xFFFFFFFF AND JUMP JUMPDEST PUSH2 0x15B2 JUMPI PUSH2 0x1557 DUP3 PUSH2 0x291B JUMP JUMPDEST PUSH1 0x40 MLOAD PUSH1 0x20 ADD PUSH2 0x1567 SWAP2 SWAP1 PUSH2 0x42BF JUMP JUMPDEST PUSH1 0x40 MLOAD PUSH1 0x20 DUP2 DUP4 SUB SUB DUP2 MSTORE SWAP1 PUSH1 0x40 MSTORE PUSH1 0x40 MLOAD PUSH32 0x8C379A000000000000000000000000000000000000000000000000000000000 DUP2 MSTORE PUSH1 0x4 ADD PUSH2 0x15A9 SWAP2 SWAP1 PUSH2 0x386F JUMP JUMPDEST PUSH1 0x40 MLOAD DUP1 SWAP2 SUB SWAP1 REVERT JUMPDEST POP POP POP JUMP JUMPDEST PUSH1 0x0 PUSH20 0xFFFFFFFFFFFFFFFFFFFFFFFFFFFFFFFFFFFFFFFF AND DUP5 PUSH20 0xFFFFFFFFFFFFFFFFFFFFFFFFFFFFFFFFFFFFFFFF AND SUB PUSH2 0x1626 JUMPI PUSH1 0x40 MLOAD PUSH32 0x8C379A000000000000000000000000000000000000000000000000000000000 DUP2 MSTORE PUSH1 0x4 ADD PUSH2 0x161D SWAP1 PUSH2 0x4338 JUMP JUMPDEST PUSH1 0x40 MLOAD DUP1 SWAP2 SUB SWAP1 REVERT JUMPDEST PUSH1 0x0 DUP4 MLOAD SWAP1 POP DUP3 MLOAD DUP2 EQ PUSH2 0x166F JUMPI PUSH1 0x40 MLOAD PUSH32 0x8C379A000000000000000000000000000000000000000000000000000000000 DUP2 MSTORE PUSH1 0x4 ADD PUSH2 0x1666 SWAP1 PUSH2 0x43A4 JUMP JUMPDEST PUSH1 0x40 MLOAD DUP1 SWAP2 SUB SWAP1 REVERT JUMPDEST PUSH1 0x0 JUMPDEST DUP2 DUP2 EQ PUSH2 0x16C4 JUMPI PUSH2 0x16B9 DUP9 DUP8 DUP8 DUP5 DUP2 MLOAD DUP2 LT PUSH2 0x1691 JUMPI PUSH2 0x1690 PUSH2 0x43C4 JUMP JUMPDEST JUMPDEST PUSH1 0x20 MUL PUSH1 0x20 ADD ADD MLOAD DUP8 DUP6 DUP2 MLOAD DUP2 LT PUSH2 0x16AC JUMPI PUSH2 0x16AB PUSH2 0x43C4 JUMP JUMPDEST JUMPDEST PUSH1 0x20 MUL PUSH1 0x20 ADD ADD MLOAD PUSH2 0x2A9C JUMP JUMPDEST DUP1 PUSH1 0x1 ADD SWAP1 POP PUSH2 0x1672 JUMP JUMPDEST POP DUP5 PUSH20 0xFFFFFFFFFFFFFFFFFFFFFFFFFFFFFFFFFFFFFFFF AND PUSH1 0x0 PUSH20 0xFFFFFFFFFFFFFFFFFFFFFFFFFFFFFFFFFFFFFFFF AND DUP8 PUSH20 0xFFFFFFFFFFFFFFFFFFFFFFFFFFFFFFFFFFFFFFFF AND PUSH32 0x4A39DC06D4C0DBC64B70AF90FD698A233A518AA5D07E595D983B8C0526C8F7FB DUP8 DUP8 PUSH1 0x40 MLOAD PUSH2 0x173C SWAP3 SWAP2 SWAP1 PUSH2 0x43F3 JUMP JUMPDEST PUSH1 0x40 MLOAD DUP1 SWAP2 SUB SWAP1 LOG4 PUSH2 0x1763 DUP6 PUSH20 0xFFFFFFFFFFFFFFFFFFFFFFFFFFFFFFFFFFFFFFFF AND PUSH2 0x2BA4 JUMP JUMPDEST ISZERO PUSH2 0x1778 JUMPI PUSH2 0x1777 DUP7 PUSH1 0x0 DUP8 DUP8 DUP8 DUP8 PUSH2 0x2BC7 JUMP JUMPDEST JUMPDEST POP POP POP POP POP POP POP JUMP JUMPDEST PUSH1 0x0 DUP1 PUSH1 0x1 PUSH32 0xE94434E3C6B941C5D90218142FADCC69CB2E13723993540BFA1C131DD1D3475A PUSH1 0x0 SHR PUSH2 0x17B4 SWAP2 SWAP1 PUSH2 0x40A8 JUMP JUMPDEST PUSH1 0x0 SHL SWAP1 POP DUP1 SWAP2 POP POP SWAP1 JUMP JUMPDEST PUSH1 0x60 DUP3 PUSH1 0x0 ADD PUSH2 0x17CF DUP4 PUSH2 0x2CD9 JUMP JUMPDEST PUSH1 0x40 MLOAD PUSH1 0x20 ADD PUSH2 0x17E0 SWAP3 SWAP2 SWAP1 PUSH2 0x4522 JUMP JUMPDEST PUSH1 0x40 MLOAD PUSH1 0x20 DUP2 DUP4 SUB SUB DUP2 MSTORE SWAP1 PUSH1 0x40 MSTORE SWAP1 POP SWAP3 SWAP2 POP POP JUMP JUMPDEST PUSH2 0x1802 DUP6 DUP5 DUP7 PUSH2 0x2DA7 JUMP JUMPDEST PUSH2 0x1841 JUMPI PUSH1 0x40 MLOAD PUSH32 0x8C379A000000000000000000000000000000000000000000000000000000000 DUP2 MSTORE PUSH1 0x4 ADD PUSH2 0x1838 SWAP1 PUSH2 0x4592 JUMP JUMPDEST PUSH1 0x40 MLOAD DUP1 SWAP2 SUB SWAP1 REVERT JUMPDEST PUSH2 0x184D DUP6 DUP5 DUP5 DUP5 PUSH2 0x2E74 JUMP JUMPDEST PUSH1 0x0 PUSH20 0xFFFFFFFFFFFFFFFFFFFFFFFFFFFFFFFFFFFFFFFF AND DUP4 PUSH20 0xFFFFFFFFFFFFFFFFFFFFFFFFFFFFFFFFFFFFFFFF AND DUP6 PUSH20 0xFFFFFFFFFFFFFFFFFFFFFFFFFFFFFFFFFFFFFFFF AND PUSH32 0xC3D58168C5AE7397731D063D5BBF3D657854427343F4C083240F7AACAA2D0F62 DUP6 DUP6 PUSH1 0x40 MLOAD PUSH2 0x18C4 SWAP3 SWAP2 SWAP1 PUSH2 0x45B2 JUMP JUMPDEST PUSH1 0x40 MLOAD DUP1 SWAP2 SUB SWAP1 LOG4 POP POP POP POP POP JUMP JUMPDEST PUSH1 0x0 PUSH20 0xFFFFFFFFFFFFFFFFFFFFFFFFFFFFFFFFFFFFFFFF AND DUP8 PUSH20 0xFFFFFFFFFFFFFFFFFFFFFFFFFFFFFFFFFFFFFFFF AND SUB PUSH2 0x1942 JUMPI PUSH1 0x40 MLOAD PUSH32 0x8C379A000000000000000000000000000000000000000000000000000000000 DUP2 MSTORE PUSH1 0x4 ADD PUSH2 0x1939 SWAP1 PUSH2 0x4627 JUMP JUMPDEST PUSH1 0x40 MLOAD DUP1 SWAP2 SUB SWAP1 REVERT JUMPDEST PUSH1 0x0 DUP7 DUP7 SWAP1 POP SWAP1 POP DUP5 DUP5 SWAP1 POP DUP2 EQ PUSH2 0x198F JUMPI PUSH1 0x40 MLOAD PUSH32 0x8C379A000000000000000000000000000000000000000000000000000000000 DUP2 MSTORE PUSH1 0x4 ADD PUSH2 0x1986 SWAP1 PUSH2 0x43A4 JUMP JUMPDEST PUSH1 0x40 MLOAD DUP1 SWAP2 SUB SWAP1 REVERT JUMPDEST PUSH2 0x199A DUP12 DUP11 DUP13 PUSH2 0x2DA7 JUMP JUMPDEST PUSH2 0x19D9 JUMPI PUSH1 0x40 MLOAD PUSH32 0x8C379A000000000000000000000000000000000000000000000000000000000 DUP2 MSTORE PUSH1 0x4 ADD PUSH2 0x19D0 SWAP1 PUSH2 0x4592 JUMP JUMPDEST PUSH1 0x40 MLOAD DUP1 SWAP2 SUB SWAP1 REVERT JUMPDEST PUSH1 0x0 JUMPDEST DUP2 DUP2 EQ PUSH2 0x1A2D JUMPI PUSH2 0x1A22 DUP13 DUP12 DUP12 DUP12 DUP12 DUP7 DUP2 DUP2 LT PUSH2 0x19FC JUMPI PUSH2 0x19FB PUSH2 0x43C4 JUMP JUMPDEST JUMPDEST SWAP1 POP PUSH1 0x20 MUL ADD CALLDATALOAD DUP11 DUP11 DUP8 DUP2 DUP2 LT PUSH2 0x1A16 JUMPI PUSH2 0x1A15 PUSH2 0x43C4 JUMP JUMPDEST JUMPDEST SWAP1 POP PUSH1 0x20 MUL ADD CALLDATALOAD PUSH2 0x2F7C JUMP JUMPDEST DUP1 PUSH1 0x1 ADD SWAP1 POP PUSH2 0x19DC JUMP JUMPDEST POP DUP8 PUSH20 0xFFFFFFFFFFFFFFFFFFFFFFFFFFFFFFFFFFFFFFFF AND DUP10 PUSH20 0xFFFFFFFFFFFFFFFFFFFFFFFFFFFFFFFFFFFFFFFF AND DUP12 PUSH20 0xFFFFFFFFFFFFFFFFFFFFFFFFFFFFFFFFFFFFFFFF AND PUSH32 0x4A39DC06D4C0DBC64B70AF90FD698A233A518AA5D07E595D983B8C0526C8F7FB DUP11 DUP11 DUP11 DUP11 PUSH1 0x40 MLOAD PUSH2 0x1AA8 SWAP5 SWAP4 SWAP3 SWAP2 SWAP1 PUSH2 0x46B1 JUMP JUMPDEST PUSH1 0x40 MLOAD DUP1 SWAP2 SUB SWAP1 LOG4 PUSH2 0x1ACF DUP9 PUSH20 0xFFFFFFFFFFFFFFFFFFFFFFFFFFFFFFFFFFFFFFFF AND PUSH2 0x2BA4 JUMP JUMPDEST ISZERO PUSH2 0x1BA9 JUMPI PUSH2 0x1BA8 DUP11 DUP11 DUP11 DUP11 DUP11 DUP1 DUP1 PUSH1 0x20 MUL PUSH1 0x20 ADD PUSH1 0x40 MLOAD SWAP1 DUP2 ADD PUSH1 0x40 MSTORE DUP1 SWAP4 SWAP3 SWAP2 SWAP1 DUP2 DUP2 MSTORE PUSH1 0x20 ADD DUP4 DUP4 PUSH1 0x20 MUL DUP1 DUP3 DUP5 CALLDATACOPY PUSH1 0x0 DUP2 DUP5 ADD MSTORE PUSH1 0x1F NOT PUSH1 0x1F DUP3 ADD AND SWAP1 POP DUP1 DUP4 ADD SWAP3 POP POP POP POP POP POP POP DUP10 DUP10 DUP1 DUP1 PUSH1 0x20 MUL PUSH1 0x20 ADD PUSH1 0x40 MLOAD SWAP1 DUP2 ADD PUSH1 0x40 MSTORE DUP1 SWAP4 SWAP3 SWAP2 SWAP1 DUP2 DUP2 MSTORE PUSH1 0x20 ADD DUP4 DUP4 PUSH1 0x20 MUL DUP1 DUP3 DUP5 CALLDATACOPY PUSH1 0x0 DUP2 DUP5 ADD MSTORE PUSH1 0x1F NOT PUSH1 0x1F DUP3 ADD AND SWAP1 POP DUP1 DUP4 ADD SWAP3 POP POP POP POP POP POP POP DUP9 DUP9 DUP1 DUP1 PUSH1 0x1F ADD PUSH1 0x20 DUP1 SWAP2 DIV MUL PUSH1 0x20 ADD PUSH1 0x40 MLOAD SWAP1 DUP2 ADD PUSH1 0x40 MSTORE DUP1 SWAP4 SWAP3 SWAP2 SWAP1 DUP2 DUP2 MSTORE PUSH1 0x20 ADD DUP4 DUP4 DUP1 DUP3 DUP5 CALLDATACOPY PUSH1 0x0 DUP2 DUP5 ADD MSTORE PUSH1 0x1F NOT PUSH1 0x1F DUP3 ADD AND SWAP1 POP DUP1 DUP4 ADD SWAP3 POP POP POP POP POP POP POP PUSH2 0x2BC7 JUMP JUMPDEST JUMPDEST POP POP POP POP POP POP POP POP POP POP POP JUMP JUMPDEST DUP2 PUSH1 0x0 ADD PUSH1 0x0 SWAP1 SLOAD SWAP1 PUSH2 0x100 EXP SWAP1 DIV PUSH20 0xFFFFFFFFFFFFFFFFFFFFFFFFFFFFFFFFFFFFFFFF AND PUSH20 0xFFFFFFFFFFFFFFFFFFFFFFFFFFFFFFFFFFFFFFFF AND DUP2 PUSH20 0xFFFFFFFFFFFFFFFFFFFFFFFFFFFFFFFFFFFFFFFF AND EQ PUSH2 0x1C48 JUMPI PUSH1 0x40 MLOAD PUSH32 0x8C379A000000000000000000000000000000000000000000000000000000000 DUP2 MSTORE PUSH1 0x4 ADD PUSH2 0x1C3F SWAP1 PUSH2 0x4738 JUMP JUMPDEST PUSH1 0x40 MLOAD DUP1 SWAP2 SUB SWAP1 REVERT JUMPDEST POP POP JUMP JUMPDEST PUSH2 0x1C55 DUP2 PUSH2 0x31B2 JUMP JUMPDEST PUSH1 0x0 DUP2 PUSH1 0x0 ADD PUSH1 0x0 PUSH2 0x100 EXP DUP2 SLOAD DUP2 PUSH1 0xFF MUL NOT AND SWAP1 DUP4 ISZERO ISZERO MUL OR SWAP1 SSTORE POP PUSH32 0xA45F47FDEA8A1EFDD9029A5691C7F759C32B7C698632B563573E155625D16933 PUSH1 0x40 MLOAD PUSH1 0x40 MLOAD DUP1 SWAP2 SUB SWAP1 LOG1 POP JUMP JUMPDEST PUSH1 0x60 PUSH1 0x0 DUP6 DUP6 SWAP1 POP SWAP1 POP DUP4 DUP4 SWAP1 POP DUP2 EQ PUSH2 0x1CF0 JUMPI PUSH1 0x40 MLOAD PUSH32 0x8C379A000000000000000000000000000000000000000000000000000000000 DUP2 MSTORE PUSH1 0x4 ADD PUSH2 0x1CE7 SWAP1 PUSH2 0x43A4 JUMP JUMPDEST PUSH1 0x40 MLOAD DUP1 SWAP2 SUB SWAP1 REVERT JUMPDEST DUP6 DUP6 SWAP1 POP PUSH8 0xFFFFFFFFFFFFFFFF DUP2 GT ISZERO PUSH2 0x1D0D JUMPI PUSH2 0x1D0C PUSH2 0x4758 JUMP JUMPDEST JUMPDEST PUSH1 0x40 MLOAD SWAP1 DUP1 DUP3 MSTORE DUP1 PUSH1 0x20 MUL PUSH1 0x20 ADD DUP3 ADD PUSH1 0x40 MSTORE DUP1 ISZERO PUSH2 0x1D3B JUMPI DUP2 PUSH1 0x20 ADD PUSH1 0x20 DUP3 MUL DUP1 CALLDATASIZE DUP4 CALLDATACOPY DUP1 DUP3 ADD SWAP2 POP POP SWAP1 POP JUMPDEST POP SWAP2 POP PUSH1 0x0 JUMPDEST DUP2 DUP2 EQ PUSH2 0x1DC7 JUMPI PUSH2 0x1D9D DUP8 DUP8 DUP4 DUP2 DUP2 LT PUSH2 0x1D5E JUMPI PUSH2 0x1D5D PUSH2 0x43C4 JUMP JUMPDEST JUMPDEST SWAP1 POP PUSH1 0x20 MUL ADD PUSH1 0x20 DUP2 ADD SWAP1 PUSH2 0x1D73 SWAP2 SWAP1 PUSH2 0x3A36 JUMP JUMPDEST DUP7 DUP7 DUP5 DUP2 DUP2 LT PUSH2 0x1D86 JUMPI PUSH2 0x1D85 PUSH2 0x43C4 JUMP JUMPDEST JUMPDEST SWAP1 POP PUSH1 0x20 MUL ADD CALLDATALOAD DUP11 PUSH2 0x1332 SWAP1 SWAP3 SWAP2 SWAP1 PUSH4 0xFFFFFFFF AND JUMP JUMPDEST DUP4 DUP3 DUP2 MLOAD DUP2 LT PUSH2 0x1DB0 JUMPI PUSH2 0x1DAF PUSH2 0x43C4 JUMP JUMPDEST JUMPDEST PUSH1 0x20 MUL PUSH1 0x20 ADD ADD DUP2 DUP2 MSTORE POP POP DUP1 PUSH1 0x1 ADD SWAP1 POP PUSH2 0x1D41 JUMP JUMPDEST POP POP SWAP6 SWAP5 POP POP POP POP POP JUMP JUMPDEST PUSH1 0x60 DUP2 PUSH1 0x0 ADD DUP1 SLOAD PUSH2 0x1DE3 SWAP1 PUSH2 0x4459 JUMP JUMPDEST DUP1 PUSH1 0x1F ADD PUSH1 0x20 DUP1 SWAP2 DIV MUL PUSH1 0x20 ADD PUSH1 0x40 MLOAD SWAP1 DUP2 ADD PUSH1 0x40 MSTORE DUP1 SWAP3 SWAP2 SWAP1 DUP2 DUP2 MSTORE PUSH1 0x20 ADD DUP3 DUP1 SLOAD PUSH2 0x1E0F SWAP1 PUSH2 0x4459 JUMP JUMPDEST DUP1 ISZERO PUSH2 0x1E5C JUMPI DUP1 PUSH1 0x1F LT PUSH2 0x1E31 JUMPI PUSH2 0x100 DUP1 DUP4 SLOAD DIV MUL DUP4 MSTORE SWAP2 PUSH1 0x20 ADD SWAP2 PUSH2 0x1E5C JUMP JUMPDEST DUP3 ADD SWAP2 SWAP1 PUSH1 0x0 MSTORE PUSH1 0x20 PUSH1 0x0 KECCAK256 SWAP1 JUMPDEST DUP2 SLOAD DUP2 MSTORE SWAP1 PUSH1 0x1 ADD SWAP1 PUSH1 0x20 ADD DUP1 DUP4 GT PUSH2 0x1E3F JUMPI DUP3 SWAP1 SUB PUSH1 0x1F AND DUP3 ADD SWAP2 JUMPDEST POP POP POP POP POP SWAP1 POP SWAP2 SWAP1 POP JUMP JUMPDEST PUSH1 0x0 DUP2 PUSH1 0x0 ADD PUSH1 0x0 SWAP1 SLOAD SWAP1 PUSH2 0x100 EXP SWAP1 DIV PUSH1 0xFF AND SWAP1 POP SWAP2 SWAP1 POP JUMP JUMPDEST DUP1 PUSH1 0x0 ADD PUSH1 0x0 SWAP1 SLOAD SWAP1 PUSH2 0x100 EXP SWAP1 DIV PUSH1 0xFF AND ISZERO PUSH2 0x1ED5 JUMPI PUSH1 0x40 MLOAD PUSH32 0x8C379A000000000000000000000000000000000000000000000000000000000 DUP2 MSTORE PUSH1 0x4 ADD PUSH2 0x1ECC SWAP1 PUSH2 0x47D3 JUMP JUMPDEST PUSH1 0x40 MLOAD DUP1 SWAP2 SUB SWAP1 REVERT JUMPDEST POP JUMP JUMPDEST PUSH1 0x0 PUSH20 0xFFFFFFFFFFFFFFFFFFFFFFFFFFFFFFFFFFFFFFFF AND DUP5 PUSH20 0xFFFFFFFFFFFFFFFFFFFFFFFFFFFFFFFFFFFFFFFF AND SUB PUSH2 0x1F47 JUMPI PUSH1 0x40 MLOAD PUSH32 0x8C379A000000000000000000000000000000000000000000000000000000000 DUP2 MSTORE PUSH1 0x4 ADD PUSH2 0x1F3E SWAP1 PUSH2 0x4338 JUMP JUMPDEST PUSH1 0x40 MLOAD DUP1 SWAP2 SUB SWAP1 REVERT JUMPDEST PUSH2 0x1F53 DUP7 DUP6 DUP6 DUP6 PUSH2 0x2A9C JUMP JUMPDEST DUP4 PUSH20 0xFFFFFFFFFFFFFFFFFFFFFFFFFFFFFFFFFFFFFFFF AND PUSH1 0x0 PUSH20 0xFFFFFFFFFFFFFFFFFFFFFFFFFFFFFFFFFFFFFFFF AND DUP7 PUSH20 0xFFFFFFFFFFFFFFFFFFFFFFFFFFFFFFFFFFFFFFFF AND PUSH32 0xC3D58168C5AE7397731D063D5BBF3D657854427343F4C083240F7AACAA2D0F62 DUP7 DUP7 PUSH1 0x40 MLOAD PUSH2 0x1FCA SWAP3 SWAP2 SWAP1 PUSH2 0x45B2 JUMP JUMPDEST PUSH1 0x40 MLOAD DUP1 SWAP2 SUB SWAP1 LOG4 PUSH2 0x1FF1 DUP5 PUSH20 0xFFFFFFFFFFFFFFFFFFFFFFFFFFFFFFFFFFFFFFFF AND PUSH2 0x2BA4 JUMP JUMPDEST ISZERO PUSH2 0x2006 JUMPI PUSH2 0x2005 DUP6 PUSH1 0x0 DUP7 DUP7 DUP7 DUP7 PUSH2 0x3206 JUMP JUMPDEST JUMPDEST POP POP POP POP POP POP JUMP JUMPDEST DUP2 DUP2 DUP5 PUSH1 0x0 ADD SWAP2 DUP3 PUSH2 0x2021 SWAP3 SWAP2 SWAP1 PUSH2 0x4995 JUMP JUMPDEST POP PUSH32 0x4B1DC5C136A3CE9FDED8DB0CE3D3366C58764EC3A8E4C2B9E52E4DDFE5EBBF7 DUP3 DUP3 PUSH1 0x40 MLOAD PUSH2 0x2053 SWAP3 SWAP2 SWAP1 PUSH2 0x4AA1 JUMP JUMPDEST PUSH1 0x40 MLOAD DUP1 SWAP2 SUB SWAP1 LOG1 POP POP POP JUMP JUMPDEST PUSH1 0x0 DUP5 DUP5 SWAP1 POP SWAP1 POP DUP3 DUP3 SWAP1 POP DUP2 EQ PUSH2 0x20AD JUMPI PUSH1 0x40 MLOAD PUSH32 0x8C379A000000000000000000000000000000000000000000000000000000000 DUP2 MSTORE PUSH1 0x4 ADD PUSH2 0x20A4 SWAP1 PUSH2 0x43A4 JUMP JUMPDEST PUSH1 0x40 MLOAD DUP1 SWAP2 SUB SWAP1 REVERT JUMPDEST PUSH2 0x20B8 DUP9 DUP8 DUP10 PUSH2 0x2DA7 JUMP JUMPDEST PUSH2 0x20F7 JUMPI PUSH1 0x40 MLOAD PUSH32 0x8C379A000000000000000000000000000000000000000000000000000000000 DUP2 MSTORE PUSH1 0x4 ADD PUSH2 0x20EE SWAP1 PUSH2 0x4592 JUMP JUMPDEST PUSH1 0x40 MLOAD DUP1 SWAP2 SUB SWAP1 REVERT JUMPDEST PUSH1 0x0 JUMPDEST DUP2 DUP2 EQ PUSH2 0x214A JUMPI PUSH2 0x213F DUP10 DUP9 DUP9 DUP9 DUP6 DUP2 DUP2 LT PUSH2 0x2119 JUMPI PUSH2 0x2118 PUSH2 0x43C4 JUMP JUMPDEST JUMPDEST SWAP1 POP PUSH1 0x20 MUL ADD CALLDATALOAD DUP8 DUP8 DUP7 DUP2 DUP2 LT PUSH2 0x2133 JUMPI PUSH2 0x2132 PUSH2 0x43C4 JUMP JUMPDEST JUMPDEST SWAP1 POP PUSH1 0x20 MUL ADD CALLDATALOAD PUSH2 0x2E74 JUMP JUMPDEST DUP1 PUSH1 0x1 ADD SWAP1 POP PUSH2 0x20FA JUMP JUMPDEST POP PUSH1 0x0 PUSH20 0xFFFFFFFFFFFFFFFFFFFFFFFFFFFFFFFFFFFFFFFF AND DUP7 PUSH20 0xFFFFFFFFFFFFFFFFFFFFFFFFFFFFFFFFFFFFFFFF AND DUP9 PUSH20 0xFFFFFFFFFFFFFFFFFFFFFFFFFFFFFFFFFFFFFFFF AND PUSH32 0x4A39DC06D4C0DBC64B70AF90FD698A233A518AA5D07E595D983B8C0526C8F7FB DUP9 DUP9 DUP9 DUP9 PUSH1 0x40 MLOAD PUSH2 0x21C6 SWAP5 SWAP4 SWAP3 SWAP2 SWAP1 PUSH2 0x46B1 JUMP JUMPDEST PUSH1 0x40 MLOAD DUP1 SWAP2 SUB SWAP1 LOG4 POP POP POP POP POP POP POP POP JUMP JUMPDEST PUSH2 0x21E1 DUP2 PUSH2 0x1E83 JUMP JUMPDEST PUSH1 0x1 DUP2 PUSH1 0x0 ADD PUSH1 0x0 PUSH2 0x100 EXP DUP2 SLOAD DUP2 PUSH1 0xFF MUL NOT AND SWAP1 DUP4 ISZERO ISZERO MUL OR SWAP1 SSTORE POP PUSH32 0x9E87FAC88FF661F02D44F95383C817FECE4BCE600A3DAB7A54406878B965E752 PUSH1 0x40 MLOAD PUSH1 0x40 MLOAD DUP1 SWAP2 SUB SWAP1 LOG1 POP JUMP JUMPDEST PUSH2 0x2242 DUP2 DUP4 DUP6 PUSH2 0x1535 SWAP1 SWAP3 SWAP2 SWAP1 PUSH4 0xFFFFFFFF AND JUMP JUMPDEST PUSH1 0x0 DUP4 PUSH1 0x0 ADD PUSH1 0x0 DUP4 DUP2 MSTORE PUSH1 0x20 ADD SWAP1 DUP2 MSTORE PUSH1 0x20 ADD PUSH1 0x0 KECCAK256 PUSH1 0x0 DUP5 PUSH20 0xFFFFFFFFFFFFFFFFFFFFFFFFFFFFFFFFFFFFFFFF AND PUSH20 0xFFFFFFFFFFFFFFFFFFFFFFFFFFFFFFFFFFFFFFFF AND DUP2 MSTORE PUSH1 0x20 ADD SWAP1 DUP2 MSTORE PUSH1 0x20 ADD PUSH1 0x0 KECCAK256 PUSH1 0x0 PUSH2 0x100 EXP DUP2 SLOAD DUP2 PUSH1 0xFF MUL NOT AND SWAP1 DUP4 ISZERO ISZERO MUL OR SWAP1 SSTORE POP PUSH32 0xF6391F5C32D9C69D2A47EA670B442974B53935D1EDC7FD64EB21E047A839171B DUP2 DUP4 DUP5 PUSH1 0x40 MLOAD PUSH2 0x22E0 SWAP4 SWAP3 SWAP2 SWAP1 PUSH2 0x40DC JUMP JUMPDEST PUSH1 0x40 MLOAD DUP1 SWAP2 SUB SWAP1 LOG1 POP POP POP JUMP JUMPDEST PUSH1 0x0 DUP2 PUSH1 0x0 ADD PUSH1 0x0 SWAP1 SLOAD SWAP1 PUSH2 0x100 EXP SWAP1 DIV PUSH20 0xFFFFFFFFFFFFFFFFFFFFFFFFFFFFFFFFFFFFFFFF AND SWAP1 POP SWAP2 SWAP1 POP JUMP JUMPDEST DUP3 PUSH20 0xFFFFFFFFFFFFFFFFFFFFFFFFFFFFFFFFFFFFFFFF AND DUP3 PUSH20 0xFFFFFFFFFFFFFFFFFFFFFFFFFFFFFFFFFFFFFFFF AND SUB PUSH2 0x2389 JUMPI PUSH1 0x40 MLOAD PUSH32 0x8C379A000000000000000000000000000000000000000000000000000000000 DUP2 MSTORE PUSH1 0x4 ADD PUSH2 0x2380 SWAP1 PUSH2 0x4B11 JUMP JUMPDEST PUSH1 0x40 MLOAD DUP1 SWAP2 SUB SWAP1 REVERT JUMPDEST DUP1 DUP5 PUSH1 0x1 ADD PUSH1 0x0 DUP6 PUSH20 0xFFFFFFFFFFFFFFFFFFFFFFFFFFFFFFFFFFFFFFFF AND PUSH20 0xFFFFFFFFFFFFFFFFFFFFFFFFFFFFFFFFFFFFFFFF AND DUP2 MSTORE PUSH1 0x20 ADD SWAP1 DUP2 MSTORE PUSH1 0x20 ADD PUSH1 0x0 KECCAK256 PUSH1 0x0 DUP5 PUSH20 0xFFFFFFFFFFFFFFFFFFFFFFFFFFFFFFFFFFFFFFFF AND PUSH20 0xFFFFFFFFFFFFFFFFFFFFFFFFFFFFFFFFFFFFFFFF AND DUP2 MSTORE PUSH1 0x20 ADD SWAP1 DUP2 MSTORE PUSH1 0x20 ADD PUSH1 0x0 KECCAK256 PUSH1 0x0 PUSH2 0x100 EXP DUP2 SLOAD DUP2 PUSH1 0xFF MUL NOT AND SWAP1 DUP4 ISZERO ISZERO MUL OR SWAP1 SSTORE POP DUP2 PUSH20 0xFFFFFFFFFFFFFFFFFFFFFFFFFFFFFFFFFFFFFFFF AND DUP4 PUSH20 0xFFFFFFFFFFFFFFFFFFFFFFFFFFFFFFFFFFFFFFFF AND PUSH32 0x17307EAB39AB6107E8899845AD3D59BD9653F200F220920489CA2B5937696C31 DUP4 PUSH1 0x40 MLOAD PUSH2 0x247C SWAP2 SWAP1 PUSH2 0x3613 JUMP JUMPDEST PUSH1 0x40 MLOAD DUP1 SWAP2 SUB SWAP1 LOG3 POP POP POP POP JUMP JUMPDEST PUSH2 0x249F DUP4 DUP4 DUP7 PUSH2 0x1288 SWAP1 SWAP3 SWAP2 SWAP1 PUSH4 0xFFFFFFFF AND JUMP JUMPDEST ISZERO PUSH2 0x254B JUMPI PUSH1 0x0 DUP5 PUSH1 0x0 ADD PUSH1 0x0 DUP6 DUP2 MSTORE PUSH1 0x20 ADD SWAP1 DUP2 MSTORE PUSH1 0x20 ADD PUSH1 0x0 KECCAK256 PUSH1 0x0 DUP5 PUSH20 0xFFFFFFFFFFFFFFFFFFFFFFFFFFFFFFFFFFFFFFFF AND PUSH20 0xFFFFFFFFFFFFFFFFFFFFFFFFFFFFFFFFFFFFFFFF AND DUP2 MSTORE PUSH1 0x20 ADD SWAP1 DUP2 MSTORE PUSH1 0x20 ADD PUSH1 0x0 KECCAK256 PUSH1 0x0 PUSH2 0x100 EXP DUP2 SLOAD DUP2 PUSH1 0xFF MUL NOT AND SWAP1 DUP4 ISZERO ISZERO MUL OR SWAP1 SSTORE POP PUSH32 0xF6391F5C32D9C69D2A47EA670B442974B53935D1EDC7FD64EB21E047A839171B DUP4 DUP4 DUP4 PUSH1 0x40 MLOAD PUSH2 0x2542 SWAP4 SWAP3 SWAP2 SWAP1 PUSH2 0x40DC JUMP JUMPDEST PUSH1 0x40 MLOAD DUP1 SWAP2 SUB SWAP1 LOG1 JUMPDEST POP POP POP POP JUMP JUMPDEST PUSH1 0x0 DUP4 PUSH1 0x1 ADD PUSH1 0x0 DUP5 PUSH20 0xFFFFFFFFFFFFFFFFFFFFFFFFFFFFFFFFFFFFFFFF AND PUSH20 0xFFFFFFFFFFFFFFFFFFFFFFFFFFFFFFFFFFFFFFFF AND DUP2 MSTORE PUSH1 0x20 ADD SWAP1 DUP2 MSTORE PUSH1 0x20 ADD PUSH1 0x0 KECCAK256 PUSH1 0x0 DUP4 PUSH20 0xFFFFFFFFFFFFFFFFFFFFFFFFFFFFFFFFFFFFFFFF AND PUSH20 0xFFFFFFFFFFFFFFFFFFFFFFFFFFFFFFFFFFFFFFFF AND DUP2 MSTORE PUSH1 0x20 ADD SWAP1 DUP2 MSTORE PUSH1 0x20 ADD PUSH1 0x0 KECCAK256 PUSH1 0x0 SWAP1 SLOAD SWAP1 PUSH2 0x100 EXP SWAP1 DIV PUSH1 0xFF AND SWAP1 POP SWAP4 SWAP3 POP POP POP JUMP JUMPDEST PUSH1 0x0 PUSH20 0xFFFFFFFFFFFFFFFFFFFFFFFFFFFFFFFFFFFFFFFF AND DUP6 PUSH20 0xFFFFFFFFFFFFFFFFFFFFFFFFFFFFFFFFFFFFFFFF AND SUB PUSH2 0x2657 JUMPI PUSH1 0x40 MLOAD PUSH32 0x8C379A000000000000000000000000000000000000000000000000000000000 DUP2 MSTORE PUSH1 0x4 ADD PUSH2 0x264E SWAP1 PUSH2 0x4627 JUMP JUMPDEST PUSH1 0x40 MLOAD DUP1 SWAP2 SUB SWAP1 REVERT JUMPDEST PUSH2 0x2662 DUP9 DUP8 DUP10 PUSH2 0x2DA7 JUMP JUMPDEST PUSH2 0x26A1 JUMPI PUSH1 0x40 MLOAD PUSH32 0x8C379A000000000000000000000000000000000000000000000000000000000 DUP2 MSTORE PUSH1 0x4 ADD PUSH2 0x2698 SWAP1 PUSH2 0x4592 JUMP JUMPDEST PUSH1 0x40 MLOAD DUP1 SWAP2 SUB SWAP1 REVERT JUMPDEST PUSH2 0x26AE DUP9 DUP8 DUP8 DUP8 DUP8 PUSH2 0x2F7C JUMP JUMPDEST DUP5 PUSH20 0xFFFFFFFFFFFFFFFFFFFFFFFFFFFFFFFFFFFFFFFF AND DUP7 PUSH20 0xFFFFFFFFFFFFFFFFFFFFFFFFFFFFFFFFFFFFFFFF AND DUP9 PUSH20 0xFFFFFFFFFFFFFFFFFFFFFFFFFFFFFFFFFFFFFFFF AND PUSH32 0xC3D58168C5AE7397731D063D5BBF3D657854427343F4C083240F7AACAA2D0F62 DUP8 DUP8 PUSH1 0x40 MLOAD PUSH2 0x2724 SWAP3 SWAP2 SWAP1 PUSH2 0x45B2 JUMP JUMPDEST PUSH1 0x40 MLOAD DUP1 SWAP2 SUB SWAP1 LOG4 PUSH2 0x274B DUP6 PUSH20 0xFFFFFFFFFFFFFFFFFFFFFFFFFFFFFFFFFFFFFFFF AND PUSH2 0x2BA4 JUMP JUMPDEST ISZERO PUSH2 0x27A3 JUMPI PUSH2 0x27A2 DUP8 DUP8 DUP8 DUP8 DUP8 DUP8 DUP8 DUP1 DUP1 PUSH1 0x1F ADD PUSH1 0x20 DUP1 SWAP2 DIV MUL PUSH1 0x20 ADD PUSH1 0x40 MLOAD SWAP1 DUP2 ADD PUSH1 0x40 MSTORE DUP1 SWAP4 SWAP3 SWAP2 SWAP1 DUP2 DUP2 MSTORE PUSH1 0x20 ADD DUP4 DUP4 DUP1 DUP3 DUP5 CALLDATACOPY PUSH1 0x0 DUP2 DUP5 ADD MSTORE PUSH1 0x1F NOT PUSH1 0x1F DUP3 ADD AND SWAP1 POP DUP1 DUP4 ADD SWAP3 POP POP POP POP POP POP POP PUSH2 0x3206 JUMP JUMPDEST JUMPDEST POP POP POP POP POP POP POP POP JUMP JUMPDEST PUSH1 0x0 DUP4 PUSH1 0x0 ADD PUSH1 0x0 SWAP1 SLOAD SWAP1 PUSH2 0x100 EXP SWAP1 DIV PUSH20 0xFFFFFFFFFFFFFFFFFFFFFFFFFFFFFFFFFFFFFFFF AND SWAP1 POP DUP1 PUSH20 0xFFFFFFFFFFFFFFFFFFFFFFFFFFFFFFFFFFFFFFFF AND DUP4 PUSH20 0xFFFFFFFFFFFFFFFFFFFFFFFFFFFFFFFFFFFFFFFF AND EQ PUSH2 0x2844 JUMPI PUSH1 0x40 MLOAD PUSH32 0x8C379A000000000000000000000000000000000000000000000000000000000 DUP2 MSTORE PUSH1 0x4 ADD PUSH2 0x283B SWAP1 PUSH2 0x4738 JUMP JUMPDEST PUSH1 0x40 MLOAD DUP1 SWAP2 SUB SWAP1 REVERT JUMPDEST DUP2 PUSH20 0xFFFFFFFFFFFFFFFFFFFFFFFFFFFFFFFFFFFFFFFF AND DUP2 PUSH20 0xFFFFFFFFFFFFFFFFFFFFFFFFFFFFFFFFFFFFFFFF AND EQ PUSH2 0x2915 JUMPI DUP2 DUP5 PUSH1 0x0 ADD PUSH1 0x0 PUSH2 0x100 EXP DUP2 SLOAD DUP2 PUSH20 0xFFFFFFFFFFFFFFFFFFFFFFFFFFFFFFFFFFFFFFFF MUL NOT AND SWAP1 DUP4 PUSH20 0xFFFFFFFFFFFFFFFFFFFFFFFFFFFFFFFFFFFFFFFF AND MUL OR SWAP1 SSTORE POP DUP2 PUSH20 0xFFFFFFFFFFFFFFFFFFFFFFFFFFFFFFFFFFFFFFFF AND DUP2 PUSH20 0xFFFFFFFFFFFFFFFFFFFFFFFFFFFFFFFFFFFFFFFF AND PUSH32 0x8BE0079C531659141344CD1FD0A4F28419497F9722A3DAAFE3B4186F6B6457E0 PUSH1 0x40 MLOAD PUSH1 0x40 MLOAD DUP1 SWAP2 SUB SWAP1 LOG3 JUMPDEST POP POP POP POP JUMP JUMPDEST PUSH1 0x60 PUSH1 0x0 DUP1 SHL DUP3 SUB PUSH2 0x293E JUMPI PUSH1 0x40 MLOAD DUP1 PUSH1 0x20 ADD PUSH1 0x40 MSTORE DUP1 PUSH1 0x0 DUP2 MSTORE POP SWAP1 POP PUSH2 0x2A97 JUMP JUMPDEST PUSH1 0x0 DUP3 PUSH1 0x40 MLOAD PUSH1 0x20 ADD PUSH2 0x2951 SWAP2 SWAP1 PUSH2 0x4B52 JUMP JUMPDEST PUSH1 0x40 MLOAD PUSH1 0x20 DUP2 DUP4 SUB SUB DUP2 MSTORE SWAP1 PUSH1 0x40 MSTORE SWAP1 POP PUSH1 0x0 PUSH1 0x1F SWAP1 POP JUMPDEST PUSH1 0x1 ISZERO PUSH2 0x29C6 JUMPI PUSH1 0x0 PUSH1 0xF8 SHL DUP3 DUP3 DUP2 MLOAD DUP2 LT PUSH2 0x2988 JUMPI PUSH2 0x2987 PUSH2 0x43C4 JUMP JUMPDEST JUMPDEST PUSH1 0x20 ADD ADD MLOAD PUSH1 0xF8 SHR PUSH1 0xF8 SHL PUSH31 0xFFFFFFFFFFFFFFFFFFFFFFFFFFFFFFFFFFFFFFFFFFFFFFFFFFFFFFFFFFFFFF NOT AND SUB PUSH2 0x29C6 JUMPI DUP1 PUSH1 0x1 SWAP1 SUB SWAP1 POP PUSH2 0x2969 JUMP JUMPDEST PUSH1 0x0 PUSH1 0x1 DUP3 ADD PUSH8 0xFFFFFFFFFFFFFFFF DUP2 GT ISZERO PUSH2 0x29E5 JUMPI PUSH2 0x29E4 PUSH2 0x4758 JUMP JUMPDEST JUMPDEST PUSH1 0x40 MLOAD SWAP1 DUP1 DUP3 MSTORE DUP1 PUSH1 0x1F ADD PUSH1 0x1F NOT AND PUSH1 0x20 ADD DUP3 ADD PUSH1 0x40 MSTORE DUP1 ISZERO PUSH2 0x2A17 JUMPI DUP2 PUSH1 0x20 ADD PUSH1 0x1 DUP3 MUL DUP1 CALLDATASIZE DUP4 CALLDATACOPY DUP1 DUP3 ADD SWAP2 POP POP SWAP1 POP JUMPDEST POP SWAP1 POP PUSH1 0x0 JUMPDEST DUP3 DUP2 GT PUSH2 0x2A8F JUMPI DUP4 DUP2 DUP2 MLOAD DUP2 LT PUSH2 0x2A37 JUMPI PUSH2 0x2A36 PUSH2 0x43C4 JUMP JUMPDEST JUMPDEST PUSH1 0x20 ADD ADD MLOAD PUSH1 0xF8 SHR PUSH1 0xF8 SHL DUP3 DUP3 DUP2 MLOAD DUP2 LT PUSH2 0x2A55 JUMPI PUSH2 0x2A54 PUSH2 0x43C4 JUMP JUMPDEST JUMPDEST PUSH1 0x20 ADD ADD SWAP1 PUSH31 0xFFFFFFFFFFFFFFFFFFFFFFFFFFFFFFFFFFFFFFFFFFFFFFFFFFFFFFFFFFFFFF NOT AND SWAP1 DUP2 PUSH1 0x0 BYTE SWAP1 MSTORE8 POP DUP1 PUSH1 0x1 ADD SWAP1 POP PUSH2 0x2A1D JUMP JUMPDEST POP DUP1 SWAP4 POP POP POP POP JUMPDEST SWAP2 SWAP1 POP JUMP JUMPDEST PUSH1 0x0 DUP2 EQ PUSH2 0x2B9E JUMPI PUSH1 0x0 DUP5 PUSH1 0x0 ADD PUSH1 0x0 DUP5 DUP2 MSTORE PUSH1 0x20 ADD SWAP1 DUP2 MSTORE PUSH1 0x20 ADD PUSH1 0x0 KECCAK256 PUSH1 0x0 DUP6 PUSH20 0xFFFFFFFFFFFFFFFFFFFFFFFFFFFFFFFFFFFFFFFF AND PUSH20 0xFFFFFFFFFFFFFFFFFFFFFFFFFFFFFFFFFFFFFFFF AND DUP2 MSTORE PUSH1 0x20 ADD SWAP1 DUP2 MSTORE PUSH1 0x20 ADD PUSH1 0x0 KECCAK256 SLOAD SWAP1 POP PUSH1 0x0 DUP3 DUP3 ADD SWAP1 POP DUP2 DUP2 GT PUSH2 0x2B44 JUMPI PUSH1 0x40 MLOAD PUSH32 0x8C379A000000000000000000000000000000000000000000000000000000000 DUP2 MSTORE PUSH1 0x4 ADD PUSH2 0x2B3B SWAP1 PUSH2 0x4BB9 JUMP JUMPDEST PUSH1 0x40 MLOAD DUP1 SWAP2 SUB SWAP1 REVERT JUMPDEST DUP1 DUP7 PUSH1 0x0 ADD PUSH1 0x0 DUP7 DUP2 MSTORE PUSH1 0x20 ADD SWAP1 DUP2 MSTORE PUSH1 0x20 ADD PUSH1 0x0 KECCAK256 PUSH1 0x0 DUP8 PUSH20 0xFFFFFFFFFFFFFFFFFFFFFFFFFFFFFFFFFFFFFFFF AND PUSH20 0xFFFFFFFFFFFFFFFFFFFFFFFFFFFFFFFFFFFFFFFF AND DUP2 MSTORE PUSH1 0x20 ADD SWAP1 DUP2 MSTORE PUSH1 0x20 ADD PUSH1 0x0 KECCAK256 DUP2 SWAP1 SSTORE POP POP POP JUMPDEST POP POP POP POP JUMP JUMPDEST PUSH1 0x0 DUP1 DUP3 PUSH20 0xFFFFFFFFFFFFFFFFFFFFFFFFFFFFFFFFFFFFFFFF AND EXTCODESIZE GT SWAP1 POP SWAP2 SWAP1 POP JUMP JUMPDEST PUSH4 0xBC197C81 PUSH1 0xE0 SHL PUSH28 0xFFFFFFFFFFFFFFFFFFFFFFFFFFFFFFFFFFFFFFFFFFFFFFFFFFFFFFFF NOT AND DUP5 PUSH20 0xFFFFFFFFFFFFFFFFFFFFFFFFFFFFFFFFFFFFFFFF AND PUSH4 0xBC197C81 DUP9 DUP9 DUP8 DUP8 DUP8 PUSH1 0x40 MLOAD DUP7 PUSH4 0xFFFFFFFF AND PUSH1 0xE0 SHL DUP2 MSTORE PUSH1 0x4 ADD PUSH2 0x2C2F SWAP6 SWAP5 SWAP4 SWAP3 SWAP2 SWAP1 PUSH2 0x4C2E JUMP JUMPDEST PUSH1 0x20 PUSH1 0x40 MLOAD DUP1 DUP4 SUB DUP2 PUSH1 0x0 DUP8 GAS CALL ISZERO DUP1 ISZERO PUSH2 0x2C4E JUMPI RETURNDATASIZE PUSH1 0x0 DUP1 RETURNDATACOPY RETURNDATASIZE PUSH1 0x0 REVERT JUMPDEST POP POP POP POP PUSH1 0x40 MLOAD RETURNDATASIZE PUSH1 0x1F NOT PUSH1 0x1F DUP3 ADD AND DUP3 ADD DUP1 PUSH1 0x40 MSTORE POP DUP2 ADD SWAP1 PUSH2 0x2C72 SWAP2 SWAP1 PUSH2 0x4CAB JUMP JUMPDEST PUSH28 0xFFFFFFFFFFFFFFFFFFFFFFFFFFFFFFFFFFFFFFFFFFFFFFFFFFFFFFFF NOT AND EQ PUSH2 0x2CD1 JUMPI PUSH1 0x40 MLOAD PUSH32 0x8C379A000000000000000000000000000000000000000000000000000000000 DUP2 MSTORE PUSH1 0x4 ADD PUSH2 0x2CC8 SWAP1 PUSH2 0x4D24 JUMP JUMPDEST PUSH1 0x40 MLOAD DUP1 SWAP2 SUB SWAP1 REVERT JUMPDEST POP POP POP POP POP POP JUMP JUMPDEST PUSH1 0x60 PUSH1 0x0 PUSH1 0x1 PUSH2 0x2CE8 DUP5 PUSH2 0x3318 JUMP JUMPDEST ADD SWAP1 POP PUSH1 0x0 DUP2 PUSH8 0xFFFFFFFFFFFFFFFF DUP2 GT ISZERO PUSH2 0x2D07 JUMPI PUSH2 0x2D06 PUSH2 0x4758 JUMP JUMPDEST JUMPDEST PUSH1 0x40 MLOAD SWAP1 DUP1 DUP3 MSTORE DUP1 PUSH1 0x1F ADD PUSH1 0x1F NOT AND PUSH1 0x20 ADD DUP3 ADD PUSH1 0x40 MSTORE DUP1 ISZERO PUSH2 0x2D39 JUMPI DUP2 PUSH1 0x20 ADD PUSH1 0x1 DUP3 MUL DUP1 CALLDATASIZE DUP4 CALLDATACOPY DUP1 DUP3 ADD SWAP2 POP POP SWAP1 POP JUMPDEST POP SWAP1 POP PUSH1 0x0 DUP3 PUSH1 0x20 ADD DUP3 ADD SWAP1 POP JUMPDEST PUSH1 0x1 ISZERO PUSH2 0x2D9C JUMPI DUP1 DUP1 PUSH1 0x1 SWAP1 SUB SWAP2 POP POP PUSH32 0x3031323334353637383961626364656600000000000000000000000000000000 PUSH1 0xA DUP7 MOD BYTE DUP2 MSTORE8 PUSH1 0xA DUP6 DUP2 PUSH2 0x2D90 JUMPI PUSH2 0x2D8F PUSH2 0x4D44 JUMP JUMPDEST JUMPDEST DIV SWAP5 POP PUSH1 0x0 DUP6 SUB PUSH2 0x2D47 JUMPI JUMPDEST DUP2 SWAP4 POP POP POP POP SWAP2 SWAP1 POP JUMP JUMPDEST PUSH1 0x0 DUP2 PUSH20 0xFFFFFFFFFFFFFFFFFFFFFFFFFFFFFFFFFFFFFFFF AND DUP4 PUSH20 0xFFFFFFFFFFFFFFFFFFFFFFFFFFFFFFFFFFFFFFFF AND EQ DUP1 PUSH2 0x2E6B JUMPI POP DUP4 PUSH1 0x1 ADD PUSH1 0x0 DUP5 PUSH20 0xFFFFFFFFFFFFFFFFFFFFFFFFFFFFFFFFFFFFFFFF AND PUSH20 0xFFFFFFFFFFFFFFFFFFFFFFFFFFFFFFFFFFFFFFFF AND DUP2 MSTORE PUSH1 0x20 ADD SWAP1 DUP2 MSTORE PUSH1 0x20 ADD PUSH1 0x0 KECCAK256 PUSH1 0x0 DUP4 PUSH20 0xFFFFFFFFFFFFFFFFFFFFFFFFFFFFFFFFFFFFFFFF AND PUSH20 0xFFFFFFFFFFFFFFFFFFFFFFFFFFFFFFFFFFFFFFFF AND DUP2 MSTORE PUSH1 0x20 ADD SWAP1 DUP2 MSTORE PUSH1 0x20 ADD PUSH1 0x0 KECCAK256 PUSH1 0x0 SWAP1 SLOAD SWAP1 PUSH2 0x100 EXP SWAP1 DIV PUSH1 0xFF AND JUMPDEST SWAP1 POP SWAP4 SWAP3 POP POP POP JUMP JUMPDEST PUSH1 0x0 DUP2 EQ PUSH2 0x2F76 JUMPI PUSH1 0x0 DUP5 PUSH1 0x0 ADD PUSH1 0x0 DUP5 DUP2 MSTORE PUSH1 0x20 ADD SWAP1 DUP2 MSTORE PUSH1 0x20 ADD PUSH1 0x0 KECCAK256 PUSH1 0x0 DUP6 PUSH20 0xFFFFFFFFFFFFFFFFFFFFFFFFFFFFFFFFFFFFFFFF AND PUSH20 0xFFFFFFFFFFFFFFFFFFFFFFFFFFFFFFFFFFFFFFFF AND DUP2 MSTORE PUSH1 0x20 ADD SWAP1 DUP2 MSTORE PUSH1 0x20 ADD PUSH1 0x0 KECCAK256 SLOAD SWAP1 POP PUSH1 0x0 DUP3 DUP3 SUB SWAP1 POP DUP2 DUP2 LT PUSH2 0x2F1C JUMPI PUSH1 0x40 MLOAD PUSH32 0x8C379A000000000000000000000000000000000000000000000000000000000 DUP2 MSTORE PUSH1 0x4 ADD PUSH2 0x2F13 SWAP1 PUSH2 0x4DBF JUMP JUMPDEST PUSH1 0x40 MLOAD DUP1 SWAP2 SUB SWAP1 REVERT JUMPDEST DUP1 DUP7 PUSH1 0x0 ADD PUSH1 0x0 DUP7 DUP2 MSTORE PUSH1 0x20 ADD SWAP1 DUP2 MSTORE PUSH1 0x20 ADD PUSH1 0x0 KECCAK256 PUSH1 0x0 DUP8 PUSH20 0xFFFFFFFFFFFFFFFFFFFFFFFFFFFFFFFFFFFFFFFF AND PUSH20 0xFFFFFFFFFFFFFFFFFFFFFFFFFFFFFFFFFFFFFFFF AND DUP2 MSTORE PUSH1 0x20 ADD SWAP1 DUP2 MSTORE PUSH1 0x20 ADD PUSH1 0x0 KECCAK256 DUP2 SWAP1 SSTORE POP POP POP JUMPDEST POP POP POP POP JUMP JUMPDEST PUSH1 0x0 DUP2 EQ PUSH2 0x31AB JUMPI PUSH1 0x0 DUP6 PUSH1 0x0 ADD PUSH1 0x0 DUP5 DUP2 MSTORE PUSH1 0x20 ADD SWAP1 DUP2 MSTORE PUSH1 0x20 ADD PUSH1 0x0 KECCAK256 PUSH1 0x0 DUP7 PUSH20 0xFFFFFFFFFFFFFFFFFFFFFFFFFFFFFFFFFFFFFFFF AND PUSH20 0xFFFFFFFFFFFFFFFFFFFFFFFFFFFFFFFFFFFFFFFF AND DUP2 MSTORE PUSH1 0x20 ADD SWAP1 DUP2 MSTORE PUSH1 0x20 ADD PUSH1 0x0 KECCAK256 SLOAD SWAP1 POP PUSH1 0x0 DUP3 DUP3 SUB SWAP1 POP DUP2 DUP2 LT PUSH2 0x3024 JUMPI PUSH1 0x40 MLOAD PUSH32 0x8C379A000000000000000000000000000000000000000000000000000000000 DUP2 MSTORE PUSH1 0x4 ADD PUSH2 0x301B SWAP1 PUSH2 0x4DBF JUMP JUMPDEST PUSH1 0x40 MLOAD DUP1 SWAP2 SUB SWAP1 REVERT JUMPDEST DUP5 PUSH20 0xFFFFFFFFFFFFFFFFFFFFFFFFFFFFFFFFFFFFFFFF AND DUP7 PUSH20 0xFFFFFFFFFFFFFFFFFFFFFFFFFFFFFFFFFFFFFFFF AND EQ PUSH2 0x31A8 JUMPI PUSH1 0x0 DUP8 PUSH1 0x0 ADD PUSH1 0x0 DUP7 DUP2 MSTORE PUSH1 0x20 ADD SWAP1 DUP2 MSTORE PUSH1 0x20 ADD PUSH1 0x0 KECCAK256 PUSH1 0x0 DUP8 PUSH20 0xFFFFFFFFFFFFFFFFFFFFFFFFFFFFFFFFFFFFFFFF AND PUSH20 0xFFFFFFFFFFFFFFFFFFFFFFFFFFFFFFFFFFFFFFFF AND DUP2 MSTORE PUSH1 0x20 ADD SWAP1 DUP2 MSTORE PUSH1 0x20 ADD PUSH1 0x0 KECCAK256 SLOAD SWAP1 POP PUSH1 0x0 DUP5 DUP3 ADD SWAP1 POP DUP2 DUP2 GT PUSH2 0x30F7 JUMPI PUSH1 0x40 MLOAD PUSH32 0x8C379A000000000000000000000000000000000000000000000000000000000 DUP2 MSTORE PUSH1 0x4 ADD PUSH2 0x30EE SWAP1 PUSH2 0x4BB9 JUMP JUMPDEST PUSH1 0x40 MLOAD DUP1 SWAP2 SUB SWAP1 REVERT JUMPDEST DUP3 DUP10 PUSH1 0x0 ADD PUSH1 0x0 DUP9 DUP2 MSTORE PUSH1 0x20 ADD SWAP1 DUP2 MSTORE PUSH1 0x20 ADD PUSH1 0x0 KECCAK256 PUSH1 0x0 DUP11 PUSH20 0xFFFFFFFFFFFFFFFFFFFFFFFFFFFFFFFFFFFFFFFF AND PUSH20 0xFFFFFFFFFFFFFFFFFFFFFFFFFFFFFFFFFFFFFFFF AND DUP2 MSTORE PUSH1 0x20 ADD SWAP1 DUP2 MSTORE PUSH1 0x20 ADD PUSH1 0x0 KECCAK256 DUP2 SWAP1 SSTORE POP DUP1 DUP10 PUSH1 0x0 ADD PUSH1 0x0 DUP9 DUP2 MSTORE PUSH1 0x20 ADD SWAP1 DUP2 MSTORE PUSH1 0x20 ADD PUSH1 0x0 KECCAK256 PUSH1 0x0 DUP10 PUSH20 0xFFFFFFFFFFFFFFFFFFFFFFFFFFFFFFFFFFFFFFFF AND PUSH20 0xFFFFFFFFFFFFFFFFFFFFFFFFFFFFFFFFFFFFFFFF AND DUP2 MSTORE PUSH1 0x20 ADD SWAP1 DUP2 MSTORE PUSH1 0x20 ADD PUSH1 0x0 KECCAK256 DUP2 SWAP1 SSTORE POP POP POP JUMPDEST POP POP JUMPDEST POP POP POP POP POP JUMP JUMPDEST DUP1 PUSH1 0x0 ADD PUSH1 0x0 SWAP1 SLOAD SWAP1 PUSH2 0x100 EXP SWAP1 DIV PUSH1 0xFF AND PUSH2 0x3203 JUMPI PUSH1 0x40 MLOAD PUSH32 0x8C379A000000000000000000000000000000000000000000000000000000000 DUP2 MSTORE PUSH1 0x4 ADD PUSH2 0x31FA SWAP1 PUSH2 0x4E2B JUMP JUMPDEST PUSH1 0x40 MLOAD DUP1 SWAP2 SUB SWAP1 REVERT JUMPDEST POP JUMP JUMPDEST PUSH4 0xF23A6E61 PUSH1 0xE0 SHL PUSH28 0xFFFFFFFFFFFFFFFFFFFFFFFFFFFFFFFFFFFFFFFFFFFFFFFFFFFFFFFF NOT AND DUP5 PUSH20 0xFFFFFFFFFFFFFFFFFFFFFFFFFFFFFFFFFFFFFFFF AND PUSH4 0xF23A6E61 DUP9 DUP9 DUP8 DUP8 DUP8 PUSH1 0x40 MLOAD DUP7 PUSH4 0xFFFFFFFF AND PUSH1 0xE0 SHL DUP2 MSTORE PUSH1 0x4 ADD PUSH2 0x326E SWAP6 SWAP5 SWAP4 SWAP3 SWAP2 SWAP1 PUSH2 0x4E4B JUMP JUMPDEST PUSH1 0x20 PUSH1 0x40 MLOAD DUP1 DUP4 SUB DUP2 PUSH1 0x0 DUP8 GAS CALL ISZERO DUP1 ISZERO PUSH2 0x328D JUMPI RETURNDATASIZE PUSH1 0x0 DUP1 RETURNDATACOPY RETURNDATASIZE PUSH1 0x0 REVERT JUMPDEST POP POP POP POP PUSH1 0x40 MLOAD RETURNDATASIZE PUSH1 0x1F NOT PUSH1 0x1F DUP3 ADD AND DUP3 ADD DUP1 PUSH1 0x40 MSTORE POP DUP2 ADD SWAP1 PUSH2 0x32B1 SWAP2 SWAP1 PUSH2 0x4CAB JUMP JUMPDEST PUSH28 0xFFFFFFFFFFFFFFFFFFFFFFFFFFFFFFFFFFFFFFFFFFFFFFFFFFFFFFFF NOT AND EQ PUSH2 0x3310 JUMPI PUSH1 0x40 MLOAD PUSH32 0x8C379A000000000000000000000000000000000000000000000000000000000 DUP2 MSTORE PUSH1 0x4 ADD PUSH2 0x3307 SWAP1 PUSH2 0x4D24 JUMP JUMPDEST PUSH1 0x40 MLOAD DUP1 SWAP2 SUB SWAP1 REVERT JUMPDEST POP POP POP POP POP POP JUMP JUMPDEST PUSH1 0x0 DUP1 PUSH1 0x0 SWAP1 POP PUSH27 0x184F03E93FF9F4DAA797ED6E38ED64BF6A1F010000000000000000 DUP4 LT PUSH2 0x3376 JUMPI PUSH27 0x184F03E93FF9F4DAA797ED6E38ED64BF6A1F010000000000000000 DUP4 DUP2 PUSH2 0x336C JUMPI PUSH2 0x336B PUSH2 0x4D44 JUMP JUMPDEST JUMPDEST DIV SWAP3 POP PUSH1 0x40 DUP2 ADD SWAP1 POP JUMPDEST PUSH14 0x4EE2D6D415B85ACEF8100000000 DUP4 LT PUSH2 0x33B3 JUMPI PUSH14 0x4EE2D6D415B85ACEF8100000000 DUP4 DUP2 PUSH2 0x33A9 JUMPI PUSH2 0x33A8 PUSH2 0x4D44 JUMP JUMPDEST JUMPDEST DIV SWAP3 POP PUSH1 0x20 DUP2 ADD SWAP1 POP JUMPDEST PUSH7 0x2386F26FC10000 DUP4 LT PUSH2 0x33E2 JUMPI PUSH7 0x2386F26FC10000 DUP4 DUP2 PUSH2 0x33D8 JUMPI PUSH2 0x33D7 PUSH2 0x4D44 JUMP JUMPDEST JUMPDEST DIV SWAP3 POP PUSH1 0x10 DUP2 ADD SWAP1 POP JUMPDEST PUSH4 0x5F5E100 DUP4 LT PUSH2 0x340B JUMPI PUSH4 0x5F5E100 DUP4 DUP2 PUSH2 0x3401 JUMPI PUSH2 0x3400 PUSH2 0x4D44 JUMP JUMPDEST JUMPDEST DIV SWAP3 POP PUSH1 0x8 DUP2 ADD SWAP1 POP JUMPDEST PUSH2 0x2710 DUP4 LT PUSH2 0x3430 JUMPI PUSH2 0x2710 DUP4 DUP2 PUSH2 0x3426 JUMPI PUSH2 0x3425 PUSH2 0x4D44 JUMP JUMPDEST JUMPDEST DIV SWAP3 POP PUSH1 0x4 DUP2 ADD SWAP1 POP JUMPDEST PUSH1 0x64 DUP4 LT PUSH2 0x3453 JUMPI PUSH1 0x64 DUP4 DUP2 PUSH2 0x3449 JUMPI PUSH2 0x3448 PUSH2 0x4D44 JUMP JUMPDEST JUMPDEST DIV SWAP3 POP PUSH1 0x2 DUP2 ADD SWAP1 POP JUMPDEST PUSH1 0xA DUP4 LT PUSH2 0x3462 JUMPI PUSH1 0x1 DUP2 ADD SWAP1 POP JUMPDEST DUP1 SWAP2 POP POP SWAP2 SWAP1 POP JUMP JUMPDEST PUSH1 0x0 DUP1 REVERT JUMPDEST PUSH1 0x0 DUP1 REVERT JUMPDEST PUSH1 0x0 PUSH20 0xFFFFFFFFFFFFFFFFFFFFFFFFFFFFFFFFFFFFFFFF DUP3 AND SWAP1 POP SWAP2 SWAP1 POP JUMP JUMPDEST PUSH1 0x0 PUSH2 0x34A0 DUP3 PUSH2 0x3475 JUMP JUMPDEST SWAP1 POP SWAP2 SWAP1 POP JUMP JUMPDEST PUSH2 0x34B0 DUP2 PUSH2 0x3495 JUMP JUMPDEST DUP2 EQ PUSH2 0x34BB JUMPI PUSH1 0x0 DUP1 REVERT JUMPDEST POP JUMP JUMPDEST PUSH1 0x0 DUP2 CALLDATALOAD SWAP1 POP PUSH2 0x34CD DUP2 PUSH2 0x34A7 JUMP JUMPDEST SWAP3 SWAP2 POP POP JUMP JUMPDEST PUSH1 0x0 DUP2 SWAP1 POP SWAP2 SWAP1 POP JUMP JUMPDEST PUSH2 0x34E6 DUP2 PUSH2 0x34D3 JUMP JUMPDEST DUP2 EQ PUSH2 0x34F1 JUMPI PUSH1 0x0 DUP1 REVERT JUMPDEST POP JUMP JUMPDEST PUSH1 0x0 DUP2 CALLDATALOAD SWAP1 POP PUSH2 0x3503 DUP2 PUSH2 0x34DD JUMP JUMPDEST SWAP3 SWAP2 POP POP JUMP JUMPDEST PUSH1 0x0 DUP1 PUSH1 0x40 DUP4 DUP6 SUB SLT ISZERO PUSH2 0x3520 JUMPI PUSH2 0x351F PUSH2 0x346B JUMP JUMPDEST JUMPDEST PUSH1 0x0 PUSH2 0x352E DUP6 DUP3 DUP7 ADD PUSH2 0x34BE JUMP JUMPDEST SWAP3 POP POP PUSH1 0x20 PUSH2 0x353F DUP6 DUP3 DUP7 ADD PUSH2 0x34F4 JUMP JUMPDEST SWAP2 POP POP SWAP3 POP SWAP3 SWAP1 POP JUMP JUMPDEST PUSH2 0x3552 DUP2 PUSH2 0x34D3 JUMP JUMPDEST DUP3 MSTORE POP POP JUMP JUMPDEST PUSH1 0x0 PUSH1 0x20 DUP3 ADD SWAP1 POP PUSH2 0x356D PUSH1 0x0 DUP4 ADD DUP5 PUSH2 0x3549 JUMP JUMPDEST SWAP3 SWAP2 POP POP JUMP JUMPDEST PUSH1 0x0 PUSH32 0xFFFFFFFF00000000000000000000000000000000000000000000000000000000 DUP3 AND SWAP1 POP SWAP2 SWAP1 POP JUMP JUMPDEST PUSH2 0x35A8 DUP2 PUSH2 0x3573 JUMP JUMPDEST DUP2 EQ PUSH2 0x35B3 JUMPI PUSH1 0x0 DUP1 REVERT JUMPDEST POP JUMP JUMPDEST PUSH1 0x0 DUP2 CALLDATALOAD SWAP1 POP PUSH2 0x35C5 DUP2 PUSH2 0x359F JUMP JUMPDEST SWAP3 SWAP2 POP POP JUMP JUMPDEST PUSH1 0x0 PUSH1 0x20 DUP3 DUP5 SUB SLT ISZERO PUSH2 0x35E1 JUMPI PUSH2 0x35E0 PUSH2 0x346B JUMP JUMPDEST JUMPDEST PUSH1 0x0 PUSH2 0x35EF DUP5 DUP3 DUP6 ADD PUSH2 0x35B6 JUMP JUMPDEST SWAP2 POP POP SWAP3 SWAP2 POP POP JUMP JUMPDEST PUSH1 0x0 DUP2 ISZERO ISZERO SWAP1 POP SWAP2 SWAP1 POP JUMP JUMPDEST PUSH2 0x360D DUP2 PUSH2 0x35F8 JUMP JUMPDEST DUP3 MSTORE POP POP JUMP JUMPDEST PUSH1 0x0 PUSH1 0x20 DUP3 ADD SWAP1 POP PUSH2 0x3628 PUSH1 0x0 DUP4 ADD DUP5 PUSH2 0x3604 JUMP JUMPDEST SWAP3 SWAP2 POP POP JUMP JUMPDEST PUSH1 0x0 DUP1 REVERT JUMPDEST PUSH1 0x0 DUP1 REVERT JUMPDEST PUSH1 0x0 DUP1 REVERT JUMPDEST PUSH1 0x0 DUP1 DUP4 PUSH1 0x1F DUP5 ADD SLT PUSH2 0x3653 JUMPI PUSH2 0x3652 PUSH2 0x362E JUMP JUMPDEST JUMPDEST DUP3 CALLDATALOAD SWAP1 POP PUSH8 0xFFFFFFFFFFFFFFFF DUP2 GT ISZERO PUSH2 0x3670 JUMPI PUSH2 0x366F PUSH2 0x3633 JUMP JUMPDEST JUMPDEST PUSH1 0x20 DUP4 ADD SWAP2 POP DUP4 PUSH1 0x20 DUP3 MUL DUP4 ADD GT ISZERO PUSH2 0x368C JUMPI PUSH2 0x368B PUSH2 0x3638 JUMP JUMPDEST JUMPDEST SWAP3 POP SWAP3 SWAP1 POP JUMP JUMPDEST PUSH1 0x0 DUP1 DUP4 PUSH1 0x1F DUP5 ADD SLT PUSH2 0x36A9 JUMPI PUSH2 0x36A8 PUSH2 0x362E JUMP JUMPDEST JUMPDEST DUP3 CALLDATALOAD SWAP1 POP PUSH8 0xFFFFFFFFFFFFFFFF DUP2 GT ISZERO PUSH2 0x36C6 JUMPI PUSH2 0x36C5 PUSH2 0x3633 JUMP JUMPDEST JUMPDEST PUSH1 0x20 DUP4 ADD SWAP2 POP DUP4 PUSH1 0x1 DUP3 MUL DUP4 ADD GT ISZERO PUSH2 0x36E2 JUMPI PUSH2 0x36E1 PUSH2 0x3638 JUMP JUMPDEST JUMPDEST SWAP3 POP SWAP3 SWAP1 POP JUMP JUMPDEST PUSH1 0x0 DUP1 PUSH1 0x0 DUP1 PUSH1 0x0 DUP1 PUSH1 0x0 PUSH1 0x80 DUP9 DUP11 SUB SLT ISZERO PUSH2 0x3708 JUMPI PUSH2 0x3707 PUSH2 0x346B JUMP JUMPDEST JUMPDEST PUSH1 0x0 PUSH2 0x3716 DUP11 DUP3 DUP12 ADD PUSH2 0x34BE JUMP JUMPDEST SWAP8 POP POP PUSH1 0x20 DUP9 ADD CALLDATALOAD PUSH8 0xFFFFFFFFFFFFFFFF DUP2 GT ISZERO PUSH2 0x3737 JUMPI PUSH2 0x3736 PUSH2 0x3470 JUMP JUMPDEST JUMPDEST PUSH2 0x3743 DUP11 DUP3 DUP12 ADD PUSH2 0x363D JUMP JUMPDEST SWAP7 POP SWAP7 POP POP PUSH1 0x40 DUP9 ADD CALLDATALOAD PUSH8 0xFFFFFFFFFFFFFFFF DUP2 GT ISZERO PUSH2 0x3766 JUMPI PUSH2 0x3765 PUSH2 0x3470 JUMP JUMPDEST JUMPDEST PUSH2 0x3772 DUP11 DUP3 DUP12 ADD PUSH2 0x363D JUMP JUMPDEST SWAP5 POP SWAP5 POP POP PUSH1 0x60 DUP9 ADD CALLDATALOAD PUSH8 0xFFFFFFFFFFFFFFFF DUP2 GT ISZERO PUSH2 0x3795 JUMPI PUSH2 0x3794 PUSH2 0x3470 JUMP JUMPDEST JUMPDEST PUSH2 0x37A1 DUP11 DUP3 DUP12 ADD PUSH2 0x3693 JUMP JUMPDEST SWAP3 POP SWAP3 POP POP SWAP3 SWAP6 SWAP9 SWAP2 SWAP5 SWAP8 POP SWAP3 SWAP6 POP JUMP JUMPDEST PUSH1 0x0 PUSH1 0x20 DUP3 DUP5 SUB SLT ISZERO PUSH2 0x37C8 JUMPI PUSH2 0x37C7 PUSH2 0x346B JUMP JUMPDEST JUMPDEST PUSH1 0x0 PUSH2 0x37D6 DUP5 DUP3 DUP6 ADD PUSH2 0x34F4 JUMP JUMPDEST SWAP2 POP POP SWAP3 SWAP2 POP POP JUMP JUMPDEST PUSH1 0x0 DUP2 MLOAD SWAP1 POP SWAP2 SWAP1 POP JUMP JUMPDEST PUSH1 0x0 DUP3 DUP3 MSTORE PUSH1 0x20 DUP3 ADD SWAP1 POP SWAP3 SWAP2 POP POP JUMP JUMPDEST PUSH1 0x0 JUMPDEST DUP4 DUP2 LT ISZERO PUSH2 0x3819 JUMPI DUP1 DUP3 ADD MLOAD DUP2 DUP5 ADD MSTORE PUSH1 0x20 DUP2 ADD SWAP1 POP PUSH2 0x37FE JUMP JUMPDEST PUSH1 0x0 DUP5 DUP5 ADD MSTORE POP POP POP POP JUMP JUMPDEST PUSH1 0x0 PUSH1 0x1F NOT PUSH1 0x1F DUP4 ADD AND SWAP1 POP SWAP2 SWAP1 POP JUMP JUMPDEST PUSH1 0x0 PUSH2 0x3841 DUP3 PUSH2 0x37DF JUMP JUMPDEST PUSH2 0x384B DUP2 DUP6 PUSH2 0x37EA JUMP JUMPDEST SWAP4 POP PUSH2 0x385B DUP2 DUP6 PUSH1 0x20 DUP7 ADD PUSH2 0x37FB JUMP JUMPDEST PUSH2 0x3864 DUP2 PUSH2 0x3825 JUMP JUMPDEST DUP5 ADD SWAP2 POP POP SWAP3 SWAP2 POP POP JUMP JUMPDEST PUSH1 0x0 PUSH1 0x20 DUP3 ADD SWAP1 POP DUP2 DUP2 SUB PUSH1 0x0 DUP4 ADD MSTORE PUSH2 0x3889 DUP2 DUP5 PUSH2 0x3836 JUMP JUMPDEST SWAP1 POP SWAP3 SWAP2 POP POP JUMP JUMPDEST PUSH1 0x0 DUP1 PUSH1 0x0 PUSH1 0x60 DUP5 DUP7 SUB SLT ISZERO PUSH2 0x38AA JUMPI PUSH2 0x38A9 PUSH2 0x346B JUMP JUMPDEST JUMPDEST PUSH1 0x0 PUSH2 0x38B8 DUP7 DUP3 DUP8 ADD PUSH2 0x34BE JUMP JUMPDEST SWAP4 POP POP PUSH1 0x20 PUSH2 0x38C9 DUP7 DUP3 DUP8 ADD PUSH2 0x34F4 JUMP JUMPDEST SWAP3 POP POP PUSH1 0x40 PUSH2 0x38DA DUP7 DUP3 DUP8 ADD PUSH2 0x34F4 JUMP JUMPDEST SWAP2 POP POP SWAP3 POP SWAP3 POP SWAP3 JUMP JUMPDEST PUSH1 0x0 DUP1 PUSH1 0x0 DUP1 PUSH1 0x0 DUP1 PUSH1 0x0 DUP1 PUSH1 0xA0 DUP10 DUP12 SUB SLT ISZERO PUSH2 0x3904 JUMPI PUSH2 0x3903 PUSH2 0x346B JUMP JUMPDEST JUMPDEST PUSH1 0x0 PUSH2 0x3912 DUP12 DUP3 DUP13 ADD PUSH2 0x34BE JUMP JUMPDEST SWAP9 POP POP PUSH1 0x20 PUSH2 0x3923 DUP12 DUP3 DUP13 ADD PUSH2 0x34BE JUMP JUMPDEST SWAP8 POP POP PUSH1 0x40 DUP10 ADD CALLDATALOAD PUSH8 0xFFFFFFFFFFFFFFFF DUP2 GT ISZERO PUSH2 0x3944 JUMPI PUSH2 0x3943 PUSH2 0x3470 JUMP JUMPDEST JUMPDEST PUSH2 0x3950 DUP12 DUP3 DUP13 ADD PUSH2 0x363D JUMP JUMPDEST SWAP7 POP SWAP7 POP POP PUSH1 0x60 DUP10 ADD CALLDATALOAD PUSH8 0xFFFFFFFFFFFFFFFF DUP2 GT ISZERO PUSH2 0x3973 JUMPI PUSH2 0x3972 PUSH2 0x3470 JUMP JUMPDEST JUMPDEST PUSH2 0x397F DUP12 DUP3 DUP13 ADD PUSH2 0x363D JUMP JUMPDEST SWAP5 POP SWAP5 POP POP PUSH1 0x80 DUP10 ADD CALLDATALOAD PUSH8 0xFFFFFFFFFFFFFFFF DUP2 GT ISZERO PUSH2 0x39A2 JUMPI PUSH2 0x39A1 PUSH2 0x3470 JUMP JUMPDEST JUMPDEST PUSH2 0x39AE DUP12 DUP3 DUP13 ADD PUSH2 0x3693 JUMP JUMPDEST SWAP3 POP SWAP3 POP POP SWAP3 SWAP6 SWAP9 POP SWAP3 SWAP6 SWAP9 SWAP1 SWAP4 SWAP7 POP JUMP JUMPDEST PUSH1 0x0 DUP2 SWAP1 POP SWAP2 SWAP1 POP JUMP JUMPDEST PUSH2 0x39D3 DUP2 PUSH2 0x39C0 JUMP JUMPDEST DUP2 EQ PUSH2 0x39DE JUMPI PUSH1 0x0 DUP1 REVERT JUMPDEST POP JUMP JUMPDEST PUSH1 0x0 DUP2 CALLDATALOAD SWAP1 POP PUSH2 0x39F0 DUP2 PUSH2 0x39CA JUMP JUMPDEST SWAP3 SWAP2 POP POP JUMP JUMPDEST PUSH1 0x0 DUP1 PUSH1 0x40 DUP4 DUP6 SUB SLT ISZERO PUSH2 0x3A0D JUMPI PUSH2 0x3A0C PUSH2 0x346B JUMP JUMPDEST JUMPDEST PUSH1 0x0 PUSH2 0x3A1B DUP6 DUP3 DUP7 ADD PUSH2 0x39E1 JUMP JUMPDEST SWAP3 POP POP PUSH1 0x20 PUSH2 0x3A2C DUP6 DUP3 DUP7 ADD PUSH2 0x34BE JUMP JUMPDEST SWAP2 POP POP SWAP3 POP SWAP3 SWAP1 POP JUMP JUMPDEST PUSH1 0x0 PUSH1 0x20 DUP3 DUP5 SUB SLT ISZERO PUSH2 0x3A4C JUMPI PUSH2 0x3A4B PUSH2 0x346B JUMP JUMPDEST JUMPDEST PUSH1 0x0 PUSH2 0x3A5A DUP5 DUP3 DUP6 ADD PUSH2 0x34BE JUMP JUMPDEST SWAP2 POP POP SWAP3 SWAP2 POP POP JUMP JUMPDEST PUSH2 0x3A6C DUP2 PUSH2 0x39C0 JUMP JUMPDEST DUP3 MSTORE POP POP JUMP JUMPDEST PUSH1 0x0 PUSH1 0x20 DUP3 ADD SWAP1 POP PUSH2 0x3A87 PUSH1 0x0 DUP4 ADD DUP5 PUSH2 0x3A63 JUMP JUMPDEST SWAP3 SWAP2 POP POP JUMP JUMPDEST PUSH1 0x0 DUP1 DUP4 PUSH1 0x1F DUP5 ADD SLT PUSH2 0x3AA3 JUMPI PUSH2 0x3AA2 PUSH2 0x362E JUMP JUMPDEST JUMPDEST DUP3 CALLDATALOAD SWAP1 POP PUSH8 0xFFFFFFFFFFFFFFFF DUP2 GT ISZERO PUSH2 0x3AC0 JUMPI PUSH2 0x3ABF PUSH2 0x3633 JUMP JUMPDEST JUMPDEST PUSH1 0x20 DUP4 ADD SWAP2 POP DUP4 PUSH1 0x20 DUP3 MUL DUP4 ADD GT ISZERO PUSH2 0x3ADC JUMPI PUSH2 0x3ADB PUSH2 0x3638 JUMP JUMPDEST JUMPDEST SWAP3 POP SWAP3 SWAP1 POP JUMP JUMPDEST PUSH1 0x0 DUP1 PUSH1 0x0 DUP1 PUSH1 0x40 DUP6 DUP8 SUB SLT ISZERO PUSH2 0x3AFD JUMPI PUSH2 0x3AFC PUSH2 0x346B JUMP JUMPDEST JUMPDEST PUSH1 0x0 DUP6 ADD CALLDATALOAD PUSH8 0xFFFFFFFFFFFFFFFF DUP2 GT ISZERO PUSH2 0x3B1B JUMPI PUSH2 0x3B1A PUSH2 0x3470 JUMP JUMPDEST JUMPDEST PUSH2 0x3B27 DUP8 DUP3 DUP9 ADD PUSH2 0x3A8D JUMP JUMPDEST SWAP5 POP SWAP5 POP POP PUSH1 0x20 DUP6 ADD CALLDATALOAD PUSH8 0xFFFFFFFFFFFFFFFF DUP2 GT ISZERO PUSH2 0x3B4A JUMPI PUSH2 0x3B49 PUSH2 0x3470 JUMP JUMPDEST JUMPDEST PUSH2 0x3B56 DUP8 DUP3 DUP9 ADD PUSH2 0x363D JUMP JUMPDEST SWAP3 POP SWAP3 POP POP SWAP3 SWAP6 SWAP2 SWAP5 POP SWAP3 POP JUMP JUMPDEST PUSH1 0x0 DUP2 MLOAD SWAP1 POP SWAP2 SWAP1 POP JUMP JUMPDEST PUSH1 0x0 DUP3 DUP3 MSTORE PUSH1 0x20 DUP3 ADD SWAP1 POP SWAP3 SWAP2 POP POP JUMP JUMPDEST PUSH1 0x0 DUP2 SWAP1 POP PUSH1 0x20 DUP3 ADD SWAP1 POP SWAP2 SWAP1 POP JUMP JUMPDEST PUSH2 0x3B99 DUP2 PUSH2 0x34D3 JUMP JUMPDEST DUP3 MSTORE POP POP JUMP JUMPDEST PUSH1 0x0 PUSH2 0x3BAB DUP4 DUP4 PUSH2 0x3B90 JUMP JUMPDEST PUSH1 0x20 DUP4 ADD SWAP1 POP SWAP3 SWAP2 POP POP JUMP JUMPDEST PUSH1 0x0 PUSH1 0x20 DUP3 ADD SWAP1 POP SWAP2 SWAP1 POP JUMP JUMPDEST PUSH1 0x0 PUSH2 0x3BCF DUP3 PUSH2 0x3B64 JUMP JUMPDEST PUSH2 0x3BD9 DUP2 DUP6 PUSH2 0x3B6F JUMP JUMPDEST SWAP4 POP PUSH2 0x3BE4 DUP4 PUSH2 0x3B80 JUMP JUMPDEST DUP1 PUSH1 0x0 JUMPDEST DUP4 DUP2 LT ISZERO PUSH2 0x3C15 JUMPI DUP2 MLOAD PUSH2 0x3BFC DUP9 DUP3 PUSH2 0x3B9F JUMP JUMPDEST SWAP8 POP PUSH2 0x3C07 DUP4 PUSH2 0x3BB7 JUMP JUMPDEST SWAP3 POP POP PUSH1 0x1 DUP2 ADD SWAP1 POP PUSH2 0x3BE8 JUMP JUMPDEST POP DUP6 SWAP4 POP POP POP POP SWAP3 SWAP2 POP POP JUMP JUMPDEST PUSH1 0x0 PUSH1 0x20 DUP3 ADD SWAP1 POP DUP2 DUP2 SUB PUSH1 0x0 DUP4 ADD MSTORE PUSH2 0x3C3C DUP2 DUP5 PUSH2 0x3BC4 JUMP JUMPDEST SWAP1 POP SWAP3 SWAP2 POP POP JUMP JUMPDEST PUSH1 0x0 DUP1 PUSH1 0x0 DUP1 PUSH1 0x0 PUSH1 0x80 DUP7 DUP9 SUB SLT ISZERO PUSH2 0x3C60 JUMPI PUSH2 0x3C5F PUSH2 0x346B JUMP JUMPDEST JUMPDEST PUSH1 0x0 PUSH2 0x3C6E DUP9 DUP3 DUP10 ADD PUSH2 0x34BE JUMP JUMPDEST SWAP6 POP POP PUSH1 0x20 PUSH2 0x3C7F DUP9 DUP3 DUP10 ADD PUSH2 0x34F4 JUMP JUMPDEST SWAP5 POP POP PUSH1 0x40 PUSH2 0x3C90 DUP9 DUP3 DUP10 ADD PUSH2 0x34F4 JUMP JUMPDEST SWAP4 POP POP PUSH1 0x60 DUP7 ADD CALLDATALOAD PUSH8 0xFFFFFFFFFFFFFFFF DUP2 GT ISZERO PUSH2 0x3CB1 JUMPI PUSH2 0x3CB0 PUSH2 0x3470 JUMP JUMPDEST JUMPDEST PUSH2 0x3CBD DUP9 DUP3 DUP10 ADD PUSH2 0x3693 JUMP JUMPDEST SWAP3 POP SWAP3 POP POP SWAP3 SWAP6 POP SWAP3 SWAP6 SWAP1 SWAP4 POP JUMP JUMPDEST PUSH1 0x0 DUP1 DUP4 PUSH1 0x1F DUP5 ADD SLT PUSH2 0x3CE2 JUMPI PUSH2 0x3CE1 PUSH2 0x362E JUMP JUMPDEST JUMPDEST DUP3 CALLDATALOAD SWAP1 POP PUSH8 0xFFFFFFFFFFFFFFFF DUP2 GT ISZERO PUSH2 0x3CFF JUMPI PUSH2 0x3CFE PUSH2 0x3633 JUMP JUMPDEST JUMPDEST PUSH1 0x20 DUP4 ADD SWAP2 POP DUP4 PUSH1 0x1 DUP3 MUL DUP4 ADD GT ISZERO PUSH2 0x3D1B JUMPI PUSH2 0x3D1A PUSH2 0x3638 JUMP JUMPDEST JUMPDEST SWAP3 POP SWAP3 SWAP1 POP JUMP JUMPDEST PUSH1 0x0 DUP1 PUSH1 0x20 DUP4 DUP6 SUB SLT ISZERO PUSH2 0x3D39 JUMPI PUSH2 0x3D38 PUSH2 0x346B JUMP JUMPDEST JUMPDEST PUSH1 0x0 DUP4 ADD CALLDATALOAD PUSH8 0xFFFFFFFFFFFFFFFF DUP2 GT ISZERO PUSH2 0x3D57 JUMPI PUSH2 0x3D56 PUSH2 0x3470 JUMP JUMPDEST JUMPDEST PUSH2 0x3D63 DUP6 DUP3 DUP7 ADD PUSH2 0x3CCC JUMP JUMPDEST SWAP3 POP SWAP3 POP POP SWAP3 POP SWAP3 SWAP1 POP JUMP JUMPDEST PUSH1 0x0 DUP1 PUSH1 0x0 DUP1 PUSH1 0x0 PUSH1 0x60 DUP7 DUP9 SUB SLT ISZERO PUSH2 0x3D8B JUMPI PUSH2 0x3D8A PUSH2 0x346B JUMP JUMPDEST JUMPDEST PUSH1 0x0 PUSH2 0x3D99 DUP9 DUP3 DUP10 ADD PUSH2 0x34BE JUMP JUMPDEST SWAP6 POP POP PUSH1 0x20 DUP7 ADD CALLDATALOAD PUSH8 0xFFFFFFFFFFFFFFFF DUP2 GT ISZERO PUSH2 0x3DBA JUMPI PUSH2 0x3DB9 PUSH2 0x3470 JUMP JUMPDEST JUMPDEST PUSH2 0x3DC6 DUP9 DUP3 DUP10 ADD PUSH2 0x363D JUMP JUMPDEST SWAP5 POP SWAP5 POP POP PUSH1 0x40 DUP7 ADD CALLDATALOAD PUSH8 0xFFFFFFFFFFFFFFFF DUP2 GT ISZERO PUSH2 0x3DE9 JUMPI PUSH2 0x3DE8 PUSH2 0x3470 JUMP JUMPDEST JUMPDEST PUSH2 0x3DF5 DUP9 DUP3 DUP10 ADD PUSH2 0x363D JUMP JUMPDEST SWAP3 POP SWAP3 POP POP SWAP3 SWAP6 POP SWAP3 SWAP6 SWAP1 SWAP4 POP JUMP JUMPDEST PUSH1 0x0 PUSH1 0x20 DUP3 DUP5 SUB SLT ISZERO PUSH2 0x3E1A JUMPI PUSH2 0x3E19 PUSH2 0x346B JUMP JUMPDEST JUMPDEST PUSH1 0x0 PUSH2 0x3E28 DUP5 DUP3 DUP6 ADD PUSH2 0x39E1 JUMP JUMPDEST SWAP2 POP POP SWAP3 SWAP2 POP POP JUMP JUMPDEST PUSH2 0x3E3A DUP2 PUSH2 0x3495 JUMP JUMPDEST DUP3 MSTORE POP POP JUMP JUMPDEST PUSH1 0x0 PUSH1 0x20 DUP3 ADD SWAP1 POP PUSH2 0x3E55 PUSH1 0x0 DUP4 ADD DUP5 PUSH2 0x3E31 JUMP JUMPDEST SWAP3 SWAP2 POP POP JUMP JUMPDEST PUSH2 0x3E64 DUP2 PUSH2 0x35F8 JUMP JUMPDEST DUP2 EQ PUSH2 0x3E6F JUMPI PUSH1 0x0 DUP1 REVERT JUMPDEST POP JUMP JUMPDEST PUSH1 0x0 DUP2 CALLDATALOAD SWAP1 POP PUSH2 0x3E81 DUP2 PUSH2 0x3E5B JUMP JUMPDEST SWAP3 SWAP2 POP POP JUMP JUMPDEST PUSH1 0x0 DUP1 PUSH1 0x40 DUP4 DUP6 SUB SLT ISZERO PUSH2 0x3E9E JUMPI PUSH2 0x3E9D PUSH2 0x346B JUMP JUMPDEST JUMPDEST PUSH1 0x0 PUSH2 0x3EAC DUP6 DUP3 DUP7 ADD PUSH2 0x34BE JUMP JUMPDEST SWAP3 POP POP PUSH1 0x20 PUSH2 0x3EBD DUP6 DUP3 DUP7 ADD PUSH2 0x3E72 JUMP JUMPDEST SWAP2 POP POP SWAP3 POP SWAP3 SWAP1 POP JUMP JUMPDEST PUSH1 0x0 DUP1 PUSH1 0x40 DUP4 DUP6 SUB SLT ISZERO PUSH2 0x3EDE JUMPI PUSH2 0x3EDD PUSH2 0x346B JUMP JUMPDEST JUMPDEST PUSH1 0x0 PUSH2 0x3EEC DUP6 DUP3 DUP7 ADD PUSH2 0x34BE JUMP JUMPDEST SWAP3 POP POP PUSH1 0x20 PUSH2 0x3EFD DUP6 DUP3 DUP7 ADD PUSH2 0x34BE JUMP JUMPDEST SWAP2 POP POP SWAP3 POP SWAP3 SWAP1 POP JUMP JUMPDEST PUSH1 0x0 DUP1 PUSH1 0x0 DUP1 PUSH1 0x0 DUP1 PUSH1 0xA0 DUP8 DUP10 SUB SLT ISZERO PUSH2 0x3F24 JUMPI PUSH2 0x3F23 PUSH2 0x346B JUMP JUMPDEST JUMPDEST PUSH1 0x0 PUSH2 0x3F32 DUP10 DUP3 DUP11 ADD PUSH2 0x34BE JUMP JUMPDEST SWAP7 POP POP PUSH1 0x20 PUSH2 0x3F43 DUP10 DUP3 DUP11 ADD PUSH2 0x34BE JUMP JUMPDEST SWAP6 POP POP PUSH1 0x40 PUSH2 0x3F54 DUP10 DUP3 DUP11 ADD PUSH2 0x34F4 JUMP JUMPDEST SWAP5 POP POP PUSH1 0x60 PUSH2 0x3F65 DUP10 DUP3 DUP11 ADD PUSH2 0x34F4 JUMP JUMPDEST SWAP4 POP POP PUSH1 0x80 DUP8 ADD CALLDATALOAD PUSH8 0xFFFFFFFFFFFFFFFF DUP2 GT ISZERO PUSH2 0x3F86 JUMPI PUSH2 0x3F85 PUSH2 0x3470 JUMP JUMPDEST JUMPDEST PUSH2 0x3F92 DUP10 DUP3 DUP11 ADD PUSH2 0x3693 JUMP JUMPDEST SWAP3 POP SWAP3 POP POP SWAP3 SWAP6 POP SWAP3 SWAP6 POP SWAP3 SWAP6 JUMP JUMPDEST PUSH32 0x4F524E463A206E6F742061646D696E0000000000000000000000000000000000 PUSH1 0x0 DUP3 ADD MSTORE POP JUMP JUMPDEST PUSH1 0x0 PUSH2 0x3FD7 PUSH1 0xF DUP4 PUSH2 0x37EA JUMP JUMPDEST SWAP2 POP PUSH2 0x3FE2 DUP3 PUSH2 0x3FA1 JUMP JUMPDEST PUSH1 0x20 DUP3 ADD SWAP1 POP SWAP2 SWAP1 POP JUMP JUMPDEST PUSH1 0x0 PUSH1 0x20 DUP3 ADD SWAP1 POP DUP2 DUP2 SUB PUSH1 0x0 DUP4 ADD MSTORE PUSH2 0x4006 DUP2 PUSH2 0x3FCA JUMP JUMPDEST SWAP1 POP SWAP2 SWAP1 POP JUMP JUMPDEST PUSH32 0x4F524E463A206E6F742073757065722061646D696E0000000000000000000000 PUSH1 0x0 DUP3 ADD MSTORE POP JUMP JUMPDEST PUSH1 0x0 PUSH2 0x4043 PUSH1 0x15 DUP4 PUSH2 0x37EA JUMP JUMPDEST SWAP2 POP PUSH2 0x404E DUP3 PUSH2 0x400D JUMP JUMPDEST PUSH1 0x20 DUP3 ADD SWAP1 POP SWAP2 SWAP1 POP JUMP JUMPDEST PUSH1 0x0 PUSH1 0x20 DUP3 ADD SWAP1 POP DUP2 DUP2 SUB PUSH1 0x0 DUP4 ADD MSTORE PUSH2 0x4072 DUP2 PUSH2 0x4036 JUMP JUMPDEST SWAP1 POP SWAP2 SWAP1 POP JUMP JUMPDEST PUSH32 0x4E487B7100000000000000000000000000000000000000000000000000000000 PUSH1 0x0 MSTORE PUSH1 0x11 PUSH1 0x4 MSTORE PUSH1 0x24 PUSH1 0x0 REVERT JUMPDEST PUSH1 0x0 PUSH2 0x40B3 DUP3 PUSH2 0x34D3 JUMP JUMPDEST SWAP2 POP PUSH2 0x40BE DUP4 PUSH2 0x34D3 JUMP JUMPDEST SWAP3 POP DUP3 DUP3 SUB SWAP1 POP DUP2 DUP2 GT ISZERO PUSH2 0x40D6 JUMPI PUSH2 0x40D5 PUSH2 0x4079 JUMP JUMPDEST JUMPDEST SWAP3 SWAP2 POP POP JUMP JUMPDEST PUSH1 0x0 PUSH1 0x60 DUP3 ADD SWAP1 POP PUSH2 0x40F1 PUSH1 0x0 DUP4 ADD DUP7 PUSH2 0x3A63 JUMP JUMPDEST PUSH2 0x40FE PUSH1 0x20 DUP4 ADD DUP6 PUSH2 0x3E31 JUMP JUMPDEST PUSH2 0x410B PUSH1 0x40 DUP4 ADD DUP5 PUSH2 0x3E31 JUMP JUMPDEST SWAP5 SWAP4 POP POP POP POP JUMP JUMPDEST PUSH32 0x496E74657266616365446574656374696F6E3A2077726F6E672076616C756500 PUSH1 0x0 DUP3 ADD MSTORE POP JUMP JUMPDEST PUSH1 0x0 PUSH2 0x4149 PUSH1 0x1F DUP4 PUSH2 0x37EA JUMP JUMPDEST SWAP2 POP PUSH2 0x4154 DUP3 PUSH2 0x4113 JUMP JUMPDEST PUSH1 0x20 DUP3 ADD SWAP1 POP SWAP2 SWAP1 POP JUMP JUMPDEST PUSH1 0x0 PUSH1 0x20 DUP3 ADD SWAP1 POP DUP2 DUP2 SUB PUSH1 0x0 DUP4 ADD MSTORE PUSH2 0x4178 DUP2 PUSH2 0x413C JUMP JUMPDEST SWAP1 POP SWAP2 SWAP1 POP JUMP JUMPDEST PUSH32 0x455243313135353A2062616C616E6365206F6620616464726573732830290000 PUSH1 0x0 DUP3 ADD MSTORE POP JUMP JUMPDEST PUSH1 0x0 PUSH2 0x41B5 PUSH1 0x1E DUP4 PUSH2 0x37EA JUMP JUMPDEST SWAP2 POP PUSH2 0x41C0 DUP3 PUSH2 0x417F JUMP JUMPDEST PUSH1 0x20 DUP3 ADD SWAP1 POP SWAP2 SWAP1 POP JUMP JUMPDEST PUSH1 0x0 PUSH1 0x20 DUP3 ADD SWAP1 POP DUP2 DUP2 SUB PUSH1 0x0 DUP4 ADD MSTORE PUSH2 0x41E4 DUP2 PUSH2 0x41A8 JUMP JUMPDEST SWAP1 POP SWAP2 SWAP1 POP JUMP JUMPDEST PUSH1 0x0 DUP2 SWAP1 POP SWAP3 SWAP2 POP POP JUMP JUMPDEST PUSH32 0x416363657373436F6E74726F6C3A206D697373696E6720270000000000000000 PUSH1 0x0 DUP3 ADD MSTORE POP JUMP JUMPDEST PUSH1 0x0 PUSH2 0x422C PUSH1 0x18 DUP4 PUSH2 0x41EB JUMP JUMPDEST SWAP2 POP PUSH2 0x4237 DUP3 PUSH2 0x41F6 JUMP JUMPDEST PUSH1 0x18 DUP3 ADD SWAP1 POP SWAP2 SWAP1 POP JUMP JUMPDEST PUSH1 0x0 PUSH2 0x424D DUP3 PUSH2 0x37DF JUMP JUMPDEST PUSH2 0x4257 DUP2 DUP6 PUSH2 0x41EB JUMP JUMPDEST SWAP4 POP PUSH2 0x4267 DUP2 DUP6 PUSH1 0x20 DUP7 ADD PUSH2 0x37FB JUMP JUMPDEST DUP1 DUP5 ADD SWAP2 POP POP SWAP3 SWAP2 POP POP JUMP JUMPDEST PUSH32 0x2720726F6C650000000000000000000000000000000000000000000000000000 PUSH1 0x0 DUP3 ADD MSTORE POP JUMP JUMPDEST PUSH1 0x0 PUSH2 0x42A9 PUSH1 0x6 DUP4 PUSH2 0x41EB JUMP JUMPDEST SWAP2 POP PUSH2 0x42B4 DUP3 PUSH2 0x4273 JUMP JUMPDEST PUSH1 0x6 DUP3 ADD SWAP1 POP SWAP2 SWAP1 POP JUMP JUMPDEST PUSH1 0x0 PUSH2 0x42CA DUP3 PUSH2 0x421F JUMP JUMPDEST SWAP2 POP PUSH2 0x42D6 DUP3 DUP5 PUSH2 0x4242 JUMP JUMPDEST SWAP2 POP PUSH2 0x42E1 DUP3 PUSH2 0x429C JUMP JUMPDEST SWAP2 POP DUP2 SWAP1 POP SWAP3 SWAP2 POP POP JUMP JUMPDEST PUSH32 0x455243313135353A206D696E7420746F20616464726573732830290000000000 PUSH1 0x0 DUP3 ADD MSTORE POP JUMP JUMPDEST PUSH1 0x0 PUSH2 0x4322 PUSH1 0x1B DUP4 PUSH2 0x37EA JUMP JUMPDEST SWAP2 POP PUSH2 0x432D DUP3 PUSH2 0x42EC JUMP JUMPDEST PUSH1 0x20 DUP3 ADD SWAP1 POP SWAP2 SWAP1 POP JUMP JUMPDEST PUSH1 0x0 PUSH1 0x20 DUP3 ADD SWAP1 POP DUP2 DUP2 SUB PUSH1 0x0 DUP4 ADD MSTORE PUSH2 0x4351 DUP2 PUSH2 0x4315 JUMP JUMPDEST SWAP1 POP SWAP2 SWAP1 POP JUMP JUMPDEST PUSH32 0x455243313135353A20696E636F6E73697374656E742061727261797300000000 PUSH1 0x0 DUP3 ADD MSTORE POP JUMP JUMPDEST PUSH1 0x0 PUSH2 0x438E PUSH1 0x1C DUP4 PUSH2 0x37EA JUMP JUMPDEST SWAP2 POP PUSH2 0x4399 DUP3 PUSH2 0x4358 JUMP JUMPDEST PUSH1 0x20 DUP3 ADD SWAP1 POP SWAP2 SWAP1 POP JUMP JUMPDEST PUSH1 0x0 PUSH1 0x20 DUP3 ADD SWAP1 POP DUP2 DUP2 SUB PUSH1 0x0 DUP4 ADD MSTORE PUSH2 0x43BD DUP2 PUSH2 0x4381 JUMP JUMPDEST SWAP1 POP SWAP2 SWAP1 POP JUMP JUMPDEST PUSH32 0x4E487B7100000000000000000000000000000000000000000000000000000000 PUSH1 0x0 MSTORE PUSH1 0x32 PUSH1 0x4 MSTORE PUSH1 0x24 PUSH1 0x0 REVERT JUMPDEST PUSH1 0x0 PUSH1 0x40 DUP3 ADD SWAP1 POP DUP2 DUP2 SUB PUSH1 0x0 DUP4 ADD MSTORE PUSH2 0x440D DUP2 DUP6 PUSH2 0x3BC4 JUMP JUMPDEST SWAP1 POP DUP2 DUP2 SUB PUSH1 0x20 DUP4 ADD MSTORE PUSH2 0x4421 DUP2 DUP5 PUSH2 0x3BC4 JUMP JUMPDEST SWAP1 POP SWAP4 SWAP3 POP POP POP JUMP JUMPDEST PUSH32 0x4E487B7100000000000000000000000000000000000000000000000000000000 PUSH1 0x0 MSTORE PUSH1 0x22 PUSH1 0x4 MSTORE PUSH1 0x24 PUSH1 0x0 REVERT JUMPDEST PUSH1 0x0 PUSH1 0x2 DUP3 DIV SWAP1 POP PUSH1 0x1 DUP3 AND DUP1 PUSH2 0x4471 JUMPI PUSH1 0x7F DUP3 AND SWAP2 POP JUMPDEST PUSH1 0x20 DUP3 LT DUP2 SUB PUSH2 0x4484 JUMPI PUSH2 0x4483 PUSH2 0x442A JUMP JUMPDEST JUMPDEST POP SWAP2 SWAP1 POP JUMP JUMPDEST PUSH1 0x0 DUP2 SWAP1 POP DUP2 PUSH1 0x0 MSTORE PUSH1 0x20 PUSH1 0x0 KECCAK256 SWAP1 POP SWAP2 SWAP1 POP JUMP JUMPDEST PUSH1 0x0 DUP2 SLOAD PUSH2 0x44AC DUP2 PUSH2 0x4459 JUMP JUMPDEST PUSH2 0x44B6 DUP2 DUP7 PUSH2 0x41EB JUMP JUMPDEST SWAP5 POP PUSH1 0x1 DUP3 AND PUSH1 0x0 DUP2 EQ PUSH2 0x44D1 JUMPI PUSH1 0x1 DUP2 EQ PUSH2 0x44E6 JUMPI PUSH2 0x4519 JUMP JUMPDEST PUSH1 0xFF NOT DUP4 AND DUP7 MSTORE DUP2 ISZERO ISZERO DUP3 MUL DUP7 ADD SWAP4 POP PUSH2 0x4519 JUMP JUMPDEST PUSH2 0x44EF DUP6 PUSH2 0x448A JUMP JUMPDEST PUSH1 0x0 JUMPDEST DUP4 DUP2 LT ISZERO PUSH2 0x4511 JUMPI DUP2 SLOAD DUP2 DUP10 ADD MSTORE PUSH1 0x1 DUP3 ADD SWAP2 POP PUSH1 0x20 DUP2 ADD SWAP1 POP PUSH2 0x44F2 JUMP JUMPDEST DUP4 DUP9 ADD SWAP6 POP POP POP JUMPDEST POP POP POP SWAP3 SWAP2 POP POP JUMP JUMPDEST PUSH1 0x0 PUSH2 0x452E DUP3 DUP6 PUSH2 0x449F JUMP JUMPDEST SWAP2 POP PUSH2 0x453A DUP3 DUP5 PUSH2 0x4242 JUMP JUMPDEST SWAP2 POP DUP2 SWAP1 POP SWAP4 SWAP3 POP POP POP JUMP JUMPDEST PUSH32 0x455243313135353A206E6F6E2D617070726F7665642073656E64657200000000 PUSH1 0x0 DUP3 ADD MSTORE POP JUMP JUMPDEST PUSH1 0x0 PUSH2 0x457C PUSH1 0x1C DUP4 PUSH2 0x37EA JUMP JUMPDEST SWAP2 POP PUSH2 0x4587 DUP3 PUSH2 0x4546 JUMP JUMPDEST PUSH1 0x20 DUP3 ADD SWAP1 POP SWAP2 SWAP1 POP JUMP JUMPDEST PUSH1 0x0 PUSH1 0x20 DUP3 ADD SWAP1 POP DUP2 DUP2 SUB PUSH1 0x0 DUP4 ADD MSTORE PUSH2 0x45AB DUP2 PUSH2 0x456F JUMP JUMPDEST SWAP1 POP SWAP2 SWAP1 POP JUMP JUMPDEST PUSH1 0x0 PUSH1 0x40 DUP3 ADD SWAP1 POP PUSH2 0x45C7 PUSH1 0x0 DUP4 ADD DUP6 PUSH2 0x3549 JUMP JUMPDEST PUSH2 0x45D4 PUSH1 0x20 DUP4 ADD DUP5 PUSH2 0x3549 JUMP JUMPDEST SWAP4 SWAP3 POP POP POP JUMP JUMPDEST PUSH32 0x455243313135353A207472616E7366657220746F206164647265737328302900 PUSH1 0x0 DUP3 ADD MSTORE POP JUMP JUMPDEST PUSH1 0x0 PUSH2 0x4611 PUSH1 0x1F DUP4 PUSH2 0x37EA JUMP JUMPDEST SWAP2 POP PUSH2 0x461C DUP3 PUSH2 0x45DB JUMP JUMPDEST PUSH1 0x20 DUP3 ADD SWAP1 POP SWAP2 SWAP1 POP JUMP JUMPDEST PUSH1 0x0 PUSH1 0x20 DUP3 ADD SWAP1 POP DUP2 DUP2 SUB PUSH1 0x0 DUP4 ADD MSTORE PUSH2 0x4640 DUP2 PUSH2 0x4604 JUMP JUMPDEST SWAP1 POP SWAP2 SWAP1 POP JUMP JUMPDEST PUSH1 0x0 DUP1 REVERT JUMPDEST DUP3 DUP2 DUP4 CALLDATACOPY POP POP POP JUMP JUMPDEST PUSH1 0x0 PUSH2 0x4661 DUP4 DUP6 PUSH2 0x3B6F JUMP JUMPDEST SWAP4 POP PUSH32 0x7FFFFFFFFFFFFFFFFFFFFFFFFFFFFFFFFFFFFFFFFFFFFFFFFFFFFFFFFFFFFFF DUP4 GT ISZERO PUSH2 0x4694 JUMPI PUSH2 0x4693 PUSH2 0x4647 JUMP JUMPDEST JUMPDEST PUSH1 0x20 DUP4 MUL SWAP3 POP PUSH2 0x46A5 DUP4 DUP6 DUP5 PUSH2 0x464C JUMP JUMPDEST DUP3 DUP5 ADD SWAP1 POP SWAP4 SWAP3 POP POP POP JUMP JUMPDEST PUSH1 0x0 PUSH1 0x40 DUP3 ADD SWAP1 POP DUP2 DUP2 SUB PUSH1 0x0 DUP4 ADD MSTORE PUSH2 0x46CC DUP2 DUP7 DUP9 PUSH2 0x4655 JUMP JUMPDEST SWAP1 POP DUP2 DUP2 SUB PUSH1 0x20 DUP4 ADD MSTORE PUSH2 0x46E1 DUP2 DUP5 DUP7 PUSH2 0x4655 JUMP JUMPDEST SWAP1 POP SWAP6 SWAP5 POP POP POP POP POP JUMP JUMPDEST PUSH32 0x4F776E6572736869703A206E6F7420746865206F776E65720000000000000000 PUSH1 0x0 DUP3 ADD MSTORE POP JUMP JUMPDEST PUSH1 0x0 PUSH2 0x4722 PUSH1 0x18 DUP4 PUSH2 0x37EA JUMP JUMPDEST SWAP2 POP PUSH2 0x472D DUP3 PUSH2 0x46EC JUMP JUMPDEST PUSH1 0x20 DUP3 ADD SWAP1 POP SWAP2 SWAP1 POP JUMP JUMPDEST PUSH1 0x0 PUSH1 0x20 DUP3 ADD SWAP1 POP DUP2 DUP2 SUB PUSH1 0x0 DUP4 ADD MSTORE PUSH2 0x4751 DUP2 PUSH2 0x4715 JUMP JUMPDEST SWAP1 POP SWAP2 SWAP1 POP JUMP JUMPDEST PUSH32 0x4E487B7100000000000000000000000000000000000000000000000000000000 PUSH1 0x0 MSTORE PUSH1 0x41 PUSH1 0x4 MSTORE PUSH1 0x24 PUSH1 0x0 REVERT JUMPDEST PUSH32 0x50617573653A2070617573656400000000000000000000000000000000000000 PUSH1 0x0 DUP3 ADD MSTORE POP JUMP JUMPDEST PUSH1 0x0 PUSH2 0x47BD PUSH1 0xD DUP4 PUSH2 0x37EA JUMP JUMPDEST SWAP2 POP PUSH2 0x47C8 DUP3 PUSH2 0x4787 JUMP JUMPDEST PUSH1 0x20 DUP3 ADD SWAP1 POP SWAP2 SWAP1 POP JUMP JUMPDEST PUSH1 0x0 PUSH1 0x20 DUP3 ADD SWAP1 POP DUP2 DUP2 SUB PUSH1 0x0 DUP4 ADD MSTORE PUSH2 0x47EC DUP2 PUSH2 0x47B0 JUMP JUMPDEST SWAP1 POP SWAP2 SWAP1 POP JUMP JUMPDEST PUSH1 0x0 DUP3 SWAP1 POP SWAP3 SWAP2 POP POP JUMP JUMPDEST PUSH1 0x0 PUSH1 0x20 PUSH1 0x1F DUP4 ADD DIV SWAP1 POP SWAP2 SWAP1 POP JUMP JUMPDEST PUSH1 0x0 DUP3 DUP3 SHL SWAP1 POP SWAP3 SWAP2 POP POP JUMP JUMPDEST PUSH1 0x0 PUSH1 0x8 DUP4 MUL PUSH2 0x484B PUSH32 0xFFFFFFFFFFFFFFFFFFFFFFFFFFFFFFFFFFFFFFFFFFFFFFFFFFFFFFFFFFFFFFFF DUP3 PUSH2 0x480E JUMP JUMPDEST PUSH2 0x4855 DUP7 DUP4 PUSH2 0x480E JUMP JUMPDEST SWAP6 POP DUP1 NOT DUP5 AND SWAP4 POP DUP1 DUP7 AND DUP5 OR SWAP3 POP POP POP SWAP4 SWAP3 POP POP POP JUMP JUMPDEST PUSH1 0x0 DUP2 SWAP1 POP SWAP2 SWAP1 POP JUMP JUMPDEST PUSH1 0x0 PUSH2 0x4892 PUSH2 0x488D PUSH2 0x4888 DUP5 PUSH2 0x34D3 JUMP JUMPDEST PUSH2 0x486D JUMP JUMPDEST PUSH2 0x34D3 JUMP JUMPDEST SWAP1 POP SWAP2 SWAP1 POP JUMP JUMPDEST PUSH1 0x0 DUP2 SWAP1 POP SWAP2 SWAP1 POP JUMP JUMPDEST PUSH2 0x48AC DUP4 PUSH2 0x4877 JUMP JUMPDEST PUSH2 0x48C0 PUSH2 0x48B8 DUP3 PUSH2 0x4899 JUMP JUMPDEST DUP5 DUP5 SLOAD PUSH2 0x481B JUMP JUMPDEST DUP3 SSTORE POP POP POP POP JUMP JUMPDEST PUSH1 0x0 SWAP1 JUMP JUMPDEST PUSH2 0x48D5 PUSH2 0x48C8 JUMP JUMPDEST PUSH2 0x48E0 DUP2 DUP5 DUP5 PUSH2 0x48A3 JUMP JUMPDEST POP POP POP JUMP JUMPDEST JUMPDEST DUP2 DUP2 LT ISZERO PUSH2 0x4904 JUMPI PUSH2 0x48F9 PUSH1 0x0 DUP3 PUSH2 0x48CD JUMP JUMPDEST PUSH1 0x1 DUP2 ADD SWAP1 POP PUSH2 0x48E6 JUMP JUMPDEST POP POP JUMP JUMPDEST PUSH1 0x1F DUP3 GT ISZERO PUSH2 0x4949 JUMPI PUSH2 0x491A DUP2 PUSH2 0x448A JUMP JUMPDEST PUSH2 0x4923 DUP5 PUSH2 0x47FE JUMP JUMPDEST DUP2 ADD PUSH1 0x20 DUP6 LT ISZERO PUSH2 0x4932 JUMPI DUP2 SWAP1 POP JUMPDEST PUSH2 0x4946 PUSH2 0x493E DUP6 PUSH2 0x47FE JUMP JUMPDEST DUP4 ADD DUP3 PUSH2 0x48E5 JUMP JUMPDEST POP POP JUMPDEST POP POP POP JUMP JUMPDEST PUSH1 0x0 DUP3 DUP3 SHR SWAP1 POP SWAP3 SWAP2 POP POP JUMP JUMPDEST PUSH1 0x0 PUSH2 0x496C PUSH1 0x0 NOT DUP5 PUSH1 0x8 MUL PUSH2 0x494E JUMP JUMPDEST NOT DUP1 DUP4 AND SWAP2 POP POP SWAP3 SWAP2 POP POP JUMP JUMPDEST PUSH1 0x0 PUSH2 0x4985 DUP4 DUP4 PUSH2 0x495B JUMP JUMPDEST SWAP2 POP DUP3 PUSH1 0x2 MUL DUP3 OR SWAP1 POP SWAP3 SWAP2 POP POP JUMP JUMPDEST PUSH2 0x499F DUP4 DUP4 PUSH2 0x47F3 JUMP JUMPDEST PUSH8 0xFFFFFFFFFFFFFFFF DUP2 GT ISZERO PUSH2 0x49B8 JUMPI PUSH2 0x49B7 PUSH2 0x4758 JUMP JUMPDEST JUMPDEST PUSH2 0x49C2 DUP3 SLOAD PUSH2 0x4459 JUMP JUMPDEST PUSH2 0x49CD DUP3 DUP3 DUP6 PUSH2 0x4908 JUMP JUMPDEST PUSH1 0x0 PUSH1 0x1F DUP4 GT PUSH1 0x1 DUP2 EQ PUSH2 0x49FC JUMPI PUSH1 0x0 DUP5 ISZERO PUSH2 0x49EA JUMPI DUP3 DUP8 ADD CALLDATALOAD SWAP1 POP JUMPDEST PUSH2 0x49F4 DUP6 DUP3 PUSH2 0x4979 JUMP JUMPDEST DUP7 SSTORE POP PUSH2 0x4A5C JUMP JUMPDEST PUSH1 0x1F NOT DUP5 AND PUSH2 0x4A0A DUP7 PUSH2 0x448A JUMP JUMPDEST PUSH1 0x0 JUMPDEST DUP3 DUP2 LT ISZERO PUSH2 0x4A32 JUMPI DUP5 DUP10 ADD CALLDATALOAD DUP3 SSTORE PUSH1 0x1 DUP3 ADD SWAP2 POP PUSH1 0x20 DUP6 ADD SWAP5 POP PUSH1 0x20 DUP2 ADD SWAP1 POP PUSH2 0x4A0D JUMP JUMPDEST DUP7 DUP4 LT ISZERO PUSH2 0x4A4F JUMPI DUP5 DUP10 ADD CALLDATALOAD PUSH2 0x4A4B PUSH1 0x1F DUP10 AND DUP3 PUSH2 0x495B JUMP JUMPDEST DUP4 SSTORE POP JUMPDEST PUSH1 0x1 PUSH1 0x2 DUP9 MUL ADD DUP9 SSTORE POP POP POP JUMPDEST POP POP POP POP POP POP POP JUMP JUMPDEST DUP3 DUP2 DUP4 CALLDATACOPY PUSH1 0x0 DUP4 DUP4 ADD MSTORE POP POP POP JUMP JUMPDEST PUSH1 0x0 PUSH2 0x4A80 DUP4 DUP6 PUSH2 0x37EA JUMP JUMPDEST SWAP4 POP PUSH2 0x4A8D DUP4 DUP6 DUP5 PUSH2 0x4A65 JUMP JUMPDEST PUSH2 0x4A96 DUP4 PUSH2 0x3825 JUMP JUMPDEST DUP5 ADD SWAP1 POP SWAP4 SWAP3 POP POP POP JUMP JUMPDEST PUSH1 0x0 PUSH1 0x20 DUP3 ADD SWAP1 POP DUP2 DUP2 SUB PUSH1 0x0 DUP4 ADD MSTORE PUSH2 0x4ABC DUP2 DUP5 DUP7 PUSH2 0x4A74 JUMP JUMPDEST SWAP1 POP SWAP4 SWAP3 POP POP POP JUMP JUMPDEST PUSH32 0x455243313135353A2073656C662D617070726F76616C20666F7220616C6C0000 PUSH1 0x0 DUP3 ADD MSTORE POP JUMP JUMPDEST PUSH1 0x0 PUSH2 0x4AFB PUSH1 0x1E DUP4 PUSH2 0x37EA JUMP JUMPDEST SWAP2 POP PUSH2 0x4B06 DUP3 PUSH2 0x4AC5 JUMP JUMPDEST PUSH1 0x20 DUP3 ADD SWAP1 POP SWAP2 SWAP1 POP JUMP JUMPDEST PUSH1 0x0 PUSH1 0x20 DUP3 ADD SWAP1 POP DUP2 DUP2 SUB PUSH1 0x0 DUP4 ADD MSTORE PUSH2 0x4B2A DUP2 PUSH2 0x4AEE JUMP JUMPDEST SWAP1 POP SWAP2 SWAP1 POP JUMP JUMPDEST PUSH1 0x0 DUP2 SWAP1 POP SWAP2 SWAP1 POP JUMP JUMPDEST PUSH2 0x4B4C PUSH2 0x4B47 DUP3 PUSH2 0x39C0 JUMP JUMPDEST PUSH2 0x4B31 JUMP JUMPDEST DUP3 MSTORE POP POP JUMP JUMPDEST PUSH1 0x0 PUSH2 0x4B5E DUP3 DUP5 PUSH2 0x4B3B JUMP JUMPDEST PUSH1 0x20 DUP3 ADD SWAP2 POP DUP2 SWAP1 POP SWAP3 SWAP2 POP POP JUMP JUMPDEST PUSH32 0x455243313135353A2062616C616E6365206F766572666C6F7700000000000000 PUSH1 0x0 DUP3 ADD MSTORE POP JUMP JUMPDEST PUSH1 0x0 PUSH2 0x4BA3 PUSH1 0x19 DUP4 PUSH2 0x37EA JUMP JUMPDEST SWAP2 POP PUSH2 0x4BAE DUP3 PUSH2 0x4B6D JUMP JUMPDEST PUSH1 0x20 DUP3 ADD SWAP1 POP SWAP2 SWAP1 POP JUMP JUMPDEST PUSH1 0x0 PUSH1 0x20 DUP3 ADD SWAP1 POP DUP2 DUP2 SUB PUSH1 0x0 DUP4 ADD MSTORE PUSH2 0x4BD2 DUP2 PUSH2 0x4B96 JUMP JUMPDEST SWAP1 POP SWAP2 SWAP1 POP JUMP JUMPDEST PUSH1 0x0 DUP2 MLOAD SWAP1 POP SWAP2 SWAP1 POP JUMP JUMPDEST PUSH1 0x0 DUP3 DUP3 MSTORE PUSH1 0x20 DUP3 ADD SWAP1 POP SWAP3 SWAP2 POP POP JUMP JUMPDEST PUSH1 0x0 PUSH2 0x4C00 DUP3 PUSH2 0x4BD9 JUMP JUMPDEST PUSH2 0x4C0A DUP2 DUP6 PUSH2 0x4BE4 JUMP JUMPDEST SWAP4 POP PUSH2 0x4C1A DUP2 DUP6 PUSH1 0x20 DUP7 ADD PUSH2 0x37FB JUMP JUMPDEST PUSH2 0x4C23 DUP2 PUSH2 0x3825 JUMP JUMPDEST DUP5 ADD SWAP2 POP POP SWAP3 SWAP2 POP POP JUMP JUMPDEST PUSH1 0x0 PUSH1 0xA0 DUP3 ADD SWAP1 POP PUSH2 0x4C43 PUSH1 0x0 DUP4 ADD DUP9 PUSH2 0x3E31 JUMP JUMPDEST PUSH2 0x4C50 PUSH1 0x20 DUP4 ADD DUP8 PUSH2 0x3E31 JUMP JUMPDEST DUP2 DUP2 SUB PUSH1 0x40 DUP4 ADD MSTORE PUSH2 0x4C62 DUP2 DUP7 PUSH2 0x3BC4 JUMP JUMPDEST SWAP1 POP DUP2 DUP2 SUB PUSH1 0x60 DUP4 ADD MSTORE PUSH2 0x4C76 DUP2 DUP6 PUSH2 0x3BC4 JUMP JUMPDEST SWAP1 POP DUP2 DUP2 SUB PUSH1 0x80 DUP4 ADD MSTORE PUSH2 0x4C8A DUP2 DUP5 PUSH2 0x4BF5 JUMP JUMPDEST SWAP1 POP SWAP7 SWAP6 POP POP POP POP POP POP JUMP JUMPDEST PUSH1 0x0 DUP2 MLOAD SWAP1 POP PUSH2 0x4CA5 DUP2 PUSH2 0x359F JUMP JUMPDEST SWAP3 SWAP2 POP POP JUMP JUMPDEST PUSH1 0x0 PUSH1 0x20 DUP3 DUP5 SUB SLT ISZERO PUSH2 0x4CC1 JUMPI PUSH2 0x4CC0 PUSH2 0x346B JUMP JUMPDEST JUMPDEST PUSH1 0x0 PUSH2 0x4CCF DUP5 DUP3 DUP6 ADD PUSH2 0x4C96 JUMP JUMPDEST SWAP2 POP POP SWAP3 SWAP2 POP POP JUMP JUMPDEST PUSH32 0x455243313135353A207472616E736665722072656A6563746564000000000000 PUSH1 0x0 DUP3 ADD MSTORE POP JUMP JUMPDEST PUSH1 0x0 PUSH2 0x4D0E PUSH1 0x1A DUP4 PUSH2 0x37EA JUMP JUMPDEST SWAP2 POP PUSH2 0x4D19 DUP3 PUSH2 0x4CD8 JUMP JUMPDEST PUSH1 0x20 DUP3 ADD SWAP1 POP SWAP2 SWAP1 POP JUMP JUMPDEST PUSH1 0x0 PUSH1 0x20 DUP3 ADD SWAP1 POP DUP2 DUP2 SUB PUSH1 0x0 DUP4 ADD MSTORE PUSH2 0x4D3D DUP2 PUSH2 0x4D01 JUMP JUMPDEST SWAP1 POP SWAP2 SWAP1 POP JUMP JUMPDEST PUSH32 0x4E487B7100000000000000000000000000000000000000000000000000000000 PUSH1 0x0 MSTORE PUSH1 0x12 PUSH1 0x4 MSTORE PUSH1 0x24 PUSH1 0x0 REVERT JUMPDEST PUSH32 0x455243313135353A20696E73756666696369656E742062616C616E6365000000 PUSH1 0x0 DUP3 ADD MSTORE POP JUMP JUMPDEST PUSH1 0x0 PUSH2 0x4DA9 PUSH1 0x1D DUP4 PUSH2 0x37EA JUMP JUMPDEST SWAP2 POP PUSH2 0x4DB4 DUP3 PUSH2 0x4D73 JUMP JUMPDEST PUSH1 0x20 DUP3 ADD SWAP1 POP SWAP2 SWAP1 POP JUMP JUMPDEST PUSH1 0x0 PUSH1 0x20 DUP3 ADD SWAP1 POP DUP2 DUP2 SUB PUSH1 0x0 DUP4 ADD MSTORE PUSH2 0x4DD8 DUP2 PUSH2 0x4D9C JUMP JUMPDEST SWAP1 POP SWAP2 SWAP1 POP JUMP JUMPDEST PUSH32 0x50617573653A206E6F7420706175736564000000000000000000000000000000 PUSH1 0x0 DUP3 ADD MSTORE POP JUMP JUMPDEST PUSH1 0x0 PUSH2 0x4E15 PUSH1 0x11 DUP4 PUSH2 0x37EA JUMP JUMPDEST SWAP2 POP PUSH2 0x4E20 DUP3 PUSH2 0x4DDF JUMP JUMPDEST PUSH1 0x20 DUP3 ADD SWAP1 POP SWAP2 SWAP1 POP JUMP JUMPDEST PUSH1 0x0 PUSH1 0x20 DUP3 ADD SWAP1 POP DUP2 DUP2 SUB PUSH1 0x0 DUP4 ADD MSTORE PUSH2 0x4E44 DUP2 PUSH2 0x4E08 JUMP JUMPDEST SWAP1 POP SWAP2 SWAP1 POP JUMP JUMPDEST PUSH1 0x0 PUSH1 0xA0 DUP3 ADD SWAP1 POP PUSH2 0x4E60 PUSH1 0x0 DUP4 ADD DUP9 PUSH2 0x3E31 JUMP JUMPDEST PUSH2 0x4E6D PUSH1 0x20 DUP4 ADD DUP8 PUSH2 0x3E31 JUMP JUMPDEST PUSH2 0x4E7A PUSH1 0x40 DUP4 ADD DUP7 PUSH2 0x3549 JUMP JUMPDEST PUSH2 0x4E87 PUSH1 0x60 DUP4 ADD DUP6 PUSH2 0x3549 JUMP JUMPDEST DUP2 DUP2 SUB PUSH1 0x80 DUP4 ADD MSTORE PUSH2 0x4E99 DUP2 DUP5 PUSH2 0x4BF5 JUMP JUMPDEST SWAP1 POP SWAP7 SWAP6 POP POP POP POP POP POP JUMP INVALID LOG2 PUSH5 0x6970667358 0x22 SLT KECCAK256 0xB0 0xE6 EXTCODESIZE XOR DUP3 0x23 PUSH8 0x26543F30C62A83FC 0xEB 0xC8 0xF9 0xC5 JUMP 0xA7 0xD5 PUSH22 0x1AB1BD161B87F37B8464736F6C634300081200330000 "},"gasEstimates":{"creation":{"codeDepositCost":"4037400","executionCost":"infinite","totalCost":"infinite"},"external":{"ADMIN_ROLE()":"375","MINTER_ROLE()":"418","SUPER_ADMIN_ROLE()":"419","balanceOf(address,uint256)":"infinite","balanceOfBatch(address[],uint256[])":"infinite","baseMetadataURI()":"infinite","batchBurnFrom(address,uint256[],uint256[])":"infinite","burnFrom(address,uint256,uint256)":"infinite","grantAdminRole(address)":"infinite","grantMinterRole(address)":"infinite","grantRole(bytes32,address)":"infinite","hasRole(bytes32,address)":"infinite","isApprovedForAll(address,address)":"infinite","owner()":"infinite","pause()":"infinite","paused()":"infinite","renounceRole(bytes32)":"infinite","revokeRole(bytes32,address)":"infinite","safeBatchMint(address,uint256[],uint256[],bytes)":"infinite","safeBatchTransferFrom(address,address,uint256[],uint256[],bytes)":"infinite","safeMint(address,uint256,uint256,bytes)":"infinite","safeTransferFrom(address,address,uint256,uint256,bytes)":"infinite","setApprovalForAll(address,bool)":"infinite","setBaseMetadataURI(string)":"infinite","supportsInterface(bytes4)":"infinite","transferOwnership(address)":"infinite","unpause()":"infinite","uri(uint256)":"infinite"}},"methodIdentifiers":{"ADMIN_ROLE()":"75b238fc","MINTER_ROLE()":"d5391393","SUPER_ADMIN_ROLE()":"4460bdd6","balanceOf(address,uint256)":"00fdd58e","balanceOfBatch(address[],uint256[])":"4e1273f4","baseMetadataURI()":"5b2bd79e","batchBurnFrom(address,uint256[],uint256[])":"80534934","burnFrom(address,uint256,uint256)":"124d91e5","grantAdminRole(address)":"c634b78e","grantMinterRole(address)":"3dd1eb61","grantRole(bytes32,address)":"2f2ff15d","hasRole(bytes32,address)":"91d14854","isApprovedForAll(address,address)":"e985e9c5","owner()":"8da5cb5b","pause()":"8456cb59","paused()":"5c975abb","renounceRole(bytes32)":"8bb9c5bf","revokeRole(bytes32,address)":"d547741f","safeBatchMint(address,uint256[],uint256[],bytes)":"0d6a5bbb","safeBatchTransferFrom(address,address,uint256[],uint256[],bytes)":"2eb2c2d6","safeMint(address,uint256,uint256,bytes)":"5cfa9297","safeTransferFrom(address,address,uint256,uint256,bytes)":"f242432a","setApprovalForAll(address,bool)":"a22cb465","setBaseMetadataURI(string)":"7e518ec8","supportsInterface(bytes4)":"01ffc9a7","transferOwnership(address)":"f2fde38b","unpause()":"3f4ba83a","uri(uint256)":"0e89341c"}},"storageLayout":{"storage":[],"types":null},"userdoc":{"events":{"ApprovalForAll(address,address,bool)":{"notice":"Emitted when an approval for all tokens is set or unset."},"BaseMetadataURISet(string)":{"notice":"Emitted when the base token metadata URI is updated."},"OwnershipTransferred(address,address)":{"notice":"Emitted when the contract ownership changes."},"Paused()":{"notice":"Emitted when the pause is triggered."},"RoleGranted(bytes32,address,address)":{"notice":"Emitted when a role is granted."},"RoleRevoked(bytes32,address,address)":{"notice":"Emitted when a role is revoked or renounced."},"TransferBatch(address,address,address,uint256[],uint256[])":{"notice":"Emitted when a batch of tokens is transferred."},"TransferSingle(address,address,address,uint256,uint256)":{"notice":"Emitted when some token is transferred."},"URI(string,uint256)":{"notice":"Emitted optionally when a token metadata URI is set."},"Unpaused()":{"notice":"Emitted when the pause is lifted."}},"kind":"user","methods":{"balanceOf(address,uint256)":{"notice":"Retrieves the balance of `id` owned by account `owner`."},"balanceOfBatch(address[],uint256[])":{"notice":"Retrieves the balances of `ids` owned by accounts `owners`."},"baseMetadataURI()":{"notice":"Gets the base metadata URI."},"batchBurnFrom(address,uint256[],uint256[])":{"notice":"Burns multiple tokens."},"burnFrom(address,uint256,uint256)":{"notice":"Burns some token."},"grantRole(bytes32,address)":{"notice":"Grants a role to an account."},"hasRole(bytes32,address)":{"notice":"Retrieves whether an account has a role."},"isApprovedForAll(address,address)":{"notice":"Retrieves the approval status of an operator for a given owner."},"owner()":{"notice":"Gets the address of the contract owner."},"pause()":{"notice":"Pauses the contract."},"paused()":{"notice":"Gets the paused state of the contract."},"renounceRole(bytes32)":{"notice":"Renounces a role by the sender."},"revokeRole(bytes32,address)":{"notice":"Revokes a role from an account."},"safeBatchMint(address,uint256[],uint256[],bytes)":{"notice":"Safely mints a batch of tokens."},"safeBatchTransferFrom(address,address,uint256[],uint256[],bytes)":{"notice":"Safely transfers a batch of tokens."},"safeMint(address,uint256,uint256,bytes)":{"notice":"Safely mints some token."},"safeTransferFrom(address,address,uint256,uint256,bytes)":{"notice":"Safely transfers some token."},"setApprovalForAll(address,bool)":{"notice":"Enables or disables an operator's approval."},"setBaseMetadataURI(string)":{"notice":"Sets the base metadata URI."},"supportsInterface(bytes4)":{"notice":"Returns whether this contract implements a given interface."},"transferOwnership(address)":{"notice":"Sets the address of the new contract owner."},"unpause()":{"notice":"Unpauses the contract."},"uri(uint256)":{"notice":"Retrieves the URI for a given token."}},"version":1}}}}