{"@animoca/ethereum-contracts/contracts/token/metadata/libraries/TokenMetadataWithBaseURIStorage.sol":{"TokenMetadataWithBaseURIStorage":{"abi":[{"anonymous":false,"inputs":[{"indexed":false,"internalType":"string","name":"baseMetadataURI","type":"string"}],"name":"BaseMetadataURISet","type":"event"},{"inputs":[],"name":"LAYOUT_STORAGE_SLOT","outputs":[{"internalType":"bytes32","name":"","type":"bytes32"}],"stateMutability":"view","type":"function"}],"devdoc":{"kind":"dev","methods":{},"version":1},"evm":{"bytecode":{"linkReferences":{},"object":"610165610053600b82828239805160001a607314610046577f4e487b7100000000000000000000000000000000000000000000000000000000600052600060045260246000fd5b30600052607381538281f3fe73000000000000000000000000000000000000000030146080604052600436106100355760003560e01c806396c3092d1461003a575b600080fd5b610042610058565b60405161004f91906100a7565b60405180910390f35b60017fe94434e3c6b941c5d90218142fadcc69cb2e13723993540bfa1c131dd1d3475a60001c61008891906100fb565b60001b81565b6000819050919050565b6100a18161008e565b82525050565b60006020820190506100bc6000830184610098565b92915050565b6000819050919050565b7f4e487b7100000000000000000000000000000000000000000000000000000000600052601160045260246000fd5b6000610106826100c2565b9150610111836100c2565b9250828203905081811115610129576101286100cc565b5b9291505056fea264697066735822122093f87c43f849c347667c6dd574b7235f037e3a0465d5c979e5bf25ad199a0c9364736f6c63430008120033","opcodes":"PUSH2 0x165 PUSH2 0x53 PUSH1 0xB DUP3 DUP3 DUP3 CODECOPY DUP1 MLOAD PUSH1 0x0 BYTE PUSH1 0x73 EQ PUSH2 0x46 JUMPI PUSH32 0x4E487B7100000000000000000000000000000000000000000000000000000000 PUSH1 0x0 MSTORE PUSH1 0x0 PUSH1 0x4 MSTORE PUSH1 0x24 PUSH1 0x0 REVERT JUMPDEST ADDRESS PUSH1 0x0 MSTORE PUSH1 0x73 DUP2 MSTORE8 DUP3 DUP2 RETURN INVALID PUSH20 0x0 ADDRESS EQ PUSH1 0x80 PUSH1 0x40 MSTORE PUSH1 0x4 CALLDATASIZE LT PUSH2 0x35 JUMPI PUSH1 0x0 CALLDATALOAD PUSH1 0xE0 SHR DUP1 PUSH4 0x96C3092D EQ PUSH2 0x3A JUMPI JUMPDEST PUSH1 0x0 DUP1 REVERT JUMPDEST PUSH2 0x42 PUSH2 0x58 JUMP JUMPDEST PUSH1 0x40 MLOAD PUSH2 0x4F SWAP2 SWAP1 PUSH2 0xA7 JUMP JUMPDEST PUSH1 0x40 MLOAD DUP1 SWAP2 SUB SWAP1 RETURN JUMPDEST PUSH1 0x1 PUSH32 0xE94434E3C6B941C5D90218142FADCC69CB2E13723993540BFA1C131DD1D3475A PUSH1 0x0 SHR PUSH2 0x88 SWAP2 SWAP1 PUSH2 0xFB JUMP JUMPDEST PUSH1 0x0 SHL DUP2 JUMP JUMPDEST PUSH1 0x0 DUP2 SWAP1 POP SWAP2 SWAP1 POP JUMP JUMPDEST PUSH2 0xA1 DUP2 PUSH2 0x8E JUMP JUMPDEST DUP3 MSTORE POP POP JUMP JUMPDEST PUSH1 0x0 PUSH1 0x20 DUP3 ADD SWAP1 POP PUSH2 0xBC PUSH1 0x0 DUP4 ADD DUP5 PUSH2 0x98 JUMP JUMPDEST SWAP3 SWAP2 POP POP JUMP JUMPDEST PUSH1 0x0 DUP2 SWAP1 POP SWAP2 SWAP1 POP JUMP JUMPDEST PUSH32 0x4E487B7100000000000000000000000000000000000000000000000000000000 PUSH1 0x0 MSTORE PUSH1 0x11 PUSH1 0x4 MSTORE PUSH1 0x24 PUSH1 0x0 REVERT JUMPDEST PUSH1 0x0 PUSH2 0x106 DUP3 PUSH2 0xC2 JUMP JUMPDEST SWAP2 POP PUSH2 0x111 DUP4 PUSH2 0xC2 JUMP JUMPDEST SWAP3 POP DUP3 DUP3 SUB SWAP1 POP DUP2 DUP2 GT ISZERO PUSH2 0x129 JUMPI PUSH2 0x128 PUSH2 0xCC JUMP JUMPDEST JUMPDEST SWAP3 SWAP2 POP POP JUMP INVALID LOG2 PUSH5 0x6970667358 0x22 SLT KECCAK256 SWAP4 0xF8 PUSH29 0x43F849C347667C6DD574B7235F037E3A0465D5C979E5BF25AD199A0C93 PUSH5 0x736F6C6343 STOP ADDMOD SLT STOP CALLER "},"gasEstimates":{"creation":{"codeDepositCost":"71400","executionCost":"148","totalCost":"71548"},"external":{"LAYOUT_STORAGE_SLOT()":"infinite"},"internal":{"baseMetadataURI(struct TokenMetadataWithBaseURIStorage.Layout storage pointer)":"infinite","layout()":"infinite","setBaseMetadataURI(struct TokenMetadataWithBaseURIStorage.Layout storage pointer,string calldata)":"infinite","tokenMetadataURI(struct TokenMetadataWithBaseURIStorage.Layout storage pointer,uint256)":"infinite"}},"methodIdentifiers":{"LAYOUT_STORAGE_SLOT()":"96c3092d"}},"storageLayout":{"storage":[],"types":null},"userdoc":{"kind":"user","methods":{},"version":1}}}}