{
  "_format": "hh-sol-artifact-1",
  "contractName": "TokenMetadataWithBaseURIStorage",
  "sourceName": "@animoca/ethereum-contracts/contracts/token/metadata/libraries/TokenMetadataWithBaseURIStorage.sol",
  "abi": [
    {
      "anonymous": false,
      "inputs": [
        {
          "indexed": false,
          "internalType": "string",
          "name": "baseMetadataURI",
          "type": "string"
        }
      ],
      "name": "BaseMetadataURISet",
      "type": "event"
    },
    {
      "inputs": [],
      "name": "LAYOUT_STORAGE_SLOT",
      "outputs": [
        {
          "internalType": "bytes32",
          "name": "",
          "type": "bytes32"
        }
      ],
      "stateMutability": "view",
      "type": "function"
    }
  ],
  "bytecode": "0x610165610053600b82828239805160001a607314610046577f4e487b7100000000000000000000000000000000000000000000000000000000600052600060045260246000fd5b30600052607381538281f3fe73000000000000000000000000000000000000000030146080604052600436106100355760003560e01c806396c3092d1461003a575b600080fd5b610042610058565b60405161004f91906100a7565b60405180910390f35b60017fe94434e3c6b941c5d90218142fadcc69cb2e13723993540bfa1c131dd1d3475a60001c61008891906100fb565b60001b81565b6000819050919050565b6100a18161008e565b82525050565b60006020820190506100bc6000830184610098565b92915050565b6000819050919050565b7f4e487b7100000000000000000000000000000000000000000000000000000000600052601160045260246000fd5b6000610106826100c2565b9150610111836100c2565b9250828203905081811115610129576101286100cc565b5b9291505056fea264697066735822122093f87c43f849c347667c6dd574b7235f037e3a0465d5c979e5bf25ad199a0c9364736f6c63430008120033",
  "linkReferences": {},
  "deployedLinkReferences": {}
}